:020000040800F2
:100000009007002001010008B13B0008812E000884
:10001000153B0008E50B00085547000800000000EC
:10002000000000000000000000000000AB410008DC
:10003000E70B00080000000029400008E14100082B
:100040001B0100081B0100081B0100081B01000820
:100050001B0100081B0100081B0100081B01000810
:100060001B0100081B0100081B0100081B01000800
:100070001B0100081B0100081B0100081B010008F0
:100080001B0100081B0100081B0100081B010008E0
:100090001B0100081B0100081B010008E90B0008F8
:1000A0001B0100081B0100081B0100081B010008C0
:1000B000614200086D4200081B0100081B01000896
:1000C0001B0100081B0100081B0100081B010008A0
:1000D0001B010008314700083D4700084947000858
:1000E0001B0100081B0100081B010008DFF80CD0F1
:1000F00000F0AAFC004800475D630008900700205C
:100100000648804706480047FEE7FEE7FEE7FEE7B1
:10011000FEE7FEE7FEE7FEE7FEE7FEE75D420008DA
:10012000ED0000082DE9F0410024061B254671F181
:10013000000605DA01240027D0EB070067EB010178
:10014000161E73F1000605DA0027D2EB070201251F
:1001500067EB030300F092FB86460E4617469C466B
:10016000AC4204D00025D0EB050E65EB010624B1AE
:100170000020D2EB000760EB030C704631463A4694
:100180006346BDE8F081202A04DB203A21FA02F020
:100190000021704721FA02F3D040C2F120029140C1
:1001A000084319467047D2B201E000F8012B491EFE
:1001B000FBD270470022F6E710B513460A46044604
:1001C0001946FFF7F0FF204610BD30B50446002069
:1001D000034600E05B1C934203D2E05CCD5C401B15
:1001E000F8D030BDF0B480EA0102D40F4200B2EB87
:1001F000410F02D20246084611464A0042D0C30DC2
:10020000DDB2C1F3C752AD1A202D35DAC1F31601A4
:1002100041F4000204B15242C5F1200602FA06F18F
:100220002A411044B3EBD05F23D0C4B1012DA0EB21
:10023000C35009DCF0BC4FF0004202EAC352DBB20B
:1002400000F5000000F075BB400000F1807000EB8D
:10025000C350A0F1807040EAD170490009E049081C
:1002600041EAC071A0EBC35000F50000400800EB6C
:10027000C350F0BC00F054BB6142012202EB4101CB
:10028000001BF6E7F0BC704781F00041AAE780F060
:100290000040A7E780EA010210B502F000434000E9
:1002A00022D04A001FD0010E01EB1261C0F35600AC
:1002B000C2F3560240F4000042F40002A0FB022008
:1002C00000047F39140400D0401C50EA124001D4CD
:1002D0004000491EC2B20C0604EBD010401C40087E
:1002E000802A02D003E0002010BD20F00100002988
:1002F00000DA0020184310BD30B480EA010202F099
:10030000004530F0004221F0004013D090B1C30D01
:10031000D40DC2F31601C0F31600E41A41F4000133
:1003200040F400027D34914201D3641C00E0490096
:10033000002C02DA30BC002070474FF4000000238C
:10034000914201D3891A034340084FEA4101F7D192
:1003500051B1914202D14FF0004105E002D24FF07D
:10036000010101E06FF0010103EBC450284430BCEF
:1003700000F0D6BA420005D0C0F3C75252429142B3
:1003800001DC0020704700EBC15070472DE9FE4FA3
:10039000804681EA0300C00F0C46009021F0004126
:1003A00023F00045B8EB0200A94105D240462146A2
:1003B00090461C460B46024623F00040104347D0AF
:1003C000270DC7F30A00C3F30A510290401A0190A7
:1003D00040286BDAC3F3130040F4801B0098924668
:1003E00020B10023D2EB030A63EB0B0B01985946B3
:1003F000C0F14002504600F072FA06460D465046E3
:100400005946019A00F07AFA10EB08006141002485
:1004100087EA115284EAE7731A4340D0009A62B324
:10042000019A012A4FEA075215DC001B61EB020119
:100430004FF0004202EA0752CDE90042001C41F5AC
:10044000801132462B4600F0B1FA03B0BDE8F08FC0
:1004500040462146F9E7001B61EB0201001C41F513
:10046000801300185B412018A2F5001747EB030129
:1004700040EAD570B6196D4111E06D084FEA3606B5
:1004800045EAC0754FEA0752001B61EB0201001CF0
:1004900041F5801149084FEA3000001951413246B8
:1004A0002B4603B0BDE8F04F00F071BA009801226E
:1004B00040000023D0EB020263EBE073009821467A
:1004C0004FEAE074B8EB000061EB0401E9E783F068
:1004D00000435BE781F0004158E72DE9FE4F81EAD8
:1004E000030404F0004421F0004100944FF0000B9D
:1004F00023F0004350EA01045ED052EA03045BD0CB
:10050000C3F30A54C1F30A552C44A4F2F334019402
:10051000A0FB0254C1F3130141F48011C3F3130390
:1005200043F4801301FB024400FB034E840A970A44
:1005300044EA815447EA8357A4FB076802958D0A71
:1005400005FB07854FEA932C04FB0C542705029DFD
:100550004FEA065847EA1637B5EB08056EEB070C6D
:10056000870E920E47EA811742EA8312A7FB020127
:10057000B6EB0B0164EB00042B0D43EA0C335E1861
:1005800044EB1C50DA465146E7FB0201C5F3130465
:100590004FEA0B3343EA14534FEA0432019C43EA17
:1005A0000603A4F10C040294009CCDE900B400F011
:1005B000FDF903B0BDE8F08F00200146F9E72DE911
:1005C000F04D81EA030404F0004B21F0004514468D
:1005D0004FF0000A23F0004150EA050220D054EA0F
:1005E00001021DD0C5F30A570246C5F31303C1F338
:1005F0001300C1F30A5640F4801543F48013A7EBAF
:100600000608101BD64608F2FD3873EB050002D32E
:1006100008F1010801E092185B41B8F1000F03DA1C
:1006200000200146BDE8F08D00204FF48011064601
:1006300084460EE0171B73EB050705D3121B63EB13
:10064000050306434CEA010C49084FEA30009218B2
:100650005B4150EA0107EDD152EA030012D082EA71
:10066000040083EA0501084305D0101BAB4106D204
:100670000122002306E000224FF0004302E06FF069
:10068000010253101AEB06004CEB085110EB0A0064
:1006900041EB0B01BDE8F04D00F079B970B521F0E8
:1006A000004303430CD0C1F30A550024D5EB0405E5
:1006B00064EB0403D617AD1AB34102DB00200146F8
:1006C00070BD201841EB025170BDC10F80EAE0708F
:1006D0000844CA079623002100F02BB99623002274
:1006E000114600F026B90EB5C10F80EAE07008444B
:1006F000CA07002140F233438DE80E000A460B463C
:1007000000F054F903B000BD0EB540F23341029140
:100710000021CDE900110A460B4600F047F903B06D
:1007200000BD00F0004220F00040C10DC0F31600F3
:1007300040F400007F2901DA00207047962903DC8D
:10074000C1F19601C84001E096398840002AF4D0F2
:100750004042704720F00040C10DC0F3160040F445
:1007600000007F2901DA00207047962903DCC1F1DF
:100770009601C840704796398840704770B5C1F3FC
:100780000A5201F000450024C1F3130140F2FF3387
:1007900041F480119A4201DA002070BD40F23343E7
:1007A0009A42A2F2334203DC5242FFF7ECFC00E033
:1007B00090402C43F1D0404270BDC1F30A5210B5B5
:1007C000C1F3130140F2FF3341F480119A4201DA80
:1007D000002010BD40F233439A42A2F2334203DCC0
:1007E0005242FFF7D0FC10BD904010BD00F0004217
:1007F00030F000400AD0C10D01F56071C0F3160061
:1008000042EA0151C20840071143704700200146E7
:100810007047000030B5041E71F1000404DB4FF096
:100820000044404264EB0101141E73F1000405DB37
:100830001C464FF00043524263EB04038B4208BF57
:10084000824230BD01F0004330B421F0004150EA53
:10085000010206D00A0DA2F56072C1F31301002A4D
:1008600002DC30BC00207047440F44EAC104C100E0
:10087000E01830BC00EBC25000F052B82DE9F05F38
:100880000546002092469B468846064681464024FF
:100890001BE02846414647462246FFF774FC534674
:1008A0005A46C01A914110D311461846224600F00C
:1008B00016F82D1A67EB01084F4622460120002149
:1008C00000F00DF817EB00094E41201EA4F10104C1
:1008D000DFDC484631462A464346BDE8F09F202AE1
:1008E00004DB203A00FA02F1002070479140C2F187
:1008F000200320FA03F3194390407047202A06DBB7
:10090000CB17203A41FA02F043EAE07306E041FADD
:1009100002F3D040C2F120029140084319467047CB
:100920000029A8BF7047401C490008BF20F0010003
:10093000704710B4B0FA80FC00FA0CF050EA0104E1
:1009400004BF10BC704749B1CCF1200421FA04F473
:1009500011FA0CF118BF012121430843A3EB0C014C
:10096000CB1D4FEA00614FEA102042BF002010BCAF
:10097000704700EBC35010440029A4BF10BC70475F
:10098000401C490008BF20F0010010BC704710B5A2
:10099000141E73F1000408DA401C41F100019218A2
:1009A0005B411A4301D120F0010010BD2DE9F04D4B
:1009B00092469B4611B1B1FA81F202E0B0FA80F2A0
:1009C00020329046FFF78BFF04460F4640EA0A00AC
:1009D00041EA0B0153465A46084313D0114653EAE5
:1009E000010019D0C8F140025046FFF7CCFB054684
:1009F0000E46504659464246FFF771FF084305D060
:100A0000012004E020463946BDE8F08D0020054372
:100A100046EAE0762C4337430A986305E40AA0EBE4
:100A200008000022FD0A44EA47540A3002D500209B
:100A30000146E9E7010510196941DDE9084500199A
:100A40006941BDE8F04DA2E7064C074D06E0E068BD
:100A500040F0010394E8070098471034AC42F6D305
:100A6000FFF748FBD0880008F08800082DE9F04D1A
:100A700000231A461B1A8A4103DB00200146BDE809
:100A8000F08DC1F30A52C1F3130141F480154FF008
:100A9000000BD10702D100186D41521E00270446F9
:100AA00040F2FF11384601EB620A3E46804602469C
:100AB00000204FF48011FFF766FBC2197141BB188B
:100AC00046EB0100B4EB030C75EB000C04D3E41A05
:100AD00065EB000517460E46241908F101006D412B
:100AE00080463428E3DDF91946EB0600091BA841CE
:100AF00003D24FF0FF32134601E0002213461BEBF6
:100B0000070046EB0A51BDE8F04DFFF740BF00007B
:100B100070B5044600688168C943C90717D1816868
:100B200021F00101816000F067FC05460AE000BF8A
:100B300000F062FC401B022804D920688068C04392
:100B4000C00706D020688068C043C007F0D00020EE
:100B500070BDA06A40F01000A062E06A40F00100A1
:100B6000E062012070BD0000F8B500260446009642
:100B700000688168C943C9072DD0816841F001012F
:100B80008160164816490068B0FBF1F000E0401E95
:100B900000900028FBD100F02FFC054616E000BFB6
:100BA00000F02AFC401B022810D920688068C0434E
:100BB000C0070BD0A06A40F01000A062E06A40F0CD
:100BC0000100E06284F824600120F8BD206880689C
:100BD000C043C007E4D10020F8BD00002C00002075
:100BE00040420F00FEE77047202000F0FBBA0000F3
:100BF0000C4910B50968002048620B490968486231
:100C00003C21084801F0CBFC3C21074801F0C7FC1F
:100C10003C21044801F07CFCBDE810403C21024826
:100C200001F076BCD80100202002002072B6FEE759
:100C3000002800DC40427047F8B50024009490F88A
:100C400024202546012A12D0012280F824204A6857
:100C50001F23072A0DD20668776B521E02EB820211
:100C600093409F430B6893401F43776319E0022032
:100C7000F8BD06680D2A0AD2376BD21F02EB82023A
:100C800093409F430B6893401F43376309E0F76A23
:100C90000D3A02EB820293409F430B6893401F433F
:100CA000F7620A68072306680A2A0AD3F7680A3A2D
:100CB00002EB420293409F438B6893401F43F760CF
:100CC00008E0376902EB420293409F438B689340F0
:100CD0001F4337610A68102A01D0112A20D1124B14
:100CE00002689A4217D193681B0219D4936843F49F
:100CF000000393600968102912D10C490C4A096855
:100D0000B1FBF2F101EB8101490000E0491E0091C5
:100D10000029FBD104E0816A41F0200181620124B5
:100D200080F824502046F8BD002401402C0000200B
:100D300040420F00806A70470068C06C7047000036
:100D40002DE9F0414FF0000704003D467ED0A06A37
:100D5000002628B9E66284F82460204600F07EF878
:100D60002046FFF7D5FEA16AC90600D420B1A06ACB
:100D700040F01000A06269E0A16A21F4885141F0BE
:100D80000201A1626268E169237B0A4347EA4301E9
:100D90000A43A1684FF48077B94209D0012907D0EE
:100DA0005FF0000194F814C0BCF1010F02D00AE01A
:100DB0003946F7E7F3B1A36A43F02003A362E36A7D
:100DC00043F00103E3622368D3F804C02CF4694CB8
:100DD0004CEA010CC3F804C021688B68DFF870C0CE
:100DE00003EA0C0313438B60A168B9420BD00129BD
:100DF00009D00CE0DFF85CC0A3690CEB43330B4374
:100E000043F40061DFE7218A0D05A5F5801521680F
:100E1000CB6A23F470032B43CB62216889680E4BA5
:100E20001940914208D1E662A16A21F0020141F025
:100E30000101A162BDE8F081A06A20F0020040F04B
:100E40001000A062E06A40F00100E0620120F1E7DA
:100E5000FDF7E1FF00E0FFFFFE0E1FFF00B585B0CC
:100E60000021009101910291039100680E4988428E
:100E700018D10E48816941F400718161816901F4E2
:100E800000710491816941F00801816180696946BE
:100E900000F0080004900120009003200190044815
:100EA00000F0ACF905B000BD002401400010024084
:100EB000000C01402DE9F84300270D460446009739
:100EC00000F09AFA804620688168C90508D5A06AB2
:100ED00040F02000A06284F824700120BDE8F8836F
:100EE0004168C90503D4C06A10F4700F2AD00220EB
:100EF00000F0E2FD3B490968B1FBF0F620680369A8
:100F000039490B424FEA61014FEAA1121FD1C36870
:100F10004FEA611C13EA0C0F19D103690B4225D16A
:100F2000C068104222D1142023E0681C0AD02DB1E1
:100F300000F062FAA0EB0800A84203D9206800681C
:100F4000800725D5206800688007EED52DE003696D
:100F50000B4202D1C168114206D0026923490A42FC
:100F600006D1C068084203D1542002E0292000E0E5
:100F7000FC204643009816E0681C11D02DB100F00B
:100F80003BFAA0EB0800A8420AD90098B04207D269
:100F9000A06A40F00400A06284F8247003209DE75A
:100FA0000098401C0090B042E6D321686FF0120018
:100FB0000860A06A40F40070A06220688068C0F3F6
:100FC000424007280CD1207B50B9A06A20F48070E1
:100FD000A062A06AC00403D4A06A40F00100A0622D
:100FE00000207BE72C000020244992244992240011
:100FF00070B5044690F8240001280DD0012084F833
:1010000024002046FFF7B0FD02004FF0000005D09D
:1010100084F82400104670BD022070BDA16A40F221
:101020000123994341F48071A1621F4D23681F4938
:10103000AB4218D10E6816F4702F14D0A66A46F48D
:101040008016A6620E68760505D5A66A26F40056B7
:1010500046F48056A662A66AF6040AD5E66A26F029
:101060000606E66206E0A66A26F48016A6625E68B8
:10107000E9E7E06284F824006FF00200186020685D
:101080008368C3F34243072B05D1A84208D10968FE
:1010900011F4702F04D0816841F480118160B9E7A8
:1010A000816841F4A001F9E70028014004240140CF
:1010B00010B590F821100022022905D00421816387
:1010C00080F82020012010BD01680B6823F00E037A
:1010D0000B6001680B6823F001030B6090F840304F
:1010E000C46B012101FA03F3636080F8211080F8DA
:1010F0002020104610BD000010B590F821100024EB
:10110000022903D00421816301243DE001680A68BB
:1011100022F00E020A6001680A6822F001020A60E9
:101120001A4A0168914201D1012121E0174A143283
:10113000914201D110211BE0144A2832914201D181
:10114000891515E0114A3C32914201D189140FE012
:101150000E4A5032914202D14FF4803108E00B4ADE
:101160006432914202D14FF4801101E04FF080715E
:10117000064A083A5160012180F82110002180F8C8
:101180002010416B01B18847204610BD0800024085
:1011900070B5044600F030F90546601C02D00448E2
:1011A0000078044400F028F9401BA042FAD370BD37
:1011B0002000002010B5202811D1322005F0BCF805
:1011C000074A911E881E02F079F9054A0E32111F56
:1011D000081F02F059F8BDE8104004F019B910BD1D
:1011E00006000020044910B50A68024202D00860D7
:1011F000FFF7E0FF10BD0000140401402DE9F84F97
:10120000DFF8B891002409F1040A0AF1040B23461F
:101210000F270BF1040EC9E00125A5402A40AA4280
:101220007DD1674ED1F804C0ACEB0608B44532D08E
:1012300014DCBCF1030F3AD009DCBCF1000F2AD05A
:10124000BCF1010F1CD0BCF1020F31D11DE0BCF18B
:10125000110F17D0BCF1120F2AD119E0B8F5881F71
:1012600019D006DCB8F5803F15D0B8F5801F1FD126
:1012700011E0B8F5001F0ED0B8F5041F18D10AE030
:10128000CB6815E0CB681B1D12E0CB6808330FE07C
:10129000CB680C330CE08B682BB1012B4FF00803AB
:1012A00003D0456104E0042302E0056100E000236F
:1012B000FF2A01D8064601E000F104064FEA840542
:1012C00001D9A5F12005D6F8008007FA05FC28EA27
:1012D0000C0803FA05F548EA0508C6F800804D68D1
:1012E000ED0062D5374DAE6946F00106AE61AD69DD
:1012F00024F0030605F001050095334D06EB050CBF
:10130000DCF80850A607360F07FA06F825EA0805A4
:10131000DFF8B880404503D14FF0000817E044E003
:10132000DFF8AC80404502D14FF001080FE0DFF854
:10133000A480404502D14FF0020808E0DFF8988011
:10134000404502D14FF0030801E04FF0040808FACD
:1013500006F848EA0508CCF808804D68D9F800601E
:10136000ED034D4601D5164300E096432E604D68CF
:10137000DAF80060AD03554601D5164300E0964308
:101380002E604D68DBF80060ED025D4601D5164326
:1013900000E096432E604D68DEF80060AD027546B1
:1013A00001D5164300E096432E60641C0D682A4662
:1013B000E5407FF431AFBDE8F88F00000004014044
:1013C0000000111000100240000001400008014020
:1013D000000C01400010014000140140C26821EAE5
:1013E00002030A4043EA0241016170470AB1016108
:1013F00070470904FBE7000001488068704700005F
:101400002000002070B5040025D094F83D00002590
:1014100020B984F83C50204600F078FA242084F863
:101420003D002068016821F0010101602068016829
:1014300041F4004101602068016821F4004101602D
:1014400000F0AAFC4D4A6168914201D84C4900E085
:101450004C49884201D2012070BD4B492368B0FB42
:10146000F1F15E6826F03F060E435E6063689342CA
:1014700006D94FF4967359434FF47A73B1FBF3F1E5
:101480002368491C1E6A26F03F06314319626168D1
:10149000914210D84900401EB0FBF1F2521CC2F339
:1014A0000B02042A01D2042022E0B0FBF1F0401C20
:1014B000C0F30B001CE0A268F2B301EBC10303EB25
:1014C0000116431EB3FBF6F35B1C43F480431B057C
:1014D00049D092B301EBC10202EB0111401EB0FBF7
:1014E000F1F0401CC0F30B0040F4804040F4004099
:1014F0002168CA694CF6FF739A431043C861D4E966
:10150000071001432068026822F0C0021143016005
:10151000D4E9030101432068826848F2FF339A430B
:1015200011438160D4E9050108432168CA6822F0AB
:10153000FF021043C86001E00EE016E02068016879
:1015400041F0010101602564202084F83D002563FD
:1015500084F83E50002070BD01EB4106431EB3FBF2
:10156000F6F35B1CB3E70120C2E701EB4101401E2B
:10157000B0FBF1F0401CC0F30B00B7E7A086010000
:1015800080841E0000093D0040420F002DE9FF4FFE
:1015900083B00025DDE910799A4693460446DDF8CC
:1015A00048800095FFF728FF064694F83D00202864
:1015B0007CD11923012285492046009601F070FD57
:1015C0000028F5D194F83C0001286FD0012084F860
:1015D0003C0020680168C90703D1016841F001019E
:1015E00001602068016821F400610160222084F814
:1015F0003D00402084F83E0025646762A4F82A90EC
:10160000608D20857248E062CDE9008653465A46D7
:101610002046049901F04CFC00287DD1208DDFF894
:10162000B491202768B1012814D0022820680168ED
:101630001ED041F48061016020684169806900909A
:10164000B6E02068416981690091016841F4007148
:101650000160ADE02068016821F48061016072B62C
:101660002068416981690091016841F400710AE0D4
:1016700041F40061016072B620684169816900919E
:10168000016821F48061016062B691E0032868D8A6
:1016900001280CD0022843464FF00002494620465C
:1016A00000960FD001F0FCFCB0BB10E08BE032469E
:1016B0004146204601F073FD70BB20680069616AF5
:1016C00008706CE001F0ECFC30BB72B634E02068CE
:1016D000016821F48061016072B620680069616A66
:1016E0000870606A401C6062208D401E2085608DFD
:1016F000401E6085384846F2A8110068B0FBF1F042
:10170000C0EBC00000EB80000090401E009008D0AD
:1017100020684069C04300E029E040070CD50098EC
:10172000F3E744F8305F6773A573206940F0200049
:10173000206162B625731AE02068016841F40071E7
:10174000016020680069616A0870606A401C60621C
:10175000218D491E2185618D491E618562B62168F2
:101760001BE032464146204601F019FD18B1012028
:1017700007B0BDE8F08F20680069616A0870606A90
:10178000401C6062218D491E2185618D491E618545
:1017900021684A69D24352070AD409690170606A14
:1017A000401C6062208D401E2085608D401E60853B
:1017B000208D00287FF46AAF84F83D7084F83E5095
:1017C00084F83C50D4E70220D2E700000200100069
:1017D0000000FFFF040001002C0000202DE9FF4F56
:1017E00083B09A46DDE9119793460446DDF84080C0
:1017F000FFF702FE054694F83D0020287FD119230B
:10180000012240492046009501F04AFC002876D18B
:1018100094F83C00012872D0012084F83C00206834
:101820000168C90703D1016841F001010160206826
:10183000016821F400610160212084F83D0040200E
:1018400084F83E0000262664C4F82480A4F82A9078
:10185000608D20852C48E062CDE9007553465A46DC
:101860002046049901F0A2FB70B930E02A463946BF
:10187000204601F0C7FC58B1206C042804D1206830
:10188000016841F400710160012007B0BDE8F08FEC
:10189000606A216800780861606A401C6062218D7E
:1018A000491E89B22185628D521E62852268536964
:1018B000DB435B070BD469B100781061606A401CA0
:1018C0006062208D401E2085608D401E6085208DC9
:1018D0000028CBD12A463946204601F0BBFB002820
:1018E000CAD154F83D0B016841F400710160202019
:1018F00004F81E09E67766770020C6E7FFE70220B6
:10190000C3E70000020010000000FFFF10B586B022
:101910000021009101910291039100680F498842D2
:101920001AD10F4CA06940F00800A061A069694677
:1019300000F008000490C0200090122001900320C5
:1019400003900848FFF75AFCE06940F40010E0619A
:10195000E06900F40010049006B010BD005400408F
:1019600000100240000C01400248816802781144D6
:101970008160704720000020074810B5016841F0E1
:1019800010010160032000F085F8002000F006F847
:1019900000F024F8002010BD0020024070B50D4D6D
:1019A00004464FF47A712878B1FBF0F00A490968CF
:1019B000B1FBF0F000F0D6FB48B9102C07D20022A2
:1019C0002146501E00F046F800206C6070BD0120DA
:1019D00070BD0000200000202C0000200C4808B53D
:1019E000816941F001018161816901F0010100918A
:1019F000C16941F08051C161C06900F08050009020
:101A00000448416821F0E06141F00071416008BD87
:101A1000001002400000014000280DDB00F01F0212
:101A2000012191404009800000F1E020C0F88011C0
:101A3000BFF34F8FBFF36F8F7047002809DB00F0B3
:101A40001F02012191404009800000F1E020C0F810
:101A500000117047F0B40E4B1B680C46C3F3022311
:101A6000C3F10705042D00D90425191D072901D24A
:101A7000002300E0DB1E012606FA05F1491E214085
:101A800099409E40761E16403143F0BC02F09CBE49
:101A90000CED00E0064900F0070208684FF6FF036E
:101AA000184040EA0220034A1043086070470000D3
:101AB0000CED00E00000FA0510B529A401461DCC8C
:101AC00086B08DE81D002AA02A4C006804900020F2
:101AD000012923D002293AD010291DD1616822683A
:101AE000D20119D5C1F38342C9031DF8020009D5FB
:101AF000616804AAC1F34041515C1F4AB2FBF1F195
:101B0000484301E01D4948436168490204D440004C
:101B10005FF00301B0FBF1F006B010BD226AC2F322
:101B20000121012903D1920701D5C803F4E7022955
:101B300005D1626A920702D549F64040ECE70329D5
:101B4000EAD121688903E7D54FF22440E4E700F0A9
:101B500033F96168C1F38131491C4900DAE70000BB
:101B600002030405060708090A0B0C0D0E0F1010DE
:101B7000010200000010024000127A0000093D003E
:101B80002DE9F84305460078354CC00754D0E0698C
:101B90000026C00008D4E06940F08050E061E069B0
:101BA000012600F0805000902E480168C90512D42B
:101BB0000168804641F480710160FFF71DFC074613
:101BC00005E000BFFFF718FCC01B642823D8D8F835
:101BD0000000C005F6D5206A10F4407021D0A98815
:101BE00001F4407181421CD0206A1F49012220F477
:101BF00040700A6000220A602062C00711D0FFF71F
:101C0000FBFB074641F2883808E000BFFFF7F4FB12
:101C1000C11B414502D90320BDE8F883206A800733
:101C2000F4D5206A696820F44070084320621EB130
:101C3000E06920F08050E0612878800705D5606871
:101C4000A96820F44040084360602878C00605D5A4
:101C50006068E96820F48000084360600020DBE7EA
:101C60000010024000700040400442422DE9F0475D
:101C70000F46050061D0434E306800F00700B842BF
:101C800009D2306820F0070038433060306800F037
:101C90000700B84251D128683B4C810712D5400754
:101CA00003D5606840F4E06060602878000703D5E1
:101CB000606840F4605060606068A96820F0F000DF
:101CC000084360602878C00728D06868012810D0D1
:101CD0002168022810D0890700292EDA616821F0D6
:101CE000030101436160FFF787FB804641F28839B9
:101CF0000DE021688903EFE78901EDE7FFF77CFB41
:101D0000A0EB0801494502D90320BDE8F0876068CF
:101D1000696800F00C00B0EB810FEFD1306800F083
:101D20000700B8420BD9306820F007003843306014
:101D3000306800F00700B84201D00120E5E72878BC
:101D4000400705D56068E96820F4E06008436060FA
:101D50002878000706D56068296920F4605040EAB9
:101D6000C100606000F038F86168084AC1F30311EF
:101D7000515CC8400649086006480068FFF70EFE3F
:101D80000020C2E700200240001002401473000847
:101D90002C00002024000020044805490068496800
:101DA000044AC1F30221515CC84070472C00002056
:101DB000001002402473000804480549006849687F
:101DC000044AC1F3C221515CC84070472C00002076
:101DD000001002402473000812A185B00FC98DE8DD
:101DE0000F0014A0144A006804905168134801F0D1
:101DF0000C03042B10D0082B0ED1C1F38343C9036D
:101E00001DF803000AD5516804AAC1F34041515C92
:101E10000A4A5043B0FBF1F005B070470849484307
:101E2000FAE7000002030405060708090A0B0C0D77
:101E30000E0F1010010200000010024000127A0084
:101E400000093D002DE9F84F040070D02078C04D06
:101E5000C00749D06868C0F38100012807D06868CE
:101E6000C0F38100022809D16868C00306D528683C
:101E7000800339D560680028E7D035E06068B0F5A8
:101E8000803F0BD010B1B0F5A02F11D0286820F4FE
:101E900080302860286820F4802002E0286840F420
:101EA00080302860606890B1FFF7A6FA06460AE025
:101EB000286840F480202860F0E700BFFFF79CFA14
:101EC000801B642873D828688003F7D50CE0FFF7DF
:101ED00093FA064605E000BFFFF78EFA801B6428E0
:101EE000F0D828688003F7D420789A4E80074FF006
:101EF00001094FF0000839D5686810F00C0F07D0C1
:101F00006868C0F38100022809D16868C00306D45C
:101F10002868800714D52069012808D110E02069BD
:101F2000B0B1C6F80090FFF767FA074605E00AE18E
:101F3000FFF762FAC01B0228C4D828688007F7D5CB
:101F40002868616920F0F80040EAC10028600DE0CF
:101F5000C6F80080FFF750FA074604E0FFF74CFA96
:101F6000C01B022823D828688007F7D420780007F0
:101F70002CD57948A169D9B1C0F80090FFF73CFA97
:101F8000074604E0FFF738FAC01B02280FD8686A3A
:101F90008007F7D571484FF4FA510068B0FBF1F0B3
:101FA000009000BF0098411E0091FAD20EE080E040
:101FB000C0F80080FFF720FA074604E0FFF71CFA9C
:101FC000C01B022875D8686A8007F7D420784007BC
:101FD00060D5E8690027C00008D4E86940F0805067
:101FE000E861E869012700F0805000905C480168D2
:101FF000C90513D40168834641F480710160FFF77D
:10200000FBF9824606E000BFFFF7F6F9A0EB0A00F5
:1020100064284ED8DBF80000C005F5D5E06801283B
:102020000AD008B1052813D0286A20F001002862E0
:10203000286A20F0040002E0286A40F001002862CB
:10204000E06841F2883B98B1FFF7D6F982460BE091
:10205000286A40F004002862EEE700BFFFF7CCF9E1
:10206000A0EB0A0159455AD8286A8007F6D50CE03A
:10207000FFF7C2F9824605E0FFF7BEF9A0EB0A01BF
:1020800059454CD8286A8007F6D41FB1E86920F07A
:102090008050E861E06988B36968C1F38101022971
:1020A00044D00228C6F8608004D0FFF7A5F90446A2
:1020B00038E034E0FFF7A0F9074604E0FFF79CF9A9
:1020C000C01B02282BD828688001F7D4206AB0F5FD
:1020D000803F05D16868A16820F40030084368603B
:1020E000D4E908010843696821F474110843686061
:1020F000C6F86090FFF780F9044606E025E000BFCF
:10210000FFF77AF9001B022809D828688001F7D563
:102110001BE000BFFFF770F9001B022802D9032063
:10212000BDE8F88F28688001F4D40EE00128F7D0CC
:102130006868226A00F48031914204D1616A00F437
:102140007010884201D00120EAE70020E8E7000093
:102150000010024000004242800442422C00002055
:102160000070004010B5401EB0F1807F01D3012007
:1021700010BD4FF0E02460610F21601702F024FBD6
:102180000020A06107202061002010BD704770472B
:1021900010B590F83C20012A22D0012280F83C2082
:1021A000CA688C6822F4407222434C6822F4806230
:1021B00022430C6822F4006222430C6922F480520C
:1021C00022434C6922F400522243C969002322F4BD
:1021D00080420A4301684A6480F83C30002010BD08
:1021E000022010BD70B590F83C20012A26D00124B1
:1021F00080F83C40022280F83D2003685A689D68C0
:1022000022F070060A6832435A600D4B02689A4207
:1022100008D0B2F1804F05D00A4B9A4202D00A4B47
:102220009A4204D1496825F080031943916080F8EF
:102230003D40002180F83C10084670BD022070BD72
:10224000002C0140000400400008004010B50400CC
:1022500003D094F83D0010B107E0012010BD00202C
:1022600084F83C00204600F01FF8022084F83D006E
:10227000211D206802F000F8012084F8460084F84F
:102280003E0084F83F0084F8400084F8410084F860
:10229000420084F8430084F8440084F8450084F840
:1022A0003D00002010BD000008B50C4A01680C4834
:1022B000914207D1816941F400618161806900F434
:1022C000006009E0074A914207D1C16941F0040169
:1022D000C161C06900F00400009008BD002C0140FD
:1022E000001002400008004070B5044690F83C0021
:1022F000012817D0012584F83C50022084F83D00C5
:102300002068826822F0770222F47F4282600868A7
:10231000502830D00DDC20284DD005DC98B3102893
:102320003BD148E0022070BD302844D0402834D151
:1023300039E0602828D0702806D0B0F5805F2CD016
:10234000B0F5005F29D10AE0CB68D1E9012120680E
:1023500001F0D5FF2068816841F0770109E0CB6882
:10236000D1E90121206801F0CAFF2068816841F4A9
:102370008041816011E0CA684968206802F074F801
:102380005021206807E016E0CA684968206802F01A
:102390007CF86021206801F0BCFF84F83D500020EB
:1023A00084F83C0070BDCA684968206802F05CF897
:1023B00040212068EFE7226801461046EBE72DE94F
:1023C000F0410D46040003D094F83D0018B108E038
:1023D0000120BDE8F081002084F83C00204600F098
:1023E00041F8022084F83D002068816844F2070229
:1023F00091438160211D206801F03EFF22689068B2
:102400009169166A2B68AF69034340F20330814338
:1024100041EA0721A868EF6908434FF6FC41884369
:10242000E96840EA0720014328692F6A000140EA71
:102430000730084369686D6926F0220646EA0515EB
:10244000294393602268906154F8460B0162012091
:1024500004F81F09E0752076E0762077A07500204B
:10246000B7E7000010B586B00021009101910291FC
:1024700003910368234901222348B3F1804F23D0FD
:10248000224CA3421ED1CB6943F00203CB61CB693E
:1024900003F0020304938B6943F004038B618969A1
:1024A000029201F004010491C02100916946FEF7F7
:1024B000A5FE002201211D20FFF7CCFA5FF01D00D0
:1024C000FFF7BBFA06B010BDCB6943F00103CB6147
:1024D000CB6903F0010304938B6943F004038B6120
:1024E0008969029201F00401049103210091694677
:1024F000FEF784FE002201211C20FFF7ABFA1C200E
:10250000DEE7000000100240000801400004004027
:1025100070B590F83E60044690F83F5090F8423015
:1025200090F84320022021B104290ED0012E1BD1A6
:1025300014E0012E18D1012B16D184F83E0084F846
:10254000420001220021206820E0012D0CD1012A47
:102550000AD184F83F0084F8430014E0012D03D130
:10256000012B01D1012A01D0012070BD84F83E0069
:1025700084F83F0084F8420084F8430001220021DF
:10258000206801F0AFFE01220421206801F0AAFEBC
:102590002068016841F001010160002070BD70B544
:1025A00090F83E60044690F83F5090F8423090F822
:1025B0004320022021B1042914D0012E25D11EE090
:1025C000012E22D1012B20D184F83E0084F8420054
:1025D00001220021206801F085FE2068C16841F0D9
:1025E00002012FE0012D10D1012A0ED184F83F0005
:1025F00084F843000421206801F074FE1EE0012DE0
:1026000003D1012B01D1012A01D0012070BD84F832
:102610003E0084F83F0084F8420084F84300012221
:102620000021206801F05EFE01220421206801F0F3
:1026300059FE2068C16841F00201C1602068C1688C
:1026400041F00401C1602068016841F001010160AE
:10265000002070BD704770B50446006801694FF0F6
:102660000005C943890715D4C168C943890711D436
:10267000E91E0161012020772068806980072046DB
:1026800002D0FFF7E7FF04E000F0BEF8204600F0BC
:102690004DF9257720680169C943490717D4C168F6
:1026A000C943490713D46FF0040101610220207768
:1026B0002068806910F4407F204602D0FFF7CAFFEF
:1026C00004E000F0A1F8204600F030F925772068FA
:1026D0000169C943090716D4C168C943090712D45F
:1026E0006FF008010161042020772068C06980072D
:1026F000204602D0FFF7AEFF04E000F085F8204648
:1027000000F014F9257720680169C943C90617D478
:10271000C168C943C90613D46FF0100101610820D4
:1027200020772068C06910F4407F204602D0FFF770
:1027300091FF04E000F068F8204600F0F7F82577F4
:1027400020680169C943C90708D1C168C943C907DD
:1027500004D1891E0161204600F038F92068016922
:10276000C943090609D4C168C943090605D46FF0F5
:10277000800101612046FFF709FD20680169C94316
:10278000490609D4C168C943490605D46FF0400120
:102790000161204600F01BF920680169C9438906E0
:1027A0000BD4C168C943890607D46FF020010161C9
:1027B0002046BDE87040FFF7EABC70BD00B585B0AB
:1027C0000021009101910291039100680B49884218
:1027D00012D10B48816941F0040181618069694629
:1027E00000F0040004904FF410600090022001906B
:1027F00003900448FEF702FD05B000BD002C014027
:102800000010024000080140704770B5044690F87F
:102810003C000D4601280AD0012084F83C0042B15A
:10282000042A18D0082A2AD00C2A4DD139E00220D7
:1028300070BD206801F076FD2068816941F00801D3
:1028400081612068816921F00401816120688169CA
:102850002A69114311E0206801F08CFD206881692C
:1028600041F4006181612068816921F480618161A6
:10287000206881692A6941EA0221816124E0206897
:1028800001F0A4FD2068C16941F00801C161206820
:10289000C16921F00401C1612068C1692A6911433D
:1028A00011E0206801F0BEFD2068C16941F40061BB
:1028B000C1612068C16921F48061C1612068C1697A
:1028C0002A6941EA0221C161002084F83C0070BD00
:1028D00010B5040003D094F83D0010B107E00120CA
:1028E00010BD002084F83C00204600F01EF80220B5
:1028F00084F83D00211D206801F0BEFC012084F811
:10290000460084F83E0084F83F0084F8400084F8D4
:10291000410084F8420084F8430084F8440084F8BD
:10292000450084F83D00002010BD7047704700004E
:1029300010B50446022249B104290ED0082913D04B
:1029400094F84100012816D0012010BD94F83E00F3
:102950000128F9D184F83E200FE094F83F000128C7
:10296000F2D184F83F2008E094F840000128EBD130
:1029700084F8402001E084F841200122206801F021
:10298000B1FC0F492068884203D1426C42F40042F6
:1029900042642068884208D0B0F1804F05D00949D0
:1029A000884202D00849884204D1816801F00701B9
:1029B000062903D0016841F001010160002010BD2B
:1029C000002C0140000400400008004070477047A0
:1029D00070477047F8B5026804461068D1685369BB
:1029E00010F00F0F4FF0000553D003F0010601F473
:1029F000907737435FD0C20705D0CA0503D5226C54
:102A000042F001022264420705D5DA0703D0226CA6
:102A100042F002022264820705D5DA0703D0226C55
:102A200042F004022264020707D501F0200232437B
:102A300003D0226C42F008022264226C002A34D0B7
:102A4000800604D5880602D5204601F06BFD20687B
:102A50004069216CC0F38010090700D430B32046D0
:102A600001F048FD2068416949061BD5416921F004
:102A700040014161A06BA8B158494163A06BFEF7CA
:102A80003BFB002811D0A06B416B01B0BDE8F040CA
:102A9000084783060FD58B060DD52046BDE8F840C4
:102AA00001F040BD2046FFF794FFF8BD2046FFF738
:102AB00090FF2564F8BD266B2023012E52D1C60657
:102AC00050D5CE064ED5106850680090506940062B
:102AD0002AD5A16B086840680004000CEAD0A68DD6
:102AE0008642E7D9E0858869202818D0D06820F48C
:102AF0008070D0602068416921F001014161206847
:102B0000416921F04001416184F83E30256320682D
:102B1000C16821F01001C160A06BFEF7C9FAA08D59
:102B2000E18D401A81B219E0A08DE18D401A81B289
:102B3000E08D0028BED00029BCD0D06820F4907071
:102B4000D0602068426922F00102426184F83E3080
:102B500025632068C26822F01002C2602046FFF799
:102B600037FFF8BD05062BD50D0629D594F83D0095
:102B70002128F6D1A068B0F5805F01D12069B0B1FD
:102B8000206A411C2162216800784860E08C401E68
:102B90000004000CE084E4D12068C16821F08001C9
:102BA000C1602068C16841F04001C160F8BD206A81
:102BB0000088C0F308005060206A801C2062E5E7AE
:102BC0004006F3D54806F1D5D168204621F04001F2
:102BD000D16084F83D3000F052F9F8BDE5440008BA
:102BE00070B5040004D094F83D00002510B106E053
:102BF000012070BD84F83C50204600F023F82420CA
:102C000084F83D002068C16821F40051C16020466D
:102C100001F0E4FC2068016921F490410161206821
:102C2000416921F02A0141612068C16841F40051E5
:102C3000C1602564202084F83D0084F83E00002017
:102C400070BD0000F0B585B000240094019402949A
:102C500003940368424F022042490322424D460238
:102C6000BB4225D18B6943F480438B618B6903F4AC
:102C7000804304938B6943F004038B618969039259
:102C800001F0040104910102CDE9001069462846D3
:102C9000FEF7B4FACDE90064694628460294FEF7CF
:102CA000ADFA002202212520FEF7D4FE252028E0DF
:102CB0002E4FBB4229D1CB6943F40033CB61CB69A2
:102CC00003F4003304938B6943F004038B61896937
:102CD000039201F0040104910421CDE9001069463A
:102CE0002846FEF78BFA0820CDE9000469462846FD
:102CF0000294FEF783FA002202212620FEF7AAFEA4
:102D00002620FEF79AFE05B0F0BD194DAB42FAD170
:102D1000CB6943F48023CB61CB6903F48023049314
:102D20008B6943F008038B618969124D01F008013A
:102D3000CDE90321CDE9006069462846FEF75EFA39
:102D4000E814CDE90004694628460294FEF756FAD5
:102D5000002202212720FEF77DFE2720D1E7000078
:102D600000380140001002400008014000440040CB
:102D700000480040000C014090F83E30202B0ED15E
:102D800059B152B190F83C30012B08D0012380F8A2
:102D90003C300023036301F07DBC0120704702201A
:102DA0007047000000680649884207D105480122A3
:102DB0000178816001460448FFF7DEBF70470000DC
:102DC0000044004000000020F40200202DE9F843F8
:102DD000044690F83D001F4616460D4620284CD16B
:102DE000C5B1BEB194F83C00012846D0012084F85A
:102DF0003C004FF00008C4F84080212084F83D00DA
:102E0000FEF7FAFAA6848146E684A068B0F5805FF2
:102E100003D004E00120BDE8F883206928B12E46E4
:102E20005FF0000584F83C800EE00026FAE7802180
:102E3000204601F04AFCA0B9AEB116F8010B21689A
:102E40004860E08C401EE084E08C4B464FF000026E
:102E500000970028EBD14FF04001204601F035FCEF
:102E600030B10320D7E735F8020BC0F30800E6E7DE
:102E7000202084F83D000020CDE70220CBE77047FA
:102E8000FEE701684A69D24352050FD46FF48062AD
:102E90004A61002140F8301F202242738173026989
:102EA00042F0040202610173012070470020704764
:102EB0002DE9F84F0446006889460B9D0168984645
:102EC000174641F4806101602068016841F4807117
:102ED000016000954FF0011B0022594620460A9BD5
:102EE00000F0DEF84FF4007A40B120680068C005B9
:102EF00001D5C4F840A00320BDE8F88F216809F08F
:102F0000FE0008612B46284920460A9A00F0FCF88A
:102F1000F0BB20684169806900902A4620460A99E2
:102F200000F070F940B1206C04283AD120680168A3
:102F300041F40071016034E0FEB2B8F1010F09D034
:102F40002168380A08612A4620460A9900F05AF991
:102F50000028E8D1206806612A4620460A9900F038
:102F600051F90028DFD12068016841F480710160C7
:102F700000950022594620460A9B00F091F800284F
:102F8000B3D1216809F0FF0040F00100086100E0C2
:102F900007E02B46044920460A9A00F0B5F80028BD
:102FA000AAD00120A8E70000020001002DE9F843A3
:102FB000044600680D46DDE9089701689846164604
:102FC00041F4807101604B4600224FF00111204610
:102FD000009700F065F848B120680068C00502D588
:102FE0004FF4007020640320BDE8F883216805F0E9
:102FF000FE0008613B464A461549204600F084F829
:1030000088B920684169806900903A46494620465F
:1030100000F0F8F848B1206C042804D12068016859
:1030200041F4007101600120DEE7F5B2B8F1010F53
:1030300009D02168300A08613A464946204600F026
:10304000E1F80028E7D1206805610020CCE7000006
:103050000200010070B516460D4604460DE02046FC
:10306000FFF70FFF08B1012070BD681C05D0FEF707
:10307000C3F9801BA84207D835B120684069C04316
:103080004007ECD4002070BD002044F8300F202110
:103090006173A073216941F0200121612073E2E78F
:1030A0002DE9F0471E4690460D460446C1F30747FA
:1030B000DDF8209008E0701C06D0FEF79DF9A0EB2B
:1030C0000900B0420FD876B12068012F18D080696E
:1030D00025EA00000004000C14D000214145EAD08C
:1030E0000020BDE8F087002044F8300F20216173F4
:1030F000A073216941F02001216120730120F0E7D4
:103100004069E5E70121E9E72DE9F0479A46914654
:103110000E46044600254FF02008C1F3074725E07E
:1031200020684069C043400514D42068016841F418
:103130000071016021686FF480604861256384F844
:103140003D8084F83E50206C40F00400206484F8F8
:103150003C501FE0B9F1FF3F08D0FEF74DF9A0EB5E
:103160000A0149450CD8B9F1000F09D02068012F98
:1031700013D0806926EA00000004000C0BD0CFE7D2
:1031800044F8305F84F80D80A573206940F020007A
:10319000206125730120BDE8F0874069EAE72DE949
:1031A000F041002590460E460446202717E040696E
:1031B000C043C0060CD454F8301B6FF010004861B7
:1031C00044F810596777A577206A2062257717E0C1
:1031D000FEF712F9A0EB0800B04208D83EB1206813
:1031E0004169C9434906E2D40020BDE8F08144F8B2
:1031F000305F6773A573206940F02000206125735C
:103200000120F2E770B516460D4604460DE0204653
:10321000FFF737FE08B1012070BD681C05D0FEF72E
:10322000EBF8801BA84207D835B120684069C0433D
:103230000006ECD4002070BD002044F8300F20219F
:103240006173A073216941F0200121612073E2E7DD
:1032500030B50B4A046813689C4200DD0360094BDB
:1032600005681C68A54200DA04600C681068844296
:1032700000DD08600A681868824200DA086030BD24
:1032800094000020980000202DE9F74F8EB00CA983
:1032900002A8CDE900010BAB03AA09A907A802F017
:1032A00053FA18B1012011B0BDE8F08FBDF8080045
:1032B000C0057DD50398FDF708FA6FF01D0421467F
:1032C000FDF758F882460498FDF7FFF92146FDF70F
:1032D00051F881460598FDF7F8F92146FDF74AF8BF
:1032E00080460698FDF7F1F92146FDF743F80546BB
:1032F00001215046FDF73EF806464146FCF7CAFF5D
:1033000004464FF040414846FCF7C4FF07462946B3
:10331000FCF7C0FF2146FCF765FFFDF767FA01F0F7
:1033200057FD4FF0663B5A463D4BFDF7D6F8FDF78B
:1033300089FA0E99086001214046FDF71BF84146C5
:103340000090FCF7A7FF044638464946FCF7A2FF69
:103350002146FCF799FF4FF07E51FCF743FFFDF744
:1033600045FA07460C4630464946FCF793FF0646A9
:1033700029460098FCF78EFF3146FCF733FFFDF736
:1033800035FA3A46234601F06BFF5A46244BFDF7C7
:10339000A4F8FDF757FA0F99086029460846FCF78C
:1033A00079FF074641460846FCF774FF064600E0F1
:1033B00034E049460846FCF76DFF0446514608468E
:1033C000FCF768FF2146FCF70DFF3146FCF75CFF78
:1033D0003946FCF759FFFDF709FA06460C4629461F
:1033E0005046FCF757FF054641464846FCF752FF5A
:1033F0002946FCF7F7FE0121FCF7BCFFFDF7F6F9C3
:103400003246234601F02CFF5A46054BFDF765F87E
:10341000FDF718FA10990860002044E7022042E7FF
:1034200066A64C4010B503F0C1F808B10A2010BDE3
:10343000782003F039FD10F0FF0F01D0012010BDFE
:10344000782002F0E5FF10F0FF0F01D0022010BD40
:10345000642003F0EBFC10F0FF0F01D0032010BD3F
:1034600002F068F910F0FF0F01D0042010BD1248DF
:1034700002F02CFF02F00EFB10F0FF0F01D0052030
:1034800010BD40F2731002F02DF810F0FF0F01D0C4
:10349000062010BD642002F065FA10F0FF0F01D085
:1034A000072010BD00F0D6FD012003F0EFFB10F067
:1034B000FF00F6D0092010BDCC0000207CB51446DA
:1034C0000D4606466A460621432000F091F8002882
:1034D0000BD1BDF8001049BA3180BDF8021049BACD
:1034E0002980BDF8041049BA21807CBD10B51FA009
:1034F00001F032F9752000F061F80146682804D027
:1035000021A001F029F9012010BD24A001F024F927
:1035100080216B2000F0BAF800216B2000F0B6F893
:10352000032000F07EF8002000F076F8C82000F0BC
:1035300095F80021382000F0A9F800216A2000F059
:10354000A5F80021232000F0A1F88021372000F009
:103550009DF801216B2000F099F800216C2000F00B
:1035600095F8C82000F07AF8002010BD0D0A5265C9
:1035700061647920746F20696E6974204D505536EE
:103580003035300D0A000000457272206D707520D4
:1035900069643A307825780D0A0000006D70753640
:1035A00030353020494420526561643A204F4B2029
:1035B000617420307836380D0A0000001FB50021F4
:1035C0008DF80C1040F6FF73012203A98DE80E0060
:1035D00013460246D1210548FDF7D8FF0120FDF72B
:1035E000D7FD9DF80C0004B010BD00003C01002088
:1035F0000EB540F6FF730092CDE901130246012398
:10360000D1210448FDF7C2FF0120FDF7C1FD0020D4
:103610000EBD00003C010020C006010E1C2000F081
:1036200035B8C006010E1B2000F030B8BC2801D30D
:10363000012110E0622801D302210CE02A2801D3E5
:10364000032108E0142801D3042104E00A2801D34F
:10365000052100E006211A2000F018B810B5044634
:103660004FF47A70844201D9044602E0042C00D25F
:103670000424B0FBF4F0401EC1B2192000F006F89B
:103680006008BDE81040FFF7D1BF00001FB540F64D
:10369000FF738DF80C10012203A98DE80E0013466C
:1036A0000246D0210448FEF799F80120FDF770FD8D
:1036B00004B0002010BD00003C0100200EB540F613
:1036C000FF730092CDE9011302460123D021044883
:1036D000FEF784F80120FDF75BFD00200EBD000021
:1036E0003C0100203EB5002411480094019402944E
:1036F0000E498460016004730475012505614FF46F
:1037000060214460C161FDF71BFB08B1FDF78EFA33
:103710000820CDE90005694602940548FDF78CFABA
:10372000002801D0FDF782FA3EBD000000240140D0
:103730000C010020F0B585B00025314800950195B9
:1037400002950395816941F010018161816901F061
:1037500010010491816941F020018161816901F0CA
:1037600020010491816941F004018161816901F0C6
:1037700004010491816941F008018161806901229D
:1037800000F008001F4E9403049021463046FDF7D8
:103790002DFE1D4F00224FF473413846FDF726FEE3
:1037A000009401240220CDE902406946019430468C
:1037B000FDF724FD4FF470408DE83100694638462E
:1037C0000394FDF71BFD202000901048CDE9010572
:1037D00069463846FDF712FD4FF440708DE8310020
:1037E0000320039069463846FDF708FD00220321B7
:1037F0001720FEF72FF91720FEF71FF905B0F0BDCF
:103800000010024000100140000C01400000211097
:103810000D4810B50B4901600C49416000214FF47F
:1038200080428160C0E9031241618161C16101622E
:10383000FDF7E8FD002803D0BDE81040FDF7F6B91C
:1038400010BD0000005400403C010020801A06001A
:1038500010B596B000240F94109411941294139400
:103860001C2168461494FCF7A5FC202107A8FCF74E
:10387000A1FC2C482A49C0E9001441F61F41C0E9C7
:10388000024180210461C0E90541FEF7DFFC08B177
:10389000FDF7CCF94FF480500F900FA92148FEF7A7
:1038A00023FD08B1FDF7C2F91E48FFF711F808B172
:1038B000FDF7BCF9139413A91A481494FEF792FC6F
:1038C00008B1FDF7B3F96020CDE900040294039438
:1038D000049405940022694612480694FEF795FF69
:1038E00008B1FDF7A3F90C2269460E48FEF78DFFDB
:1038F00008B1FDF79BF90794089409944FF4005020
:103900000A94CDE90B4007A906480E94FEF740FC47
:1039100008B1FDF78BF90348FEF750FF16B010BD54
:10392000002C01409001002010B58CB02421684685
:10393000FCF740FC0024164809944FF080410A949B
:10394000C0E900144FF6FF71C0E902418021046113
:1039500081610320CDE900040120CDE902040A21A0
:103960000491CDE90540CDE9074169460848FEF7D5
:1039700026FD08B1FDF75AF9099409A904480A94EB
:10398000FEF730FC002801D0FDF750F90CB010BD57
:10399000D801002010B58CB024216846FCF70AFC41
:1039A00000241748099415490A94C0E900144FF6F9
:1039B000FF71C0E902418021046181610320CDE9EA
:1039C00000040120CDE902040A210491CDE905405B
:1039D000CDE9074169460A48FEF7F1FC08B1FDF759
:1039E00025F9099409A906480A94FEF7FBFB00286B
:1039F00001D0FDF71BF90CB010BD00000004004021
:103A00002002002010B586B00024174800940194CD
:103A10000294039404941349059401604721C0E97A
:103A2000011440F2E731C0E9031480218161FEF7FF
:103A30000DFC08B1FDF7FAF84FF48050009069468C
:103A40000948FEF751FC08B1FDF7F0F8049404A909
:103A500005480594FEF7C6FB002801D0FDF7E6F8FF
:103A600006B010BD00080040680200200C4810B5E8
:103A70000A4901604FF4E1314160002181600C226C
:103A8000C160C0E904128161C161FFF7A9F8002893
:103A900003D0BDE81040FDF7C9B810BD00380140A3
:103AA000B00200200C4810B50A4901604FF41651CD
:103AB0004160002181600C22C160C0E90412816173
:103AC000C161FFF78DF8002803D0BDE81040FDF775
:103AD000ADB810BD00440040F40200200C4810B501
:103AE0000A4901604FF4E1314160002181600C22FC
:103AF000C160C0E904128161C161FFF771F800285B
:103B000003D0BDE81040FDF791B810BD004800405B
:103B100038030020FEE700002DE9F0410D461B4C64
:103B2000061E4FF400514FF4805705DD0122204658
:103B3000FDF75CFC002204E000222046FDF756FC65
:103B4000012239462046FDF751FC3046FDF770F85A
:103B50000F4E316848634FF480414F00002D05DD62
:103B600001222046FDF742FC002204E0002220460C
:103B7000FDF73CFC012239462046FDF737FC28467C
:103B8000FDF756F831680864BDE8F081000C01408B
:103B90009001002010B500210448FEF7C9FEBDE8E1
:103BA00010400C210148FEF7C3BE00009001002028
:103BB000FEE770B50024002104F1B00000F0D1F957
:103BC0000021084600F0CDF90021102000F0C9F9CD
:103BD00000250121002000F0C4F96D1CEDB2802DFC
:103BE000F7D3641CE4B2082CE5D370BD2DE9FF5F68
:103BF000002084B01F4614460126814600900190A3
:103C0000024603460290DDF848B0B04620463946E9
:103C1000FCF700FE204602D287F0004100E0394662
:103C2000FCF7ACFD0546FCF75EFD22463B46FCF783
:103C300051FC0022444BFCF750FCFCF7BEFD014652
:103C40000A2005E008EB8802761C4FEA4208F6B22B
:103C500095FBF0F393FBF8F2002AF3D142F21072D5
:103C600095FBF2F292FBF0F300FB13228DF800209B
:103C70004FF47A7295FBF2F393FBF0FC00FB1C33DC
:103C80008DF80130642395FBF3FC9CFBF0F800FBFE
:103C900018CC8DF802C095FBF0FC9CFBF0F800FB03
:103CA00018CC8DF803C095FBF0FCB1FBF2F200FBE1
:103CB0001C558DF80450B2FBF0F500FB15224FF0B7
:103CC0002E0A8DF805A08DF80620B1FBF3F2B2FBA9
:103CD000F0F300FB13228DF80720B1FBF0F2B2FBEA
:103CE000F0F300FB13228DF80820B1FBF0F200FB8B
:103CF00012108DF809000DEB0B086D4688F8069040
:103D00000020295C30312954401C0A28F9DB0022AC
:103D1000134620463946FCF77DFD05D2761CF6B2E7
:103D2000C6F105012D2068548DF805A0C6F10500E7
:103D300088F806904219DDE904100C2300F0C4F85D
:103D400008B0BDE8F09F00000088C34070B50122B4
:103D50000B4D140221462846FDF748FB012256026E
:103D600031462846FDF742FB002231462846FDF742
:103D70003DFB21462846BDE870400022FDF736BBDA
:103D8000000C014070B5094C012211022046FDF7DC
:103D90002DFB6515002229462046FDF727FB294605
:103DA0002046BDE870400122FDF720BB000C014019
:103DB00070B50122064D140221462846FDF716FB78
:103DC00021462846BDE870400022FDF70FBB0000E9
:103DD000000C014010B50A460446002102F1B00073
:103DE00000F0BFF8102040EA1410002100F0B9F8EC
:103DF00004F00F00BDE81040002100F0B2B8000050
:103E00002DE9F041203A00240D468046D6B27F28A5
:103E100003D900208D1C8046EDB2102B294610D00E
:103E2000FFF7D8FF164906EB460001EB40050121DC
:103E3000285D00F096F8641CE4B2062CF7D3BDE8C8
:103E4000F081FFF7C7FF0F4F04EB06100121385C2C
:103E500000F087F8641CE4B2082CF5D36D1CE9B2BD
:103E60004046FFF7B7FF002404EB06103844012159
:103E7000007A00F076F8641CE4B2082CF4D3DEE794
:103E80002C730008547500082DE9F8431F46089D5F
:103E90001400884606462B4604D509A200F014F803
:103EA000644202E007A200F00FF806EB5500C0B232
:103EB0003B4622464146009500F01EF8BDE8F883D7
:103EC0002D0000002B0000002DE9F0411F46164692
:103ED0008846054600240AE03B4641462846FFF74F
:103EE0008FFF0835EDB2782D04D8641CE4B2325D42
:103EF000002AF1D1BDE8F0812DE9F05F0026DDF860
:103F000028901D4692468B46804634464FEA590714
:103F100023E0281B401EC1B20A2003F045F8BAFB7B
:103F2000F0F00A21B0FBF1F201FB120026B9691E84
:103F30008C4201DA38B101263030C2B207FB04806E
:103F4000C0B24B4604E007FB0480C0B24B462022BF
:103F50005946FFF755FF641CE4B2AC42D9D3BDE823
:103F6000F09FC0B209B100F048B800F02FB80000CF
:103F70002DE9F041144F04464FF48076002231467B
:103F80003846FDF733FA00254FF4007804F080003E
:103F9000802816D0002241463846FDF727FA6006F1
:103FA000040E012231463846FDF720FA0022314640
:103FB0003846FDF71BFA6D1CEDB2082DE6D3BDE8BF
:103FC000F0810122E7E70000000C014010B5044633
:103FD000FFF7BCFE7820FFF7CBFFFFF7E9FE0020DC
:103FE000FFF7C6FFFFF7E4FE2046FFF7C1FFFFF72C
:103FF000DFFEBDE81040FFF7C5BE10B50446FFF771
:10400000A5FE7820FFF7B4FFFFF7D2FE4020FFF7B0
:10401000AFFFFFF7CDFE2046FFF7AAFFFFF7C8FE70
:10402000BDE81040FFF7AEBE70470000024600201A
:104030000146022A07D0032A04D104480268506AC4
:10404000516200B270470248F8E7000020020020E9
:10405000D801002010B588B0694604A802F008FD18
:10406000072802D0012008B010BD07A802F054FABA
:104070000498FCF72AFB07990C46FCF70BF9FCF7B0
:1040800050FB04900598FCF720FB2146FCF702F951
:10409000FCF747FB05900698FCF717FB2146FCF759
:1040A000F9F8FCF73EFB069004A801F08DFC03A88C
:1040B00002F0F6F9BDF80C00009941430091019916
:1040C00041430191029941436846029101F0DEFBB0
:1040D0000020C8E710B50021AE20FFF742FF002105
:1040E0000846FFF73EFF00211020FFF73AFF0021AE
:1040F0004020FFF736FF0021B020FFF732FF0021FC
:104100008120FFF72EFF0021B020FFF72AFF0021BA
:10411000A120FFF726FF0021A420FFF722FF0021A6
:10412000A620FFF71EFF0021A820FFF71AFF00219D
:104130003F20FFF716FF0021C820FFF712FF0021E4
:10414000D320FFF70EFF00210846FFF70AFF0021EA
:10415000D520FFF706FF00219020FFF702FF002186
:10416000D920FFF7FEFE00212220FFF7FAFE0021F2
:10417000DA20FFF7F6FE00211220FFF7F2FE002101
:10418000DB20FFF7EEFE00213020FFF7EAFE0021E2
:104190008D20FFF7E6FE00211420FFF7E2FE00214C
:1041A000BDE81040AF20FFF7DCBE7047074A9042E1
:1041B00005D8074A904202DC0648814204DA0649E3
:1041C0000020086005490860704700000000F0C149
:1041D0000000F0419A9931415C000020600000200D
:1041E000FDF7C2BB30B593B028216846FBF7E2FF6C
:1041F00014210AA8FBF7DEFF002501200F9510957A
:104200001195010412958DE8230004904FF4E010FD
:10421000CDE90810022407946846FDF713FE08B1A3
:1042200072B6FEE70AA90F2081E831004FF48060E2
:10423000CDE90D0502210AA8FDF718FD08B172B6F7
:10424000FEE74FF4004011900F940FA8FDF798FC83
:10425000002801D072B6FEE713B030BD70470000F1
:104260000148FEF7F8B90000D80100200148FEF728
:10427000F2B9000020020020F0B50268164B174C7E
:10428000174D4FF08047984205D0B84203D0A04266
:1042900001D0A84203D122F070064A683243984206
:1042A00005D0B84203D0A04201D0A84203D122F4E5
:1042B0004074CA6822434C6922F0800222430260A3
:1042C0008A68C2620A688262984201D10969016300
:1042D00001214161F0BD0000002C014000040040BC
:1042E0000008004010B501F01F030121046A994045
:1042F0008C430462016A9A401143016210BD10B5FB
:10430000846842EA032224F47F440A432243826001
:1043100010BD826822F070020A4342F007018160FA
:104320007047000030B5026A22F001020262026AA0
:104330004368846924F073050C682C4322F002055D
:104340008A682A430A4DA8420BD122F00805CA68A0
:1043500023F440732A434D6922F004021D438B6904
:104360002B434360846149684163026230BD0000B1
:10437000002C014030B5026A22F010020262026A8B
:10438000436884690D6824F4E64444EA05248D6892
:1043900022F0200242EA05120B4DA8420ED1CD6850
:1043A00022F0800242EA05124D6923F4406343EA99
:1043B00085038D6922F0400243EA850343608461EE
:1043C00049688163026230BD002C014030B5026A49
:1043D00022F480720262036A4268C46923F40073A3
:1043E00024F073050C682C438D6843EA05230C4DBB
:1043F000A8420ED1CD6823F4006343EA05234D693A
:1044000022F4405242EA05128D6923F4806342EAA5
:1044100005124260C4614968C163036230BD000097
:10442000002C014030B5026A22F480520262046A14
:104430004268C3690D6823F4E64343EA05238D68A7
:1044400024F4005444EA0534064DA84204D14D69D1
:1044500022F4804242EA85124260C36149680164E5
:10446000046230BD002C014010B5036A046A24F0D8
:1044700001040462846924F0F00444EA021423F085
:104480000A020A438461026210BD10B5036A23F078
:10449000100303628369046A23F4704343EA02321F
:1044A00024F0A00343EA01118261016210BD000003
:1044B00070B506460846FCF708F9094D6969FBF72F
:1044C000E9FE04463046FCF700F9A969FBF7E2FE75
:1044D0002146FBF787FEBDE87040FCF722B90000DB
:1044E0004000002010B5406A0021C185C184FEF75C
:1044F00070FA10BD0168CA6822F49072CA6001683F
:104500004A6922F001024A61016B012904D1016864
:10451000CA6822F01002CA60202180F83E100021F3
:104520000163704708B590F83E10222901D002209F
:1045300008BD82684FF480539A4201D1016921B1CC
:10454000816A9A421BD04AB10AE00268816A5268C5
:10455000C2F308020A80816A891C08E0026972B10C
:104560000268526802F07F020A70816A491C816207
:10457000C18D491E0904090CC18503D019E00268E8
:104580005268F1E70168CA6822F02002CA60016837
:10459000CA6822F48072CA6001684A6922F0010286
:1045A0004A61202180F83E10016B012903D0FEF7FB
:1045B000F9FB002008BD002101630168CA6822F0F0
:1045C0001002CA6001680A68D20602D50A68496802
:1045D0000091818DFEF7FCF9EBE7000070B5044611
:1045E00000680169E26821F44051114301612169C9
:1045F000A0680843616908432168CA6841F20C63F6
:104600009A430243CA6020684169A26921F440715B
:10461000114341611E492068884202D1FDF7CCFB5D
:1046200001E0FDF7B9FB00EBC00101EB001260688F
:1046300064218000B2FBF0F3B3FBF1F36FF01806D6
:104640007343B2FBF0F5B2FBF0F605EB83053223C2
:1046500003EB0515B5FBF1F5B6FBF1F605F0F0053A
:1046600005EB0615B2FBF0F6B2FBF0F0B0FBF1F093
:104670006FF01802504306EB800003EB0010B0FB14
:10468000F1F0216800F00F002844886070BD000040
:104690000038014081628285C285002101642222A6
:1046A00080F83E2080F83C100168CA6842F48072AD
:1046B000CA6001684A6942F001024A610068C16843
:1046C00041F02001C160002070472DE9F04198467B
:1046D00017460E460446069D1DE0681C1BD02DB1F2
:1046E000FCF78AFEA0EB0800A84214D92068C16834
:1046F00021F4D071C1602068416921F0010141615C
:10470000202084F83D0084F83E00002084F83C001E
:104710000320BDE8F0812068006836EA000004D07C
:104720000020B842D9D00020F3E70120F9E70000CB
:104730000148FEF74FB90000B00200200148FEF723
:1047400049B90000F40200200148FEF743B9000017
:1047500038030020FEE700000FB4054B10B503A995
:10476000044A029800F0BEF810BC5DF814FB00008B
:10477000DD5D0008D80000200FB4084B10B504A977
:1047800002AA039800F0AEF8044602A9002000F047
:10479000DAFA204610BC5DF814FB0000474D000813
:1047A000490050EAC12018BF04204A0D18BF40F04C
:1047B000010040F2FF72B2EB515F08BF40F002000F
:1047C000012808BF052070470907090E002804DBEF
:1047D00000F1E02080F80014704700F00F0000F1B5
:1047E000E02080F8141D70472DE9F0414F1E00EBCA
:1047F000C7010446D1E9000115461E4637F00602FE
:104800000DD02A463346FBF768FE7F1E04EBC70334
:10481000D3E90023FBF7BAFD37F00602F1D1022FEE
:1048200025D0042F13D0062F18BFBDE8F0812A46EB
:104830003346FBF752FED4E90A23FBF7A7FD2A46CD
:104840003346FBF74AFED4E90823FBF79FFD2A46CF
:104850003346FBF742FED4E90623FBF797FD2A46D1
:104860003346FBF73AFED4E90423FBF78FFD2A46D3
:104870003346FBF732FED4E90223FBF787FD2A46D5
:104880003346FBF72AFED4E90023BDE8F041FBF7ED
:104890007DBD0122FBF702BFFBF778BD0022134666
:1048A00010461146FBF78BBE024A00201107FBF7AA
:1048B000F5BE000001FDFFFF02E008C8121F08C19D
:1048C000002AFAD170477047002001E001C1121F91
:1048D000002AFBD1704700000149086070470000C2
:1048E000DC0000202DE9FF4F8DB00F460546002665
:1048F00006E025280BD0DDE90F1290476D1C761CD1
:1049000028780028F5D111B03046BDE8F08F00249A
:10491000A246A1460122EC4900E0044315F8013FFC
:10492000203B02FA03F00842F7D128782A2810D059
:104930006FF02F022878A0F13001092914D80AEB72
:104940008A0102EB410144F0020400EB010A6D1CF4
:10495000F0E701CF5FEA000A03D544F40054CAF13E
:10496000000A44F002046D1C28782E2817D115F88F
:10497000010F44F004042A280ED06FF02F0228788B
:10498000A0F1300109290AD809EB890102EB4101A4
:1049900000EB01096D1CF2E757F8049B6D1C2878A9
:1049A0006C280FD006DC4C2817D068280DD06A2858
:1049B00014D104E0742810D07A280FD10DE044F40B
:1049C00000140AE044F4801401E044F440146978CF
:1049D000814202D104F580146D1C6D1C2A786E2A68
:1049E0001FD00CDC632A31D004DC002A8BD0582A7B
:1049F00011D1A3E0642A68D0692A0CD165E0732A3A
:104A00002ED004DC6F2A73D0702A04D19BE0752A63
:104A10006FD0782A6ED01046DDE90F129047761CD1
:104A200050E1C4F30250022806D0032809D004281C
:104A300001CF09D0066045E101CFF117C0E900615F
:104A400040E101CF06803DE106703BE117F8040B21
:104A50008DF8000000208DF80100EB46012003E0F6
:104A600057F804BB4FF0FF3061074FF0000102D44C
:104A70000DE008F10101884649450FDA8045F8DB71
:104A80001BF808100029F4D108E008F1010188465C
:104A90008142FADB1BF808100029F6D1DDE90F236B
:104AA000AAEB08008146214600F036F9304400EBBD
:104AB000080604E0DDE90F121BF8010B9047B8F17E
:104AC0000108F7D221464846F7E00A21C4F3025311
:104AD0004FF0000B0891022B04D001CFC117032B1C
:104AE00009D00AE0FF1D27F00707F7E8020108E0F8
:104AF00032E01FE020E000B2C117042B01D140B228
:104B0000C117031E71F1000307DA4FF0000CD0EB60
:104B10000C006CEB01012D2302E0230504D52B23AF
:104B20008DF82430012303E0E30701D02023F7E7C9
:104B3000984658E00A2110E010210EE010204FF0B6
:104B4000000B08900CE010214FF0000B44F004041F
:104B50004FF00809089103E008214FF0000B08917D
:104B6000C4F30253022B04D001CF0021032B06D043
:104B700006E0FF1D27F00707F7E8020103E080B217
:104B8000042B00D1C0B24FF0000823072BD5702AA8
:104B900007D0DDF820C08CF0100C5CEA0B0C05D0BF
:104BA0000EE040238DF82430012308E050EA010391
:104BB00006D030238DF824308DF825200223984626
:104BC000DDF820C08CF0080C5CEA0B0C0BD150EA2D
:104BD000010301D1630706D530238DF824304FF04F
:104BE0000108A9F10109582A04D038A20B9208AA99
:104BF0000A920BE03AA2F9E75B46089AFBF73EFE01
:104C00000B9B9B5C0A9A521E0A92137050EA010297
:104C1000F2D10A98ADEB000000F1200B600702D53D
:104C200024F4803401E04FF00109D94502DDA9EBFD
:104C30000B0000E0002000EB0B0141440890AAEBC0
:104C4000010AE00306D4DDE90F232146504600F0B7
:104C500063F806444FF0000908E009A911F80900BB
:104C6000DDE90F12904709F10109761CC145F4DB1B
:104C7000E0030CD5DDE90F232146504600F04CF847
:104C8000064404E0DDE90F1230209047761C0899B5
:104C9000481E08900029F5DC08E00A980A99007877
:104CA000491C0A91DDE90F129047761CBBF1000107
:104CB000ABF1010BF1DC21465046DDE90F2300F09A
:104CC00019F806446D1C1BE6092801003031323307
:104CD0003435363738396162636465660000000038
:104CE0003031323334353637383941424344454622
:104CF000000000002DE9F041044600251E4617463D
:104D0000880404D405E039462020B0476D1C641E99
:104D1000F9D52846BDE8F0812DE9F041044600258B
:104D20001E469046C80301D5302700E0202788049E
:104D300004D505E041463846B0476D1C641EF9D5E0
:104D40002846BDE8F0810A68531C0B60107070475C
:104D50002DE9FE4F07460E460025684601F04AF849
:104D600000246FF00F0AE8464FF0010957F82400BD
:104D700056F82410401A00D54042FBF7A6FC5146D5
:104D8000FBF7F8FA58F8241011F0FF4F0BD0FBF79F
:104D9000B3FA4FF07E51FBF777FA0A4920F0004052
:104DA000884205DC07E0084908440849884202D3E4
:104DB00009FA04F00543641C032CD7DB2846BDE840
:104DC000FE8F0000295C0F3E666666C19A99D90085
:104DD0002DE9F04D8D4F21F0004A86B005460C4676
:104DE000BA452ADBAAEB070028430AD08848824547
:104DF00001DC1AD1CDB106B02846BDE8F04DFFF771
:104E000048BD844A844B2846FBF767FB07460E469D
:104E1000824A834B28462146FBF75FFB06B03A46A1
:104E20003346BDE8F04DFBF7B1BA0120FFF754FD62
:104E300006B0BDE8F04DFFF731BD7A48824542DA51
:104E4000BAF1795F0BDA2846FFF7AAFC042808BFFD
:104E5000FFF72AFD284606B02146BDE8F08D2A4618
:104E60000B461046FBF739FB834602466E480E465A
:104E70000B4606217844FFF7B7FC5A463346FBF74A
:104E80002CFB804669488A465A46334604217844BA
:104E9000FFF7AAFC5A463346FBF71FFB00223B46AE
:104EA000FBF774FA02460B4640465146FBF787FB78
:104EB0002A462346FBF711FB06B02A462346BDE8E7
:104EC000F04DFBF763BA284624F0004100223D462E
:104ED0003B46FBF7FFFA4FF0FF32FBF7DFFB0646DE
:104EE000024653480F460B4606217844FFF77CFCE8
:104EF00032463B46FBF7F1FACDE900014D48324618
:104F00003B4604217844FFF76FFC32463B46FBF7F3
:104F1000E4FA00222B46FBF739FA83460291304629
:104F2000394602F067F9804643480D46504517DC84
:104F3000DDE900015A46029BFBF741FB42462B4646
:104F4000FBF7CBFA42462B46FBF720FA0122FBF790
:104F5000A5FB304A304BFBF7BAFA304A304B4CE0F5
:104F60004FF0000A52460B464046FBF70FFACDE9D8
:104F7000031052462B4610461946FBF7AEFA32464E
:104F80003B46FBF7A7FADDE90332FBF718FB0646C1
:104F90000F46DDE900015A46029BFBF710FB8346F2
:104FA0000091012230463946FBF778FB194A1A4B2B
:104FB000FBF790FA06460F46012240462946FBF7CA
:104FC0006DFB5A46009BFBF788FA32463B46FBF7DF
:104FD0007EFA06460F46012250462946FBF75EFB45
:104FE0000E4DDFF858802A464346FBF773FA3246E7
:104FF0003B46FBF76FFA2A464346FBF76BFA002C59
:10500000D8BF81F0004106B0BDE8F08D0000F03F50
:105010000000F07F075C143326A6913C182D445401
:10502000FB21F93F0000E03F183900002E39000055
:10503000A2380000B83800003333EF3FFB21E93FCE
:105040002DE9F84F04460D4621F0004000917349C8
:10505000814211DC7249884201DC06D12CB1204624
:105060002946BDE8F84FFFF714BC6E48002DCCBFB1
:105070006D496E49BDE8F88F6D49814211DD6D497A
:105080008142D8BF4FF0FF366DDD20462946FFF73D
:1050900087FB042808BFFFF707FC20462946BDE828
:1050A000F88F6549654F25F00045814233DD64493D
:1050B000814219DD002632464FF0804320462946C2
:1050C000FBF764F980468A46012220462946FBF711
:1050D000E5FA00223B46FBF7FAF942465346FBF756
:1050E0006EFA04460D463EE001260022BA463B46D3
:1050F00020462946FBF74AF980460F4600225346D0
:1051000020462946FBF7E3F942463B46FBF757FAB0
:1051100004460D4627E04B4981421BDDDFF828A1FC
:1051200002260022534620462946FBF7D6F90022E4
:105130003B46FBF72BF980460F460022534620469C
:105140002946FBF7C4F942463B46FBF738FA0446CA
:105150000D4608E0032622462B4600203B49FBF77C
:105160002EFA04460D4622462B4610461946FBF7FA
:10517000B4F98B46824602460B46FBF7AEF907466A
:105180000246334888460B4606217844FFF72CFB3D
:1051900052465B46FBF7A1F982462E488B463A46BB
:1051A000434605217844FFF71FFB3A464346FBF789
:1051B00094F902460B46002E504659460CDAFBF78E
:1051C000E5F822462B46FBF788F901B022462B462C
:1051D000BDE8F04FFBF77EB9FBF7D8F822462B4627
:1051E000FBF77BF91C4A7A4402EBC603D3E90023A0
:1051F000FBF76DF922462B46FBF769F9174A7A440B
:1052000002EBC603D3E90023FBF764F9009A002AF6
:10521000B8BF81F00041BDE8F88F000000001044E5
:105220000000F07F182D4454FB21F93FFB21F9BF0A
:105230000000DC3F0000203E0000F33F0000F03F94
:105240000000E63F008003400000F83F0000F0BF90
:10525000BA3600007836000016360000DE35000051
:105260002DE9F04D9446CCF1000423F000464CEAC1
:105270000404524F46EAD4749A46884621F000420C
:10528000BC4206D8454240EA050442EAD474BC4216
:1052900004D9BDE8F04D6246FFF7FEBAAAF14055C9
:1052A000A5F17F6555EA0C040BD0022404EAAA7428
:1052B000434DDFF810E144EAD87452EA000B04D001
:1052C0000CE0BDE8F04DFFF7BBBE002C14BF012C75
:1052D000BDE8F08D022C30D0032C32D056EA0C0BF6
:1052E0000AD0BE4220D1BA4209D126F0804622F02F
:1052F00080423346114617E000291ADB25E0DFF82B
:10530000C8B0FB44002C04BFDBE90001BDE8F08D10
:10531000012C02BFDBE9000181F00041BDE8F08D06
:10532000022C0AD0032C0CD0BA4212D1B8F1000FD3
:105330000BDA23482549BDE8F08D28462449BDE80D
:10534000F08D28467146BDE8F08D1D482149BDE825
:10535000F08D921B12153C2AC4BF19481D490EDC62
:10536000BAF1000FBEBF12F13C0F0020014606DB70
:105370006246FBF724F921F00041FFF761FE002CA3
:1053800008BFBDE8F08D012C04BF81F00041BDE8ED
:10539000F08D114A114B022C07D0FBF798F82A46E2
:1053A000BDE8F04D0A4BFBF792B8FBF790F82A46A0
:1053B000BDE8F04D064BFBF78DB800000000F07F14
:1053C000182D4454FB2109C072350000FB21F9BFA0
:1053D000FB210940FB21F93F075C143326A6A13CC1
:1053E00070B51446FAF750FF084E05462146B068DE
:1053F000FAF750FF044629467068FAF74BFF21463A
:10540000FAF7F0FEBDE87040FBF78BB940000020D2
:1054100070B50220FEF70AFE1E4C404220640320B5
:10542000FEF704FE606401F05FFE1B48B0F9000067
:10543000FBF74BF9194D0246616A2868FFF7D0FF68
:10544000A064A06AFBF76DF90246D4E9100101F0EF
:10545000F7FEE064E06AFBF764F901461048B0F932
:105460000000FFF725F82065D4E9121211440A184C
:10547000081AC4E9072004F12001081FFDF7E8FE1F
:1054800008492868FEF792FED4E90701BDE870409C
:10549000FEF742BB40000020040000200C0000206A
:1054A000060000200000404108B560B120208DF8C2
:1054B000000028208DF8010030208DF802003820EF
:1054C0008DF8030004E0A32204216846FAF76BFE7E
:1054D0006A46042140F69E2001F03EFD01F032FABA
:1054E00008BD00003EB5044602208DF80000CA2029
:1054F0008DF80100E3208DF8020009208DF80300EB
:105500006A460421682001F027FDA3208DF80000E1
:10551000610609D5C0218DF80110C8218DF802104F
:10552000C2218DF8031005E08DF801008DF802000E
:105530008DF8030014F4C07F09D0C4218DF8041045
:10554000CC218DF80510C6218DF8061005E08DF8E8
:1055500004008DF805008DF806008DF808008DF820
:1055600007008DF809006A460A2140F6A72001F0DD
:10557000F3FCA0074FF0D80503D020208DF80000E1
:1055800001E08DF800506A46012140F6B62001F096
:10559000E3FCA00601D5012000E0002000F08EF819
:1055A00014F4C07F1ED0E0050AD5B2208DF80000AB
:1055B0008B208DF80100B6208DF802009B2009E0B9
:1055C000B0208DF8000080208DF80100B4208DF807
:1055D000020090208DF803006A46042140F6A220C4
:1055E00001F0BAFCE1074FF40B6022D0F8218DF8EE
:1055F00000106A46012101F0AFFCFA21072000F0FB
:1056000039FB072000F004FB012000F021FB64209F
:1056100000F0C4FB4FF4FA7000F0D0FBC82125481D
:1056200000F0BEFA282000F0D3FA0A2000F0E0FAD9
:1056300005E08DF800506A46012101F08DFCA007BD
:1056400003D5D9208DF8000001E08DF800506A469E
:10565000012140F23D7001F07FFC600701D501207F
:1056600000E0002000F048F8E00601D5012000E04D
:105670000020FFF719FF104D44F00800688101F089
:1056800061F90020A873600601D50620A87314F400
:10569000C07F02D0A87B801DA87314F0140F02D025
:1056A000A87B1030A873A00702D0A87B001DA873A8
:1056B00000203EBD09E3CA027C0300200EB54FF472
:1056C000976310B106A107C901E008A207CA8DE8D7
:1056D00007006A460921184601F03EFC0EBD000095
:1056E000B8AAB38DB4980D355D000000B8AAAAAA77
:1056F000B088C3C5C700000008B560B1C0208DF8F0
:105700000000C2208DF80100C4208DF80200C620E0
:105710008DF8030004E08B2204216846FAF743FD6C
:105720006A46042140F6982001F016FC01F00AF9BF
:1057300008BD0000C8234FF48062024940F6F630ED
:1057400000F0F0BF947B00082DE9FF4F89B01746A9
:10575000DDE9165200244C4E884681462C80A24634
:10576000B07B694601F082F84FF0FF3B18B1584614
:105770000DB0BDE8F08F708910F0140F3CD0009987
:1057800009BA21F0FF039DF803100B433B60019918
:105790001B1409BA21F0FF029DF807105B430A436E
:1057A0007A6002999DF80B4009BA21F0FF0121436C
:1057B000B960039C091424BA24F0FF0C9DF80F4033
:1057C00012144CEA040CC7F80CC04FEA2C474943AA
:1057D00002FB023207FB071111441024A1F1706192
:1057E000B1F1007F04D901F0ADF8A5F800A0BEE743
:1057F000298841F4807129804206694611D50A1929
:10580000A41D13885BBAA8F8003053885BBAA8F8C7
:105810000230928852BAA8F804202A8842F008027E
:105820002A8010F4C07F11D00A19A41D13885BBA16
:10583000A9F8003053885BBAA9F80230928852BAAE
:10584000A9F804202A8842F070022A80800716D026
:105850000C44E07800F0C00500F03F016078C0071C
:1058600006D0C80801F007013268491C02B1904710
:105870006078000703D5716809B1A80988470C98BA
:1058800000F0C4FD002073E77C0300202DE9FF41F8
:10589000044603A800F004FEBDF80C00410CC3034D
:1058A0002F48028902F00300550754F8200000D564
:1058B0004042C2F3C105960654F8255000D56D420A
:1058C000C2F38116D20554F8264000D56442A0FBED
:1058D0000367C21702FB037200FB0120820042EA49
:1058E0009670A5FB0367EA1702FB037205FB012212
:1058F000950045EA9672A4FB0367E51705FB037361
:1059000004FB01318B0043EA9671030E8DF80030E1
:10591000030C8DF80130030A8DF802308DF8030076
:10592000100E8DF80400100C8DF80500100A8DF88B
:105930000600080E8DF80800080C8DF80900080A0A
:105940008DF80A008DF807208DF80B106A460C219F
:105950004FF4257001F000FB04B0BDE8F0810000B9
:105960007C03002030B5044613A285B007CA8DE839
:1059700007004FF0FF35C82C16D8C820B0FBF4F153
:10598000491E080A8DF80C008DF80D1003AA02219B
:1059900040F2162001F0E0FA30B96A460C2140F6D8
:1059A000C12001F0D9FA10B1284605B030BD054834
:1059B00084810020F9E70000FEF2ABC4AAF1DFDF2A
:1059C000BBAFDFDF7C030020F8B53049098901F067
:1059D000030250F822404A0700D56442C1F3C102D5
:1059E0008B0650F8222000D55242C1F3811350F8A3
:1059F0002330C80500D55B42254984FB0140850062
:105A000045EA947082FB0142A40F44EA820483FBBE
:105A10000121950F45EA8105010E8DF80010010C5A
:105A20008DF80110010A8DF802108DF803006A4606
:105A300004214FF4747001F08FFA4FF0FF3688B9EB
:105A4000200E8DF80000200C8DF80100200A8DF842
:105A500002008DF803406A4604214FF4757001F08E
:105A60007BFA08B13046F8BD280E8DF80000280CEE
:105A70008DF80100280A8DF802008DF803506A465F
:105A800004214FF4767001F067FAF8BD7C03002022
:105A900009E3CA022DE9FF4104463CA004F00303D8
:105AA000006802903AA0006803903AA006683AA005
:105AB000056802A8C15C8DF80010C4F3C101425C06
:105AC0008DF80120C4F38112805C8DF8020003A8D8
:105AD000C35C8DF80430415C8DF80510805C8DF856
