:020000040800F2
:100000006005002001010008CF2A000839250008FA
:10001000CD2A0008710C00084D32000800000000D5
:10002000000000000000000000000000752F000824
:10003000730C0008000000009D2E0008772F0008B8
:100040001B0100081B0100081B0100081B01000820
:100050001B0100081B0100081B0100081B01000810
:100060001B0100081B0100081B0100081B01000800
:100070001B0100081B0100081B0100081B010008F0
:100080001B0100081B0100081B0100081B010008E0
:100090001B0100081B0100081B0100081B010008D0
:1000A0001B0100081B0100081B0100081B010008C0
:1000B0001B0100081B0100081B0100081B010008B0
:1000C0001B0100081B0100081B0100081B010008A0
:1000D0001B0100081B0100081B0100084132000839
:1000E0001B0100081B0100081B010008DFF80CD0F1
:1000F00000F0F0FC004800470152000860050020B5
:100100000648804706480047FEE7FEE7FEE7FEE7B1
:10011000FEE7FEE7FEE7FEE7FEE7FEE7F32F000857
:10012000ED0000082DE9F0410024061B254671F181
:10013000000605DA01240027D0EB070067EB010178
:10014000161E73F1000605DA0027D2EB070201251F
:1001500067EB030300F0A8FB86460E4617469C4655
:10016000AC4204D00025D0EB050E65EB010624B1AE
:100170000020D2EB000760EB030C704631463A4694
:100180006346BDE8F081202A04DB203A21FA02F020
:100190000021704721FA02F3D040C2F120029140C1
:1001A000084319467047D2B201E000F8012B491EFE
:1001B000FBD270470022F6E710B513460A46044604
:1001C0001946FFF7F0FF204610BD30B50446002069
:1001D000034600E05B1C934203D2E05CCD5C401B15
:1001E000F8D030BDF0B480EA0102D40F4200B2EB87
:1001F000410F02D20246084611464A0042D0C30DC2
:10020000DDB2C1F3C752AD1A202D35DAC1F31601A4
:1002100041F4000204B15242C5F1200602FA06F18F
:100220002A411044B3EBD05F23D0C4B1012DA0EB21
:10023000C35009DCF0BC4FF0004202EAC352DBB20B
:1002400000F5000000F08BBB400000F1807000EB77
:10025000C350A0F1807040EAD170490009E049081C
:1002600041EAC071A0EBC35000F50000400800EB6C
:10027000C350F0BC00F06ABB6142012202EB4101B5
:10028000001BF6E7F0BC704781F00041AAE780F060
:100290000040A7E780EA010210B502F000434000E9
:1002A00022D04A001FD0010E01EB1261C0F35600AC
:1002B000C2F3560240F4000042F40002A0FB022008
:1002C00000047F39140400D0401C50EA124001D4CD
:1002D0004000491EC2B20C0604EBD010401C40087E
:1002E000802A02D003E0002010BD20F00100002988
:1002F00000DA0020184310BD30B480EA010202F099
:10030000004530F0004221F0004013D090B1C30D01
:10031000D40DC2F31601C0F31600E41A41F4000133
:1003200040F400027D34914201D3641C00E0490096
:10033000002C02DA30BC002070474FF4000000238C
:10034000914201D3891A034340084FEA4101F7D192
:1003500051B1914202D14FF0004105E002D24FF07D
:10036000010101E06FF0010103EBC450284430BCEF
:1003700000F0ECBA420005D0C0F3C752524291429D
:1003800001DC0020704700EBC15070472DE9FE4FA3
:10039000804681EA0300C00F0C46009021F0004126
:1003A00023F00045B8EB0200A94105D240462146A2
:1003B00090461C460B46024623F00040104347D0AF
:1003C000270DC7F30A00C3F30A510290401A0190A7
:1003D00040286BDAC3F3130040F4801B0098924668
:1003E00020B10023D2EB030A63EB0B0B01985946B3
:1003F000C0F14002504600F088FA06460D465046CD
:100400005946019A00F090FA10EB0800614100246F
:1004100087EA115284EAE7731A4340D0009A62B324
:10042000019A012A4FEA075215DC001B61EB020119
:100430004FF0004202EA0752CDE90042001C41F5AC
:10044000801132462B4600F0C7FA03B0BDE8F08FAA
:1004500040462146F9E7001B61EB0201001C41F513
:10046000801300185B412018A2F5001747EB030129
:1004700040EAD570B6196D4111E06D084FEA3606B5
:1004800045EAC0754FEA0752001B61EB0201001CF0
:1004900041F5801149084FEA3000001951413246B8
:1004A0002B4603B0BDE8F04F00F087BA0098012258
:1004B00040000023D0EB020263EBE073009821467A
:1004C0004FEAE074B8EB000061EB0401E9E783F068
:1004D00000435BE781F0004158E72DE9FE4F81EAD8
:1004E000030404F0004421F0004100944FF0000B9D
:1004F00023F0004350EA01045ED052EA03045BD0CB
:10050000C3F30A54C1F30A552C44A4F2F334019402
:10051000A0FB0254C1F3130141F48011C3F3130390
:1005200043F4801301FB024400FB034E840A970A44
:1005300044EA815447EA8357A4FB076802958D0A71
:1005400005FB07854FEA932C04FB0C542705029DFD
:100550004FEA065847EA1637B5EB08056EEB070C6D
:10056000870E920E47EA811742EA8312A7FB020127
:10057000B6EB0B0164EB00042B0D43EA0C335E1861
:1005800044EB1C50DA465146E7FB0201C5F3130465
:100590004FEA0B3343EA14534FEA0432019C43EA17
:1005A0000603A4F10C040294009CCDE900B400F011
:1005B00013FA03B0BDE8F08F00200146F9E72DE9FA
:1005C000F04D81EA030404F0004B21F0004514468D
:1005D0004FF0000A23F0004150EA050220D054EA0F
:1005E00001021DD0C5F30A570246C5F31303C1F338
:1005F0001300C1F30A5640F4801543F48013A7EBAF
:100600000608101BD64608F2FD3873EB050002D32E
:1006100008F1010801E092185B41B8F1000F03DA1C
:1006200000200146BDE8F08D00204FF48011064601
:1006300084460EE0171B73EB050705D3121B63EB13
:10064000050306434CEA010C49084FEA30009218B2
:100650005B4150EA0107EDD152EA030012D082EA71
:10066000040083EA0501084305D0101BAB4106D204
:100670000122002306E000224FF0004302E06FF069
:10068000010253101AEB06004CEB085110EB0A0064
:1006900041EB0B01BDE8F04D00F08FB970B521F0D2
:1006A000004303430CD0C1F30A550024D5EB0405E5
:1006B00064EB0403D617AD1AB34102DB00200146F8
:1006C00070BD201841EB025170BDC10F80EAE0708F
:1006D0000844CA079623002100F041B9962300225E
:1006E000114600F03CB90EB5C10F80EAE070084435
:1006F000CA07002140F233438DE80E000A460B463C
:1007000000F06AF903B000BD0EB540F2334102912A
:100710000021CDE900110A460B4600F05DF903B057
:1007200000BD00F0004220F00040C10DC0F31600F3
:1007300040F400007F2901DA00207047962903DC8D
:10074000C1F19601C84001E096398840002AF4D0F2
:100750004042704720F00040C10DC0F3160040F445
:1007600000007F2901DA00207047962903DCC1F1DF
:100770009601C840704796398840704770B5C1F3FC
:100780000A5201F000450024C1F3130140F2FF3387
:1007900041F480119A4201DA002070BD40F23343E7
:1007A0009A42A2F2334203DC5242FFF7ECFC00E033
:1007B00090402C43F1D0404270BDC1F30A5210B5B5
:1007C000C1F3130140F2FF3341F480119A4201DA80
:1007D000002010BD40F233439A42A2F2334203DCC0
:1007E0005242FFF7D0FC10BD904010BD00F0004217
:1007F00030F000400AD0C10D01F56071C0F3160061
:1008000042EA0151C20840071143704700200146E7
:100810007047000030B5041E71F1000404DB4FF096
:100820000044404264EB0101141E73F1000405DB37
:100830001C464FF00043524263EB04038B4208BF57
:10084000824230BD01F0004330B421F0004150EA53
:10085000010206D00A0DA2F56072C1F31301002A4D
:1008600002DC30BC00207047440F44EAC104C100E0
:10087000E01830BC00EBC25000F068B830B50B4651
:10088000014600202022012409E021FA02F59D42C0
:1008900005D303FA02F5491B04FA02F52844151E94
:1008A000A2F10102F1DC30BD2DE9F05F0546002028
:1008B00092469B4688460646814640241BE02846D1
:1008C000414647462246FFF75EFC53465A46C01A49
:1008D000914110D311461846224600F016F82D1A01
:1008E00067EB01084F4622460120002100F00DF879
:1008F00017EB00094E41201EA4F10104DFDC48463D
:1009000031462A464346BDE8F09F202A04DB203AC0
:1009100000FA02F1002070479140C2F1200320FA52
:1009200003F3194390407047202A06DBCB17203A87
:1009300041FA02F043EAE07306E041FA02F3D040E4
:10094000C2F1200291400843194670470029A8BF10
:100950007047401C490008BF20F00100704710B4E8
:10096000B0FA80FC00FA0CF050EA010404BF10BC9D
:10097000704749B1CCF1200421FA04F411FA0CF1CA
:1009800018BF012121430843A3EB0C01CB1D4FEA03
:1009900000614FEA102042BF002010BC704700EBFE
:1009A000C35010440029A4BF10BC7047401C49002C
:1009B00008BF20F0010010BC704710B5141E73F181
:1009C000000408DA401C41F1000192185B411A430F
:1009D00001D120F0010010BD2DE9F04D92469B465B
:1009E00011B1B1FA81F202E0B0FA80F22032904601
:1009F000FFF78BFF04460F4640EA0A0041EA0B016D
:100A000053465A46084313D0114653EA010019D001
:100A1000C8F140025046FFF7B6FB05460E46504669
:100A200059464246FFF771FF084305D0012004E014
:100A300020463946BDE8F08D0020054346EAE076C1
:100A40002C4337430A986305E40AA0EB0800002210
:100A5000FD0A44EA47540A3002D500200146E9E77E
:100A6000010510196941DDE9084500196941BDE832
:100A7000F04DA2E7C1F30A52C1F3130140F2FF3374
:100A800041F480119A4202DA00200146704740F298
:100A900033439A42A2F2334202DC5242FFF773BB65
:100AA000FFF733BF30B5041E71F1000404DB4FF0D3
:100AB0000044404264EB0101141E73F1000405DBA5
:100AC0001C464FF00043524263EB0403994208BFB7
:100AD000904230BD064C074D06E0E06840F001034F
:100AE00094E8070098471034AC42F6D3FFF702FBB6
:100AF00068790008887900082DE9F04D00231A462E
:100B00001B1A8A4103DB00200146BDE8F08DC1F3CA
:100B10000A52C1F3130141F480154FF0000BD107C5
:100B200002D100186D41521E0027044640F2FF1109
:100B3000384601EB620A3E468046024600204FF4EA
:100B40008011FFF720FBC2197141BB1846EB010071
:100B5000B4EB030C75EB000C04D3E41A65EB000551
:100B600017460E46241908F101006D4180463428CD
:100B7000E3DDF91946EB0600091BA84103D24FF04B
:100B8000FF32134601E0002213461BEB070046EB41
:100B90000A51BDE8F04DFFF710BF000070B50446E4
:100BA00000688168C943C90717D1816821F0010134
:100BB000816000F01DFC05460AE000BF00F018FC53
:100BC000401B022804D920688068C043C00706D0B3
:100BD00020688068C043C007F0D0002070BDA06AC4
:100BE00040F01000A062E06A40F00100E0620120E5
:100BF00070BD0000F8B500260446009600688168C4
:100C0000C943C9072DD0816841F0010181601648B0
:100C100016490068B0FBF1F000E0401E009000288B
:100C2000FBD100F0E5FB054616E000BF00F0E0FB5D
:100C3000401B022810D920688068C043C0070BD031
:100C4000A06A40F01000A062E06A40F00100E0629B
:100C500084F824600120F8BD20688068C043C00784
:100C6000E4D10020F8BD00002400002040420F0025
:100C7000FEE7704772B6FEE7F8B50024009490F8DE
:100C800024202546012A12D0012280F824204A6817
:100C90001F23072A0DD20668776B521E02EB8202D1
:100CA00093409F430B6893401F43776319E00220F2
:100CB000F8BD06680D2A0AD2376BD21F02EB8202FA
:100CC00093409F430B6893401F43376309E0F76AE3
:100CD0000D3A02EB820293409F430B6893401F43FF
:100CE000F7620A68072306680A2A0AD3F7680A3AED
:100CF00002EB420293409F438B6893401F43F7608F
:100D000008E0376902EB420293409F438B689340AF
:100D10001F4337610A68102A01D0112A20D1124BD3
:100D200002689A4217D193681B0219D4936843F45E
:100D3000000393600968102912D10C490C4A096814
:100D4000B1FBF2F101EB8101490000E0491E009185
:100D50000029FBD104E0816A41F020018162012475
:100D600080F824502046F8BD0024014024000020D3
:100D700040420F00806A70470068C06C70470000F6
:100D80002DE9F0414FF0000704003D467ED0A06AF7
:100D9000002628B9E66284F82460204600F07EF838
:100DA0002046FFF7FBFEA16AC90600D420B1A06A65
:100DB00040F01000A06269E0A16A21F4885141F07E
:100DC0000201A1626268E169237B0A4347EA4301A9
:100DD0000A43A1684FF48077B94209D0012907D0AE
:100DE0005FF0000194F814C0BCF1010F02D00AE0DA
:100DF0003946F7E7F3B1A36A43F02003A362E36A3D
:100E000043F00103E3622368D3F804C02CF4694C77
:100E10004CEA010CC3F804C021688B68DFF870C08D
:100E200003EA0C0313438B60A168B9420BD001297C
:100E300009D00CE0DFF85CC0A3690CEB43330B4333
:100E400043F40061DFE7218A0D05A5F580152168CF
:100E5000CB6A23F470032B43CB62216889680E4B65
:100E60001940914208D1E662A16A21F0020141F0E5
:100E70000101A162BDE8F081A06A20F0020040F00B
:100E80001000A062E06A40F00100E0620120F1E79A
:100E9000FDF7E1FF00E0FFFFFE0E1FFF00B585B08C
:100EA0000021009101910291039100680E4988424E
:100EB00018D10E48816941F400718161816901F4A2
:100EC00000710491816941F008018161806969467E
:100ED00000F00800049001200090032001900448D5
:100EE00000F088F905B000BD002401400010024068
:100EF000000C01402DE9F84300270D4604460097F9
:100F000000F076FA804620688168C90508D5A06A95
:100F100040F02000A06284F824700120BDE8F8832E
:100F20004168C90503D4C06A10F4700F2AD00220AA
:100F300000F0AEFD3B490968B1FBF0F6206803699B
:100F400039490B424FEA61014FEAA1121FD1C36830
:100F50004FEA611C13EA0C0F19D103690B4225D12A
:100F6000C068104222D1142023E0681C0AD02DB1A1
:100F700000F03EFAA0EB0800A84203D92068006800
:100F8000800725D5206800688007EED52DE003692D
:100F90000B4202D1C168114206D0026923490A42BC
:100FA00006D1C068084203D1542002E0292000E0A5
:100FB000FC204643009816E0681C11D02DB100F0CB
:100FC00017FAA0EB0800A8420AD90098B04207D24D
:100FD000A06A40F00400A06284F8247003209DE71A
:100FE0000098401C0090B042E6D321686FF01200D8
:100FF0000860A06A40F40070A06220688068C0F3B6
:10100000424007280CD1207B50B9A06A20F48070A0
:10101000A062A06AC00403D4A06A40F00100A062EC
:1010200000207BE7240000202449922449922400D8
:1010300070B5044690F8240001280DD0012084F8F2
:1010400024002046FFF7D6FD02004FF0000005D037
:1010500084F82400104670BD022070BDA16A40F2E1
:101060000123994341F48071A1621F4D23681F49F8
:10107000AB4218D10E6816F4702F14D0A66A46F44D
:101080008016A6620E68760505D5A66A26F4005677
:1010900046F48056A662A66AF6040AD5E66A26F0E9
:1010A0000606E66206E0A66A26F48016A6625E6878
:1010B000E9E7E06284F824006FF00200186020681D
:1010C0008368C3F34243072B05D1A84208D10968BE
:1010D00011F4702F04D0816841F480118160B9E768
:1010E000816841F4A001F9E700280140042401408F
:1010F00010B590F821100022022905D00421816347
:1011000080F82020012010BD01680B6823F00E0339
:101110000B6001680B6823F001030B6090F840300E
:10112000C46B012101FA03F3636080F8211080F899
:101130002020104610BD000010B590F821100024AA
:10114000022903D00421816301243DE001680A687B
:1011500022F00E020A6001680A6822F001020A60A9
:101160001A4A0168914201D1012121E0174A143243
:10117000914201D110211BE0144A2832914201D141
:10118000891515E0114A3C32914201D189140FE0D2
:101190000E4A5032914202D14FF4803108E00B4A9E
:1011A0006432914202D14FF4801101E04FF080711E
:1011B000064A083A5160012180F82110002180F888
:1011C0002010416B01B18847204610BD0800024045
:1011D00070B5044600F00CF90546601C02D00448C6
:1011E0000078044400F004F9401BA042FAD370BD1B
:1011F000180000202DE9F84FDFF8B891002409F11C
:10120000040A0AF1040B23460F270BF1040EC9E070
:101210000125A5402A40AA427DD1674ED1F804C0DD
:10122000ACEB0608B44532D014DCBCF1030F3AD065
:1012300009DCBCF1000F2AD0BCF1010F1CD0BCF1BD
:10124000020F31D11DE0BCF1110F17D0BCF1120F0C
:101250002AD119E0B8F5881F19D006DCB8F5803F0F
:1012600015D0B8F5801F1FD111E0B8F5001F0ED0C2
:10127000B8F5041F18D10AE0CB6815E0CB681B1D38
:1012800012E0CB6808330FE0CB680C330CE08B68BE
:101290002BB1012B4FF0080303D0456104E0042378
:1012A00002E0056100E00023FF2A01D8064601E0C4
:1012B00000F104064FEA840501D9A5F12005D6F80E
:1012C000008007FA05FC28EA0C0803FA05F548EA4D
:1012D0000508C6F800804D68ED0062D5374DAE694F
:1012E00046F00106AE61AD6924F0030605F0010584
:1012F0000095334D06EB050CDCF80850A607360FB9
:1013000007FA06F825EA0805DFF8B880404503D15A
:101310004FF0000817E044E0DFF8AC80404502D110
:101320004FF001080FE0DFF8A480404502D14FF0F4
:10133000020808E0DFF89880404502D14FF003082A
:1013400001E04FF0040808FA06F848EA0508CCF86E
:1013500008804D68D9F80060ED034D4601D516436D
:1013600000E096432E604D68DAF80060AD03554604
:1013700001D5164300E096432E604D68DBF800600F
:10138000ED025D4601D5164300E096432E604D68A0
:10139000DEF80060AD02754601D5164300E09643C5
:1013A0002E60641C0D682A46E5407FF431AFBDE82D
:1013B000F88F0000000401400000111000100240EE
:1013C0000000014000080140000C014000100140F5
:1013D00000140140C26821EA02030A4043EA0241C4
:1013E000016170470AB1016170470904FBE7000021
:1013F00001488068704700001800002070B50400A4
:1014000025D094F83D00002520B984F83C502046B2
:1014100000F078FA242084F83D002068016821F06B
:10142000010101602068016841F400410160206809
:10143000016821F40041016000F09AFC4D4A6168A6
:10144000914201D84C4900E04C49884201D2012028
:1014500070BD4B492368B0FBF1F15E6826F03F0692
:101460000E435E606368934206D94FF49673594306
:101470004FF47A73B1FBF3F12368491C1E6A26F01E
:101480003F06314319626168914210D84900401EFD
:10149000B0FBF1F2521CC2F30B02042A01D2042069
:1014A00022E0B0FBF1F0401CC0F30B001CE0A2688E
:1014B000F2B301EBC10303EB0116431EB3FBF6F3DA
:1014C0005B1C43F480431B0549D092B301EBC1027E
:1014D00002EB0111401EB0FBF1F0401CC0F30B0009
:1014E00040F4804040F400402168CA694CF6FF7324
:1014F0009A431043C861D4E9071001432068026889
:1015000022F0C00211430160D4E9030101432068C5
:10151000826848F2FF339A4311438160D4E90501A0
:1015200008432168CA6822F0FF021043C86001E046
:101530000EE016E02068016841F0010101602564B9
:10154000202084F83D00256384F83E50002070BDC3
:1015500001EB4106431EB3FBF6F35B1CB3E701202E
:10156000C2E701EB4101401EB0FBF1F0401CC0F3AB
:101570000B00B7E7A086010080841E0000093D0033
:1015800040420F002DE9FF4F83B00025DDE91079BF
:101590009A4693460446DDF848800095FFF728FFF9
:1015A000064694F83D0020287CD119230122854964
:1015B0002046009601F0D0F80028F5D194F83C00C0
:1015C00001286FD0012084F83C0020680168C90719
:1015D00003D1016841F0010101602068016821F434
:1015E00000610160222084F83D00402084F83E0024
:1015F00025646762A4F82A90608D20857248E062B5
:10160000CDE9008653465A462046049900F0ACFFC7
:1016100000287DD1208DDFF8B491202768B1012802
:1016200014D00228206801681ED041F48061016056
:101630002068416980690090B6E02068416981694D
:101640000091016841F400710160ADE0206801681B
:1016500021F48061016072B620684169816900915E
:10166000016841F400710AE041F40061016072B662
:101670002068416981690091016821F480610160FD
:1016800062B691E0032868D801280CD002284346AE
:101690004FF000024946204600960FD001F05CF85A
:1016A000B0BB10E08BE032464146204601F0D3F853
:1016B00070BB20680069616A08706CE001F04CF84A
:1016C00030BB72B634E02068016821F480610160AB
:1016D00072B620680069616A0870606A401C6062C6
:1016E000208D401E2085608D401E6085384846F262
:1016F000A8110068B0FBF1F0C0EBC00000EB800067
:101700000090401E009008D020684069C04300E06F
:1017100029E040070CD50098F3E744F8305F677381
:10172000A573206940F02000206162B625731AE09D
:101730002068016841F40071016020680069616AF5
:101740000870606A401C6062218D491E2185618D90
:10175000491E618562B621681BE03246414620463B
:1017600001F079F818B1012007B0BDE8F08F2068CA
:101770000069616A0870606A401C6062218D491EC0
:101780002185618D491E618521684A69D2435207CE
:101790000AD409690170606A401C6062208D401E95
:1017A0002085608D401E6085208D00287FF46AAF03
:1017B00084F83D7084F83E5084F83C50D4E7022011
:1017C000D2E70000020010000000FFFF040001004B
:1017D000240000202DE9FF4F83B09A46DDE91197E0
:1017E00093460446DDF84080FFF702FE054694F874
:1017F0003D0020287FD11923012240492046009531
:1018000000F0AAFF002876D194F83C00012872D09D
:10181000012084F83C0020680168C90703D10168F1
:1018200041F0010101602068016821F4006101605C
:10183000212084F83D00402084F83E0000262664E4
:10184000C4F82480A4F82A90608D20852C48E0629A
:10185000CDE9007553465A462046049900F002FF30
:1018600070B930E02A463946204601F027F858B1D1
:10187000206C042804D12068016841F400710160E3
:10188000012007B0BDE8F08F606A21680078086128
:10189000606A401C6062218D491E89B22185628D7B
:1018A000521E628522685369DB435B070BD469B122
:1018B00000781061606A401C6062208D401E2085A7
:1018C000608D401E6085208D0028CBD12A46394688
:1018D000204600F01BFF0028CAD154F83D0B0168D8
:1018E00041F400710160202004F81E09E677667754
:1018F0000020C6E7FFE70220C3E700000200100057
:101900000000FFFF10B586B0002100910191029107
:10191000039100680F4988421AD10F4CA06940F02A
:101920000800A061A069694600F008000490C0208A
:10193000009012200190032003900848FFF75AFC02
:10194000E06940F40010E061E06900F400100490E8
:1019500006B010BD0054004000100240000C0140D1
:1019600002488168027811448160704718000020A5
:10197000074810B5016841F010010160032000F034
:1019800075F80F2000F006F800F024F8002010BDD4
:101990000020024070B50D4D04464FF47A7128784E
:1019A000B1FBF0F00A490968B1FBF0F000F0C6FBAA
:1019B00048B9102C07D200222146501E00F036F8FC
:1019C00000206C6070BD012070BD00001800002078
:1019D000240000200C4808B5816941F001018161B3
:1019E000816901F001010091C16941F08051C1613B
:1019F000C06900F0805000900448416821F0E06127
:101A000041F00071416008BD00100240000001403B
:101A1000002809DB00F01F020121914040098000ED
:101A200000F1E020C0F8001170470000F0B40E4B48
:101A30001B680C46C3F30223C3F10705042D00D92C
:101A40000425191D072901D2002300E0DB1E012611
:101A500006FA05F1491E214099409E40761E164027
:101A60003143F0BC01F02CBC0CED00E0064900F065
:101A7000070208684FF6FF03184040EA0220034AB5
:101A800010430860704700000CED00E00000FA050C
:101A900010B529A401461DCC86B08DE81D002AA0F2
:101AA0002A4C006804900020012923D002293AD052
:101AB00010291DD161682268D20119D5C1F3834272
:101AC000C9031DF8020009D5616804AAC1F34041A9
:101AD000515C1F4AB2FBF1F1484301E01D49484304
:101AE0006168490204D440005FF00301B0FBF1F0EB
:101AF00006B010BD226AC2F30121012903D1920769
:101B000001D5C803F4E7022905D1626A920702D51C
:101B100049F64040ECE70329EAD121688903E7D57B
:101B20004FF22440E4E700F033F96168C1F38131FA
:101B3000491C4900DAE7000002030405060708090A
:101B40000A0B0C0D0E0F10100102000000100240D5
:101B500000127A0000093D002DE9F843054600789F
:101B6000354CC00754D0E0690026C00008D4E069B5
:101B700040F08050E061E069012600F08050009064
:101B80002E480168C90512D40168804641F480716D
:101B90000160FFF72DFC074605E000BFFFF728FCBA
:101BA000C01B642823D8D8F80000C005F6D5206AE9
:101BB00010F4407021D0A98801F4407181421CD0FA
:101BC000206A1F49012220F440700A6000220A6046
:101BD0002062C00711D0FFF70BFC074641F288389E
:101BE00008E000BFFFF704FCC11B414502D90320F8
:101BF000BDE8F883206A8007F4D5206A696820F47C
:101C00004070084320621EB1E06920F08050E0611E
:101C10002878800705D56068A96820F4404008430B
:101C200060602878C00605D56068E96820F4800007
:101C3000084360600020DBE70010024000700040B5
:101C4000400442422DE9F0470F46050061D0434E63
:101C5000306800F00700B84209D2306820F0070071
:101C600038433060306800F00700B84251D128682E
:101C70003B4C810712D5400703D5606840F4E06013
:101C800060602878000703D5606840F460506060A9
:101C90006068A96820F0F000084360602878C007F9
:101CA00028D06868012810D02168022810D0890740
:101CB00000292EDA616821F0030101436160FFF71A
:101CC00097FB804641F288390DE021688903EFE7F0
:101CD0008901EDE7FFF78CFBA0EB0801494502D92C
:101CE0000320BDE8F0876068696800F00C00B0EB85
:101CF000810FEFD1306800F00700B8420BD930688F
:101D000020F0070038433060306800F00700B84228
:101D100001D00120E5E72878400705D56068E9682B
:101D200020F4E060084360602878000706D560680A
:101D3000296920F4605040EAC100606000F038F882
:101D40006168084AC1F30311515CC8400649086044
:101D500006480068FFF71EFE0020C2E70020024090
:101D600000100240B0630008240000201C00002086
:101D70000448054900684968044AC1F30221515CDE
:101D8000C84070472400002000100240C0630008D3
:101D90000448054900684968044AC1F3C221515CFE
:101DA000C84070472400002000100240C0630008B3
:101DB00012A185B00FC98DE80F0014A0144A006865
:101DC00004905168134801F00C03042B10D0082B29
:101DD0000ED1C1F38343C9031DF803000AD551682E
:101DE00004AAC1F34041515C0A4A5043B0FBF1F0F0
:101DF00005B0704708494843FAE7000002030405AC
:101E0000060708090A0B0C0D0E0F10100102000046
:101E10000010024000127A0000093D002DE9F84F41
:101E2000040070D02078C04DC00749D06868C0F366
:101E30008100012807D06868C0F38100022809D119
:101E40006868C00306D52868800339D56068002813
:101E5000E7D035E06068B0F5803F0BD010B1B0F549
:101E6000A02F11D0286820F480302860286820F442
:101E7000802002E0286840F480302860606890B1DB
:101E8000FFF7B6FA06460AE0286840F4802028608A
:101E9000F0E700BFFFF7ACFA801B642873D828680E
:101EA0008003F7D50CE0FFF7A3FA064605E000BF74
:101EB000FFF79EFA801B6428F0D828688003F7D4C7
:101EC00020789A4E80074FF001094FF0000839D56D
:101ED000686810F00C0F07D06868C0F38100022812
:101EE00009D16868C00306D42868800714D5206922
:101EF000012808D110E02069B0B1C6F80090FFF7C2
:101F000077FA074605E00AE1FFF772FAC01B0228DC
:101F1000C4D828688007F7D52868616920F0F800E0
:101F200040EAC10028600DE0C6F80080FFF760FAC3
:101F3000074604E0FFF75CFAC01B022823D8286894
:101F40008007F7D4207800072CD57948A169D9B14A
:101F5000C0F80090FFF74CFA074604E0FFF748FA94
:101F6000C01B02280FD8686A8007F7D571484FF464
:101F7000FA510068B0FBF1F0009000BF0098411EDC
:101F80000091FAD20EE080E0C0F80080FFF730FA4E
:101F9000074604E0FFF72CFAC01B022875D8686AD0
:101FA0008007F7D42078400760D5E8690027C00093
:101FB00008D4E86940F08050E861E869012700F042
:101FC000805000905C480168C90513D401688346BD
:101FD00041F480710160FFF70BFA824606E000BF12
:101FE000FFF706FAA0EB0A0064284ED8DBF80000E1
:101FF000C005F5D5E06801280AD008B1052813D03E
:10200000286A20F001002862286A20F0040002E01B
:10201000286A40F001002862E06841F2883B98B1EC
:10202000FFF7E6F982460BE0286A40F004002862D8
:10203000EEE700BFFFF7DCF9A0EB0A0159455AD8DB
:10204000286A8007F6D50CE0FFF7D2F9824605E052
:10205000FFF7CEF9A0EB0A0159454CD8286A800752
:10206000F6D41FB1E86920F08050E861E06988B3D8
:102070006968C1F38101022944D00228C6F8608052
:1020800004D0FFF7B5F9044638E034E0FFF7B0F9C3
:10209000074604E0FFF7ACF9C01B02282BD82868DC
:1020A0008001F7D4206AB0F5803F05D16868A16847
:1020B00020F4003008436860D4E9080108436968E7
:1020C00021F4741108436860C6F86090FFF790F936
:1020D000044606E025E000BFFFF78AF9001B02284E
:1020E00009D828688001F7D51BE000BFFFF780F909
:1020F000001B022802D90320BDE8F88F2868800160
:10210000F4D40EE00128F7D06868226A00F4803128
:10211000914204D1616A00F47010884201D001201C
:10212000EAE70020E8E70000001002400000424219
:1021300080044242240000200070004010B5401E80
:10214000B0F1807F01D3012010BD4FF0E024606129
:102150000F21601701F0B4F80020A0610720206172
:10216000002010BD70477047F8B50268044610683B
:10217000D168536910F00F0F4FF0000553D003F0F2
:10218000010601F4907737435FD0C20705D0CA0536
:1021900003D5226C42F001022264420705D5DA071A
:1021A00003D0226C42F002022264820705D5DA07CE
:1021B00003D0226C42F004022264020707D501F02A
:1021C0002002324303D0226C42F008022264226CC7
:1021D000002A34D0800604D5880602D5204600F0B7
:1021E00029FF20684069216CC0F38010090700D4E2
:1021F00030B3204600F006FF2068416949061BD530
:10220000416921F040014161A06BA8B15849416387
:10221000A06BFEF791FF002811D0A06B416B01B0BD
:10222000BDE8F040084783060FD58B060DD5204644
:10223000BDE8F84000F0FEBE2046FFF794FFF8BD71
:102240002046FFF790FF2564F8BD266B2023012E62
:1022500052D1C60650D5CE064ED5106850680090B3
:10226000506940062AD5A16B086840680004000C3C
:10227000EAD0A68D8642E7D9E0858869202818D063
:10228000D06820F48070D0602068416921F001019D
:1022900041612068416921F04001416184F83E308C
:1022A00025632068C16821F01001C160A06BFEF7B2
:1022B0001FFFA08DE18D401A81B219E0A08DE18D44
:1022C000401A81B2E08D0028BED00029BCD0D06871
:1022D00020F49070D0602068426922F001024261CF
:1022E00084F83E3025632068C26822F01002C26084
:1022F0002046FFF737FFF8BD05062BD50D0629D57B
:1023000094F83D002128F6D1A068B0F5805F01D196
:102310002069B0B1206A411C2162216800784860C0
:10232000E08C401E0004000CE084E4D12068C16809
:1023300021F08001C1602068C16841F04001C160A6
:10234000F8BD206A0088C0F308005060206A801C35
:102350002062E5E74006F3D54806F1D5D16820466E
:1023600021F04001D16084F83D3000F0E4F8F8BD80
:10237000F52F000870B5040004D094F83D00002546
:1023800010B106E0012070BD84F83C50204600F0FA
:1023900023F8242084F83D002068C16821F400510E
:1023A000C160204600F0A2FE2068016921F490413E
:1023B00001612068416921F02A0141612068C168FA
:1023C00041F40051C1602564202084F83D0084F868
:1023D0003E00002070BD000030B585B000240094A0
:1023E0000194029403940068184988422CD118483B
:1023F000C16941F48021C161C16901F48021049166
:10240000816941F0080181618069124D00F0080086
:1024100004904FF48060009002200190032003900C
:1024200069462846FEF7E6FEE814CDE90004694651
:1024300028460294FEF7DEFE002211462720FFF711
:10244000F5FA2720FFF7E4FA05B030BD0048004058
:1024500000100240000C014090F83E30202B0ED1BD
:1024600059B152B190F83C30012B08D0012380F8CB
:102470003C300023036300F095BE0120704702202A
:10248000704770472DE9F843044690F83D001F4619
:1024900016460D4620284CD1C5B1BEB194F83C007B
:1024A000012846D0012084F83C004FF00008C4F811
:1024B0004080212084F83D00FEF79AFFA6848146E3
:1024C000E684A068B0F5805F03D004E00120BDE899
:1024D000F883206928B12E465FF0000584F83C801F
:1024E0000EE00026FAE78021204600F076FEA0B933
:1024F000AEB116F8010B21684860E08C401EE08404
:10250000E08C4B464FF0000200970028EBD14FF0D3
:102510004001204600F061FE30B10320D7E735F8D6
:10252000020BC0F30800E6E7202084F83D000020FD
:10253000CDE70220CBE77047FEE701684A69D24346
:1025400052050FD46FF480624A61002140F8301FB9
:10255000202242738173026942F004020261017316
:1025600001207047002070472DE9F84F04460068AD
:1025700089460B9D01689846174641F480610160C9
:102580002068016841F48071016000954FF0011BE3
:102590000022594620460A9B00F0DEF84FF4007AEC
:1025A00040B120680068C00501D5C4F840A00320F0
:1025B000BDE8F88F216809F0FE0008612B46284924
:1025C00020460A9A00F0FCF8F0BB20684169806957
:1025D00000902A4620460A9900F070F940B1206C1C
:1025E00004283AD12068016841F40071016034E0A8
:1025F000FEB2B8F1010F09D02168380A08612A46F5
:1026000020460A9900F05AF90028E8D120680661AE
:102610002A4620460A9900F051F90028DFD12068A7
:10262000016841F4807101600095002259462046FE
:102630000A9B00F091F80028B3D1216809F0FF004F
:1026400040F00100086100E007E02B460449204605
:102650000A9A00F0B5F80028AAD00120A8E70000E7
:10266000020001002DE9F843044600680D46DDE94B
:10267000089701689846164641F4807101604B4600
:1026800000224FF001112046009700F065F848B194
:1026900020680068C00502D54FF400702064032054
:1026A000BDE8F883216805F0FE0008613B464A4614
:1026B0001549204600F084F888B92068416980698E
:1026C00000903A464946204600F0F8F848B1206CA0
:1026D000042804D12068016841F4007101600120E0
:1026E000DEE7F5B2B8F1010F09D02168300A0861C0
:1026F0003A464946204600F0E1F80028E7D1206834
:1027000005610020CCE700000200010070B516460C
:102710000D4604460DE02046FFF70FFF08B10120EB
:1027200070BD681C05D0FEF763FE801BA84207D869
:1027300035B120684069C0434007ECD4002070BD2B
:10274000002044F8300F20216173A073216941F00B
:10275000200121612073E2E72DE9F0471E469046F3
:102760000D460446C1F30747DDF8209008E0701CD1
:1027700006D0FEF73DFEA0EB0900B0420FD876B1BF
:102780002068012F18D0806925EA00000004000CA1
:1027900014D000214145EAD00020BDE8F087002098
:1027A00044F8300F20216173A073216941F02001AA
:1027B000216120730120F0E74069E5E70121E9E7A5
:1027C0002DE9F0479A4691460E46044600254FF003
:1027D0002008C1F3074725E020684069C043400551
:1027E00014D42068016841F40071016021686FF41D
:1027F00080604861256384F83D8084F83E50206CF9
:1028000040F00400206484F83C501FE0B9F1FF3F21
:1028100008D0FEF7EDFDA0EB0A0149450CD8B9F14F
:10282000000F09D02068012F13D0806926EA00002C
:102830000004000C0BD0CFE744F8305F84F80D8023
:10284000A573206940F02000206125730120BDE8B8
:10285000F0874069EAE72DE9F041002590460E46F1
:102860000446202717E04069C043C0060CD454F842
:10287000301B6FF01000486144F810596777A57756
:10288000206A2062257717E0FEF7B2FDA0EB080072
:10289000B04208D83EB120684169C9434906E2D434
:1028A0000020BDE8F08144F8305F6773A5732069AC
:1028B00040F02000206125730120F2E770B5164634
:1028C0000D4604460DE02046FFF737FE08B1012013
:1028D00070BD681C05D0FEF78BFD801BA84207D891
:1028E00035B120684069C0430006ECD4002070BDBB
:1028F000002044F8300F20216173A073216941F05A
:10290000200121612073E2E73EB54000CDE90032AD
:102910000A4640F6FF740146029401230148FEF77F
:1029200031FE3EBDB80000203EB54000CDE900328A
:102930000A4640F6FF740146029401230148FEF75F
:1029400049FF3EBDB80000203EB500241148009468
:10295000019402940E49846001600473047501259A
:1029600005614FF460214460C161FEF709FA08B1C6
:10297000FEF780F90820CDE9000569460294054874
:10298000FEF77AF9002801D0FEF774F93EBD000089
:1029900000240140880000202DE9F04186B0002687
:1029A00029480096019602960396816941F010012C
:1029B0008161816901F010010491816941F0200178
:1029C0008161816901F020010491816941F0080170
:1029D0008161816901F008010491816941F004017C
:1029E00081618069012200F00400184F9403049073
:1029F00021463846FEF7F6FCDFF8548000224FF4FB
:102A000048714046FEF7EEFC009401240225694619
:102A100038460194CDE90245FEF7ECFB20208DE815
:102A20003100694640460395FEF7E4FB4FF44070E1
:102A30008DE851000320039069464046FEF7DAFB1B
:102A400006B0BDE8F0810000001002400010014017
:102A5000000C01400D4810B50B4901600C49416064
:102A600000214FF480428160C0E90312416181611D
:102A7000C1610162FEF7C2FC002803D0BDE810402E
:102A8000FEF7F8B810BD000000540040B800002068
:102A9000801A06000C4810B50A4901604FF4E13174
:102AA0004160002181600C22C160C0E90412816193
:102AB000C161FFF75FFC002803D0BDE81040FEF7BE
:102AC000D9B810BD004800400C010020FEE7FEE729
:102AD00070B50024002104F1B00000F07DF9002160
:102AE000084600F079F90021102000F075F9002562
:102AF0000121002000F070F96D1CEDB2802DF7D39C
:102B0000641CE4B2082CE5D370BD00002DE9FF5F22
:102B1000002084B01F461446012681460090019093
:102B2000024603460290DDF848B0B04620463946DA
:102B3000FDF770FE204602D287F0004100E03946E2
:102B4000FDF71CFE0546FDF7CEFD22463B46FDF790
:102B5000C1FC0022444BFDF7C0FCFDF72EFE0146F0
:102B60000A2005E008EB8802761C4FEA4208F6B21C
:102B700095FBF0F393FBF8F2002AF3D142F21072C6
:102B800095FBF2F292FBF0F300FB13228DF800208C
:102B90004FF47A7295FBF2F393FBF0FC00FB1C33CD
:102BA0008DF80130642395FBF3FC9CFBF0F800FBEF
:102BB00018CC8DF802C095FBF0FC9CFBF0F800FBF4
:102BC00018CC8DF803C095FBF0FCB1FBF2F200FBD2
:102BD0001C558DF80450B2FBF0F500FB15224FF0A8
:102BE0002E0A8DF805A08DF80620B1FBF3F2B2FB9A
:102BF000F0F300FB13228DF80720B1FBF0F2B2FBDB
:102C0000F0F300FB13228DF80820B1FBF0F200FB7B
:102C100012108DF809000DEB0B086D4688F8069030
:102C20000020295C30312954401C0A28F9DB00229D
:102C3000134620463946FDF7EDFD05D2761CF6B267
:102C4000C6F105012D2068548DF805A0C6F10500D8
:102C500088F806904219DDE904100C2300F0A4F86E
:102C600008B0BDE8F09F00000088C34070B50122A5
:102C70000B4D140221462846FEF7B4FB01225602F2
:102C800031462846FEF7AEFB002231462846FEF7C5
:102C9000A9FB21462846BDE870400022FEF7A2BBF2
:102CA000000C014070B5094C012211022046FEF7CC
:102CB00099FB6515002229462046FEF793FB29461D
:102CC0002046BDE870400122FEF78CBB000C01409D
:102CD00070B50122064D140221462846FEF782FBFC
:102CE00021462846BDE870400022FEF77BBB00006D
:102CF000000C014010B50A460446002102F1B00064
:102D000000F06AF8102040EA1410002100F064F886
:102D100004F00F00BDE81040002100F05DB8000095
:102D20002DE9F041203A00240D468046D6B27F2896
:102D300003D900208D1C8046EDB2102B294610D0FF
:102D4000FFF7D8FF164906EB460001EB40050121CD
:102D5000285D00F041F8641CE4B2062CF7D3BDE80E
:102D6000F081FFF7C7FF0F4F04EB06100121385C1D
:102D700000F032F8641CE4B2082CF5D36D1CE9B203
:102D80004046FFF7B7FF002404EB0610384401214A
:102D9000007A00F021F8641CE4B2082CF4D3DEE7DA
:102DA000C8630008F06500082DE9F0411F4616468B
:102DB0008846054600240AE03B4641462846FFF780
:102DC000AFFF0835EDB2782D04D8641CE4B2325D53
:102DD000002AF1D1BDE8F081C0B209B100F047B8D6
:102DE00000F02EB82DE9F041144F04464FF48076E0
:102DF000002231463846FEF7F5FA00254FF40078F8
:102E000004F08000802816D0002241463846FEF7A4
:102E1000E9FA6006040E012231463846FEF7E2FA6E
:102E2000002231463846FEF7DDFA6D1CEDB2082D62
:102E3000E6D3BDE8F0810122E7E70000000C014085
:102E400010B50446FFF712FF7820FFF7CBFFFFF71E
:102E50003FFF0020FFF7C6FFFFF73AFF2046FFF7CE
:102E6000C1FFFFF735FFBDE81040FFF71BBF10B5EE
:102E70000446FFF7FBFE7820FFF7B4FFFFF728FFBB
:102E80004020FFF7AFFFFFF723FF2046FFF7AAFF21
:102E9000FFF71EFFBDE81040FFF704BF704710B5F5
:102EA0000021AE20FFF798FF00210846FFF794FFAE
:102EB00000211020FFF790FF00214020FFF78CFF3A
:102EC0000021B020FFF788FF00218120FFF784FF59
:102ED0000021B020FFF780FF0021A120FFF77CFF39
:102EE0000021A420FFF778FF0021A620FFF774FF40
:102EF0000021A820FFF770FF00213F20FFF76CFFA3
:102F00000021C820FFF768FF0021D320FFF764FFEE
:102F100000210846FFF760FF0021D520FFF75CFF86
:102F200000219020FFF758FF0021D920FFF754FF20
:102F300000212220FFF750FF0021DA20FFF74CFF8D
:102F400000211220FFF748FF0021DB20FFF744FF9C
:102F500000213020FFF740FF00218D20FFF73CFFCC
:102F600000211420FFF738FF0021BDE81040AF20FA
:102F7000FFF732BF7047FEF7F3BC30B593B028219E
:102F80006846FDF717F914210AA8FDF713F9002583
:102F900001200F9510951195010412958DE82300DD
:102FA00004904FF4E010CDE908100224079468461D
:102FB000FEF734FF08B172B6FEE70AA90F2081E8D8
:102FC00031004FF48060CDE90D0502210AA8FEF71B
:102FD00039FE08B172B6FEE74FF4004011900F942D
:102FE0000FA8FEF7B9FD002801D072B6FEE713B0B6
:102FF00030BD704710B5406A0021C185C184FFF71C
:10300000B2F810BD0168CA6822F49072CA60016803
:103010004A6922F001024A61016B012904D1016869
:10302000CA6822F01002CA60202180F83E100021F8
:103030000163704708B590F83E10222901D00220A4
:1030400008BD82684FF480539A4201D1016921B1D1
:10305000816A9A421BD04AB10AE00268816A5268CA
:10306000C2F308020A80816A891C08E0026972B111
:103070000268526802F07F020A70816A491C81620C
:10308000C18D491E0904090CC18503D019E00268ED
:103090005268F1E70168CA6822F02002CA6001683C
:1030A000CA6822F48072CA6001684A6922F001028B
:1030B0004A61202180F83E10016B012903D0FFF7FF
:1030C000E0F9002008BD002101630168CA6822F010
:1030D0001002CA6001680A68D20602D50A68496807
:1030E0000091818DFFF73EF8EBE7000070B50446D4
:1030F00000680169E26821F44051114301612169CE
:10310000A0680843616908432168CA6841F20C63FA
:103110009A430243CA6020684169A26921F4407160
:10312000114341611E492068884202D1FEF730FEFA
:1031300001E0FEF71DFE00EBC00101EB001260682C
:1031400064218000B2FBF0F3B3FBF1F36FF01806DB
:103150007343B2FBF0F5B2FBF0F605EB83053223C7
:1031600003EB0515B5FBF1F5B6FBF1F605F0F0053F
:1031700005EB0615B2FBF0F6B2FBF0F0B0FBF1F098
:103180006FF01802504306EB800003EB0010B0FB19
:10319000F1F0216800F00F002844886070BD000045
:1031A0000038014081628285C285002101642222AB
:1031B00080F83E2080F83C100168CA6842F48072B2
:1031C000CA6001684A6942F001024A610068C16848
:1031D00041F02001C160002070472DE9F041984680
:1031E00017460E460446069D1DE0681C1BD02DB1F7
:1031F000FEF7FEF8A0EB0800A84214D92068C168C9
:1032000021F4D071C1602068416921F00101416160
:10321000202084F83D0084F83E00002084F83C0023
:103220000320BDE8F0812068006836EA000004D081
:103230000020B842D9D00020F3E70120F9E70000D0
:103240000148FEF791BF00000C010020FEE70000DE
:103250000FB4054B10B503A9044A029800F080F999
:1032600010BC5DF814FB00005D4C000870000020ED
:103270000FB4084B10B504A902AA039800F070F926
:10328000044602A9002000F002FD204610BC5DF8B3
:1032900014FB00008F3C0008490050EAC12018BF11
:1032A00004204A0D18BF40F0010040F2FF72B2EB5B
:1032B000515F08BF40F00200012808BF0520704799
:1032C0000907090E002804DB00F1E02080F8001453
:1032D000704700F00F0000F1E02080F8141D7047E7
:1032E0002DE9F0414F1E00EBC7010446D1E9000172
:1032F00015461E4637F006020DD02A463346FDF726
:10330000ECF87F1E04EBC703D3E90023FDF73EF87A
:1033100037F00602F1D1022F25D0042F13D0062F4B
:1033200018BFBDE8F0812A463346FDF7D6F8D4E948
:103330000A23FDF72BF82A463346FDF7CEF8D4E9E9
:103340000823FDF723F82A463346FDF7C6F8D4E9EB
:103350000623FDF71BF82A463346FDF7BEF8D4E9ED
:103360000423FDF713F82A463346FDF7B6F8D4E9EF
:103370000223FDF70BF82A463346FDF7AEF8D4E9F1
:103380000023BDE8F041FDF701B80122FDF786B941
:10339000FCF7FCBF0022134610461146FDF70FB99B
:1033A000024A00201107FDF779B9000001FDFFFF77
:1033B00002E008C8121F08C1002AFAD170477047FE
:1033C000002001E001C1121F002AFBD1704700005C
:1033D0000149086070470000740000202DE9FF5F7C
:1033E00082B00021DDE90430020DDDF840B0034376
:1033F00018D044F61050A2F2FF324243151411982F
:1034000001281FD0A5EB0B00401C5FEA000A4FF01B
:1034100000064E4FDFF83891B046504615D5CAF138
:10342000000413E0119801244AA3012801D16FEA96
:103430000B010298119AC0E90031C0E9024206B0BE
:10344000BDE8F09FCBF10000DFE704460021404AD1
:10345000491842EB0450CDE9001012E0E00707D014
:1034600032463B4640464946FDF737F88046894696
:1034700032463B4610461946FDF72FF806460F46E2
:103480006410002CEAD1DDE90401DDE90023BAF182
:10349000000F06DAFDF721F842464B46FDF71DF80E
:1034A00005E0FDF78CF842464B46FDF788F80446E8
:1034B0000E460022284BFDF7F5FA03D84FF0FF30F7
:1034C000014607E00022254B20463146FCF75EFF0F
:1034D000FDF7D0FA102409E0002C0ADB0A220023B1
:1034E000FDF7E2F9039B30321A55641E50EA0102DF
:1034F000F2D1641C039AC4F111031444119A012AF5
:1035000003D0012208430DD10AE0084304D0002073
:103510004FF0110B119072E7A3EB0B056D1E0DE040
:103520005B4504DD4FF0000205F1010504E003DA1C
:103530004FF00002A5F10105002AECD00298119984
:10354000C0E90231C0E9004579E7000000001440FD
:103550000000F03F300000000000F0430000E03FBA
:103560002DE9FF4F95B09B468946064600250FE2A0
:10357000252877D100242746F84A0121059400E048
:10358000044316F8013F203B01FA03F01042F7D143
:1035900030782A2811D06FF02F033078A0F1300254
:1035A000092A16D8059A44F0020402EB820203EBC2
:1035B00042021044761C0590EFE759F8042B05925F
:1035C000002A03DA504244F40054059044F0020407
:1035D000761C30782E2816D116F8010F44F004041A
:1035E0002A280DD06FF02F023078A0F13003092B7C
:1035F00009D807EB870302EB4303C718761CF3E7F0
:1036000059F8047B761C30786C280FD006DC4C28E7
:1036100017D068280DD06A2814D104E0742810D07F
:103620007A280FD10DE044F400140AE044F4801429
:1036300001E044F440147278824202D104F580140F
:10364000761C761C307866280BD013DC582877D08F
:1036500009DC002875D04528F6D04628F4D0472844
:103660001AD19DE118E0632835D0642879D0652807
:1036700012D195E1702873D008DC6728F1D0692851
:103680006FD06E280DD06F2806D1B5E073282CD0EE
:10369000752875D0782874D05A46179990476D1CB4
:1036A00075E1C4F30250022809D003280DD0D9F8DF
:1036B000001004280DD00D6009F1040967E1D9F864
:1036C0000010EA17C1E90052F6E7D9F800100D80A2
:1036D000F2E70D70F0E719F8041B8DF800100020D8
:1036E0008DF80100EA46012003E059F804AB4FF0E1
:1036F000FF3061074FF0000102D40DE008F1010135
:103700008846B9420FDA8045F8DB1AF8081000291C
:10371000F4D108E008F1010188468142FADB1AF889
:1037200008100029F6D105985B46A0EB0807214652
:103730003846179A00F094FA284400EB080507E091
:103740004DE029E10DE01AF8010B5A461799904710
:10375000B8F10108F7D25B4621463846179A13E1C3
:1037600042E00A220092C4F302524FF0000A022AF9
:1037700008D059F804CB032A4FEAEC710AD00DE0C7
:1037800029E02AE009F1070121F00702F2E802C16D
:10379000914609E00FFA8CFC4FEAEC71042A03D140
:1037A0004FFA8CFC4FEAEC71002907DA0A46002137
:1037B000DCF1000C61EB02012D2202E0220504D5B0
:1037C0002B228DF80420012203E0E20701D0202201
:1037D000F7E7904659E00A2102E010220DE010219F
:1037E0004FF0000A00910BE010224FF0000A44F065
:1037F00004040827009203E008224FF0000A009218
:10380000C4F30252022A05D059F804CB0021032A3E
:1038100008D009E009F1070121F00702F2E802C12E
:10382000914605E01FFA8CFC042A01D10CF0FF0C34
:103830004FF00008220728D5702806D0009B83F09F
:10384000100353EA0A0305D00EE040228DF804204D
:10385000012208E05CEA010206D030228DF8042043
:103860008DF8050002229046009B83F0080353EA7E
:103870000A030AD15CEA010201D1620705D53022B0
:103880008DF804204FF001087F1E582804D034A082
:1038900003900EA802900DE036A0F9E7534660466B
:1038A000009AFDF701F884460398825C0298401E56
:1038B000029002705CEA0100F0D1029806A9081A91
:1038C00000F1200A600702D524F4803400E00127CB
:1038D000574502DDA7EB0A0000E0002000EB0A01DB
:1038E000009005984144401A0590E00306D45B46D9
:1038F0002146179A059800F0B3F90544002706E021
:1039000001A85A46C05D179990476D1C7F1C47451A
:10391000F6DBE0030CD55B462146179A059800F0CC
:103920009FF9054404E030205A46179990476D1CD2
:103930000099481E00900029F5DC08E002980299E1
:103940005A460078491C0291179990476D1CBAF1AC
:103950000001AAF1010AF1DC65E10000092801007B
:1039600030313233343536373839616263646566F5
:1039700000000000303132333435363738394142B7
:10398000434445460000000000F058F90544761C09
:10399000307800287FF4ECAD19B02846BDE8F08FF0
:1039A000620700D4062709F1070222F0070CFCE8A1
:1039B0000223E14603F000485FEA080C02D00FF250
:1039C000702C0DE05FEA045C02D50FF2682C07E072
:1039D0005FEAC47C02D00FF2602C01E0AFF2700C01
:1039E0004FF0FF3823F00043CDF850C065280CD0CD
:1039F00006DC452809D046281DD047283DD13DE0AA
:103A0000662818D067287ED138E00021112F01DB0D
:103A1000112000E0781CCDE9000106A90EA8FFF7EF
:103A2000DDFCDDE90F010E9A03910021009207F100
:103A3000010A04914DE04FF000400097CDE90110DC
:103A400006A90EA8FFF7CAFCDDE90F0203920E9B40
:103A500011990022DDF80CA00093049211B9791C91
:103A600000EB010AB7EB0A0004D4C0F1FF3007F104
:103A7000010A0490AAEB0700019044E0012F00DA4C
:103A800001270021112F01DD112000E03846CDE98A
:103A9000000106A90EA8FFF7A1FCDDE90F010E9AAF
:103AA0000391002104910092BA4621070CD4039996
:103AB000514500DA8A46BAF1010F05DD009AAAF1F4
:103AC0000101515C302908D0B84202DA10F1040F2C
:103AD00006DA0121CDE9011015E0AAF10101E9E7BB
:103AE000002805DC049901440491AAEB000102E0DE
:103AF000411C514500DD8A460499401A401C019042
:103B00004FF000400290200704D40198504501DB9B
:103B1000CDF8048000208DF84F0002980DF14F077A
:103B2000B0F1004F25D02B200E9002984FF00208E4
:103B300000280CDA404202902D200E9007E00A2166
:103B40000298FCF79BFE3031029007F8011DB8F196
:103B50000001A8F10108F2DC02980028EFD1791EDB
:103B60000E980870307800F0200040F0450007F80B
:103B7000020D12A8C01B00F107081498007800B1CC
:103B8000012000EB0A01019801EBE0710598414426
:103B9000401A401E0590E00306D45B462146179A62
:103BA000059800F05DF805441498007818B15A465D
:103BB000179990476D1CE00324D55B462146179A60
:103BC000059800F04DF805441CE00498002807DB38
:103BD000DDE90301884203DD0098405C179901E0AC
:103BE000179930205A469047049805F10105401C6A
:103BF00004900198401E019004D12E205A46179936
:103C000090476D1CBAF10001AAF1010ADDDC05E064
:103C100017F8010B5A46179990476D1CB8F100012F
:103C2000A8F10108F4DC5B462146179A0598ABE63B
:103C30002D0000002B000000200000002DE9F041C5
:103C4000044600251E461746880404D405E039467C
:103C50002020B0476D1C641EF9D52846BDE8F081D0
:103C60002DE9F041044600251E469046C80301D5C3
:103C7000302700E02027880404D505E04146384677
:103C8000B0476D1C641EF9D52846BDE8F0810A686E
:103C9000531C0B60107070472DE9FE4F07460E460F
:103CA0000025684600F0E6FF00246FF00F0AE846A2
:103CB0004FF0010957F8240056F82410401A00D597
:103CC0004042FCF702FD5146FCF754FB58F8241023
:103CD00011F0FF4F0BD0FCF70FFB4FF07E51FCF7BC
:103CE000D3FA0A4920F00040884205DC07E0084981
:103CF00008440849884202D309FA04F00543641CC9
:103D0000032CD7DB2846BDE8FE8F0000295C0F3E60
:103D1000666666C19A99D9002DE9F04D8D4F21F064
:103D2000004A86B005460C46BA452ADBAAEB0700D6
:103D300028430AD08848824501DC1AD1CDB106B0AB
:103D40002846BDE8F04DFFF720BB844A844B284647
:103D5000FCF7C3FB07460E46824A834B28462146A2
:103D6000FCF7BBFB06B03A463346BDE8F04DFCF726
:103D70000DBB0120FFF72CFB06B0BDE8F04DFFF7AF
:103D800009BB7A48824542DABAF1795F0BDA2846F4
:103D9000FFF782FA042808BFFFF702FB284606B0A7
:103DA0002146BDE8F08D2A460B461046FCF795FBF0
:103DB000834602466E480E460B4606217844FFF7BE
:103DC0008FFA5A463346FCF788FB804669488A4694
:103DD0005A46334604217844FFF782FA5A4633465E
:103DE000FCF77BFB00223B46FCF7D0FA02460B4671
:103DF00040465146FCF7E3FB2A462346FCF76DFBA1
:103E000006B02A462346BDE8F04DFCF7BFBA284667
:103E100024F0004100223D463B46FCF75BFB4FF09F
:103E2000FF32FCF73BFC0646024653480F460B4662
:103E300006217844FFF754FA32463B46FCF74DFB27
:103E4000CDE900014D4832463B4604217844FFF756
:103E500047FA32463B46FCF740FB00222B46FCF774
:103E600095FA834602913046394602F07BFA804645
:103E700043480D46504517DCDDE900015A46029BD8
:103E8000FCF79DFB42462B46FCF727FB42462B46A0
:103E9000FCF77CFA0122FCF701FC304A304BFCF7BE
:103EA00016FB304A304B4CE04FF0000A52460B46AE
:103EB0004046FCF76BFACDE9031052462B461046FC
:103EC0001946FCF70AFB32463B46FCF703FBDDE9EB
:103ED0000332FCF774FB06460F46DDE900015A4643
:103EE000029BFCF76CFB8346009101223046394669
:103EF000FCF7D4FB194A1A4BFCF7ECFA06460F46BE
:103F0000012240462946FCF7C9FB5A46009BFCF7B4
:103F1000E4FA32463B46FCF7DAFA06460F4601223F
:103F200050462946FCF7BAFB0E4DDFF858802A466A
:103F30004346FCF7CFFA32463B46FCF7CBFA2A461B
:103F40004346FCF7C7FA002CD8BF81F0004106B009
:103F5000BDE8F08D0000F03F0000F07F075C1433F7
:103F600026A6913C182D4454FB21F93F0000E03F68
:103F7000683A00007E3A0000F2390000083A00007A
:103F80003333EF3FFB21E93F2DE9F84F04460D465F
:103F900021F0004000917349814211DC724988424E
:103FA00001DC06D12CB120462946BDE8F84FFFF7C9
:103FB000ECB96E48002DCCBF6D496E49BDE8F88F55
:103FC0006D49814211DD6D498142D8BF4FF0FF3606
:103FD0006DDD20462946FFF75FF9042808BFFFF78B
:103FE000DFF920462946BDE8F88F6549654F25F081
:103FF0000045814233DD6449814219DD00263246A5
:104000004FF0804320462946FCF7C0F980468A4697
:10401000012220462946FCF741FB00223B46FCF7E3
:1040200056FA42465346FCF7CAFA04460D463EE0AD
:1040300001260022BA463B4620462946FCF7A6F94F
:1040400080460F460022534620462946FCF73FFA99
:1040500042463B46FCF7B3FA04460D4627E04B497F
:1040600081421BDDDFF828A10226002253462046AC
:104070002946FCF732FA00223B46FCF787F98046D6
:104080000F460022534620462946FCF720FA4246B6
:104090003B46FCF794FA04460D4608E00326224608
:1040A0002B4600203B49FCF78AFA04460D4622467F
:1040B0002B4610461946FCF710FA8B4682460246FC
:1040C0000B46FCF70AFA07460246334888460B4679
:1040D00006217844FFF704F952465B46FCF7FDF9E8
:1040E00082462E488B463A46434605217844FFF7E0
:1040F000F7F83A464346FCF7F0F902460B46002E25
:10410000504659460CDAFCF741F922462B46FCF79B
:10411000E4F901B022462B46BDE8F04FFCF7DAB9CE
:10412000FCF734F922462B46FCF7D7F91C4A7A44AF
:1041300002EBC603D3E90023FCF7C9F922462B465C
:10414000FCF7C5F9174A7A4402EBC603D3E900230A
:10415000FCF7C0F9009A002AB8BF81F00041BDE821
:10416000F88F0000000010440000F07F182D445428
:10417000FB21F93FFB21F9BF0000DC3F0000203E9E
:104180000000F33F0000F03F0000E63F00800340E6
:104190000000F83F0000F0BF0A380000C8370000F8
:1041A000663700002E3700002DE9F04D9446CCF123
:1041B000000423F000464CEA0404524F46EAD4744B
:1041C0009A46884621F00042BC4206D8454240EA61
:1041D000050442EAD474BC4204D9BDE8F04D6246FD
:1041E000FFF7D6B8AAF14055A5F17F6555EA0C0452
:1041F0000BD0022404EAAA74434DDFF810E144EA2C
:10420000D87452EA000B04D00CE0BDE8F04DFFF783
:10421000BBBE002C14BF012CBDE8F08D022C30D0A9
:10422000032C32D056EA0C0B0AD0BE4220D1BA423F
:1042300009D126F0804622F080423346114617E02D
:1042400000291ADB25E0DFF8C8B0FB44002C04BFCE
:10425000DBE90001BDE8F08D012C02BFDBE90001C4
:1042600081F00041BDE8F08D022C0AD0032C0CD067
:10427000BA4212D1B8F1000F0BDA23482549BDE844
:10428000F08D28462449BDE8F08D28467146BDE8EA
:10429000F08D1D482149BDE8F08D921B12153C2A76
:1042A000C4BF19481D490EDCBAF1000FBEBF12F1A0
:1042B0003C0F0020014606DB6246FCF780F921F046
:1042C0000041FFF761FE002C08BFBDE8F08D012C16
:1042D00004BF81F00041BDE8F08D114A114B022C62
:1042E00007D0FCF7F4F82A46BDE8F04D0A4BFCF77E
:1042F000EEB8FCF7ECF82A46BDE8F04D064BFCF7AB
:10430000E9B800000000F07F182D4454FB2109C0DB
:10431000C2360000FB21F9BFFB210940FB21F93F18
:10432000075C143326A6A13C08B560B120208DF8A7
:10433000000028208DF8010030208DF80200382080
:104340008DF8030004E0A32204216846FBF72BFF4D
:104350006A46042140F69E2001F0FEFE01F0BCFBFF
:1043600008BD00003EB5044602208DF80000CA20BA
:104370008DF80100E3208DF8020009208DF803007C
:104380006A460421682001F0E7FEA3208DF80000B2
:10439000610609D5C0218DF80110C8218DF80210E1
:1043A000C2218DF8031005E08DF801008DF80200A0
:1043B0008DF8030014F4C07F09D0C4218DF80410D7
:1043C000CC218DF80510C6218DF8061005E08DF87A
:1043D00004008DF805008DF806008DF808008DF8B2
:1043E00007008DF809006A460A2140F6A72001F06F
:1043F000B3FEA0074FF0D80503D020208DF80000B1
:1044000001E08DF800506A46012140F6B62001F027
:10441000A3FEA00601D5012000E0002000F08EF8E8
:1044200014F4C07F1ED0E0050AD5B2208DF800003C
:104430008B208DF80100B6208DF802009B2009E04A
:10444000B0208DF8000080208DF80100B4208DF898
:10445000020090208DF803006A46042140F6A22055
:1044600001F07AFEE1074FF40B6022D0F8218DF8BD
:1044700000106A46012101F06FFEFA21072000F0CA
:1044800039FB072000F004FB012000F021FB642031
:1044900000F0C4FB4FF4FA7000F0D0FBC8212548AF
:1044A00000F0BEFA282000F0D3FA0A2000F0E0FA6B
:1044B00005E08DF800506A46012101F04DFEA0078D
:1044C00003D5D9208DF8000001E08DF800506A4630
:1044D000012140F23D7001F03FFE600701D501204F
:1044E00000E0002000F048F8E00601D5012000E0DF
:1044F0000020FFF719FF104D44F00800688101F01B
:10450000EBFA0020A873600601D50620A87314F406
:10451000C07F02D0A87B801DA87314F0140F02D0B6
:10452000A87B1030A873A00702D0A87B001DA87339
:1045300000203EBD09E3CA02500100200EB54FF431
:10454000976310B106A107C901E008A207CA8DE868
:1045500007006A460921184601F0FEFD0EBD000065
:10456000B8AAB38DB4980D355D000000B8AAAAAA08
:10457000B088C3C5C700000008B560B1C0208DF881
:104580000000C2208DF80100C4208DF80200C62072
:104590008DF8030004E08B2204216846FBF703FE3C
:1045A0006A46042140F6982001F0D6FD01F094FA05
:1045B00008BD0000C8234FF48062024940F6F6307F
:1045C00001F06CB9306C00082DE9FF4F89B0174637
:1045D000DDE9165200244C4E884681462C80A246C6
:1045E000B07B694601F006FA4FF0FF3B18B1584620
:1045F0000DB0BDE8F08F708910F0140F3CD0009919
:1046000009BA21F0FF039DF803100B433B600199A9
:104610001B1409BA21F0FF029DF807105B430A43FF
:104620007A6002999DF80B4009BA21F0FF012143FD
:10463000B960039C091424BA24F0FF0C9DF80F40C4
:1046400012144CEA040CC7F80CC04FEA2C4749433B
:1046500002FB023207FB071111441024A1F1706123
:10466000B1F1007F04D901F037FAA5F800A0BEE748
:10467000298841F4807129804206694611D50A19BA
:10468000A41D13885BBAA8F8003053885BBAA8F859
:104690000230928852BAA8F804202A8842F0080210
:1046A0002A8010F4C07F11D00A19A41D13885BBAA8
:1046B000A9F8003053885BBAA9F80230928852BA40
:1046C000A9F804202A8842F070022A80800716D0B8
:1046D0000C44E07800F0C00500F03F016078C007AE
:1046E00006D0C80801F007013268491C02B19047A2
:1046F0006078000703D5716809B1A80988470C984C
:1047000000F01AFE002073E7500100202DE9FF4160
:10471000044603A800F078FFBDF80C00410CC30369
:104720002F48028902F00300550754F8200000D5F5
:104730004042C2F3C105960654F8255000D56D429B
:10474000C2F38116D20554F8264000D56442A0FB7E
:104750000367C21702FB037200FB0120820042EADA
:104760009670A5FB0367EA1702FB037205FB0122A3
:10477000950045EA9672A4FB0367E51705FB0373F2
:1047800004FB01318B0043EA9671030E8DF8003073
:10479000030C8DF80130030A8DF802308DF8030008
:1047A000100E8DF80400100C8DF80500100A8DF81D
:1047B0000600080E8DF80800080C8DF80900080A9C
:1047C0008DF80A008DF807208DF80B106A460C2131
:1047D0004FF4257001F0C0FC04B0BDE8F08100008A
:1047E0005001002030B5044613A285B007CA8DE8F9
:1047F00007004FF0FF35C82C16D8C820B0FBF4F1E5
:10480000491E080A8DF80C008DF80D1003AA02212C
:1048100040F2162001F0A0FC30B96A460C2140F6A7
:10482000C12001F099FC10B1284605B030BD054803
:1048300084810020F9E70000FEF2ABC4AAF1DFDFBB
:10484000BBAFDFDF50010020F8B53049098901F026
:10485000030250F822404A0700D56442C1F3C10266
:104860008B0650F8222000D55242C1F3811350F834
:104870002330C80500D55B42254984FB01408500F3
:1048800045EA947082FB0142A40F44EA820483FB50
:104890000121950F45EA8105010E8DF80010010CEC
:1048A0008DF80110010A8DF802108DF803006A4698
:1048B00004214FF4747001F04FFC4FF0FF3688B9BB
:1048C000200E8DF80000200C8DF80100200A8DF8D4
:1048D00002008DF803406A4604214FF4757001F020
:1048E0003BFC08B13046F8BD280E8DF80000280CBE
:1048F0008DF80100280A8DF802008DF803506A46F1
:1049000004214FF4767001F027FCF8BD500100201F
:1049100009E3CA022DE9FF4104463CA004F0030369
:10492000006802903AA0006803903AA006683AA096
:10493000056802A8C15C8DF80010C4F3C101425C97
:104940008DF80120C4F38112805C8DF8020003A869
:10495000C35C8DF80430415C8DF80510805C8DF8E7
:1049600006006A46032140F2264001F0F5FB4FF0B5
:10497000FF37E0BB01AA032140F22A4001F0ECFB23
:10498000A8BBCDE9006560070BD59DF8000040F09D
:1049900001008DF800009DF8040040F001008DF842
:1049A0000400A0060BD59DF8010040F001008DF831
:1049B00001009DF8050040F001008DF80500E005BC
:1049C0000BD59DF8020040F001008DF802009DF823
:1049D000060040F001008DF806006A4603214FF4FE
:1049E000886001F0B9FB10B901AA032100E004E0DE
:1049F00040F2314001F0B0FB18B1384604B0BDE8D8
:104A0000F081064804810020F8E700004CCD6C00DE
:104A10000CC92C0036567600264666005001002050
:104A20004FF47A7290FBF2F008B54843010E8DF80E
:104A30000010010C8DF80110010A8DF802108DF89C
:104A400003006A4604214FF4AE7001F085FB08BDF7
:104A50000521B0FBF1F008B5010A8DF800108DF8C2
:104A600001006A4602214FF4AD7001F075FB08BDEC
:104A70000521B0FBF1F008B5010A8DF800108DF8A2
:104A800001006A4602214FF4AC7001F065FB08BDDD
:104A900008B500218DF80010C10702D030218DF833
:104AA0000010810705D59DF8001041F00C018DF82C
:104AB0000010400705D59DF8000040F003008DF878
:104AC00000006A4601214FF4A47001F045FB08BDC7
:104AD00008B560B1042800D90420401E8DF80000FC
:104AE0006A46012140F24F1001F036FB08BD01205B
:104AF000F3E700002DE9FC41054640074FF0FF3683
:104B00007CD0B1F5C86F79D80846FBF7E7FD3E4980
:104B1000FBF7F2FB074601A800F058FD9DF80400E2
:104B2000022806D004280DD008282ED0102865D1E0
:104B300034E00E213846FBF71DFCFBF70BFE84B278
:104B4000324907E00D213846FBF714FCFBF702FE63
:104B50002F4984B23846FBF79DFBFBF7FBFD210A8A
:104B60008DF8001080B28DF80140010A8DF8021016
:104B70008DF80300E8076C4620D0224602214FF44E
:104B8000EA7001F0E9FAC8BB11E00C213846FBF7E6
:104B9000F1FBFBF7DFFD84B21E49DBE70B21384652
:104BA000FBF7E8FBFBF7D6FD84B21B49D2E7A21C5A
:104BB00002214FF4927001F0CFFAF8B9A8070DD591
:104BC0006A4602214FF4EC7001F0C6FAB0B9A21C9B
:104BD00002214FF4947001F0BFFA78B9680710D53C
:104BE0006A4602214FF4EE7001F0B6FA30B9A21C09
:104BF00002214FF4967001F0AFFA10B13046BDE8D3
:104C0000FC810020FBE70000000048430000404614
:104C10000000C045000040450000C0440521B0FB35
:104C2000F1F008B5010A8DF800108DF801006A4610
:104C300002214FF4EF7001F08FFA08BD0521B0FB9F
:104C4000F1F008B5010A8DF800108DF801006A46F0
:104C500002214FF4ED7001F07FFA08BD13B54FF655
:104C6000FF73012269460248FDF70CFC00981CBD49
:104C70000C0100202DE9FE430646264801AB042224
:104C800040680D210078FDF73FFE10B10720BDE818
:104C9000FE839DF804101C2000EAD1029DF8071045
:104CA000DFF87490C1F301131A438DF800209DF8CA
:104CB0000520C1F3810300EAD2021A438DF80120D6
:104CC0009DF8062001F0030100EAD2000843002409
:104CD000124F8DF80200A0466D46285D10B146F8CF
:104CE00024900AE046F824800DE000BF56F8240026
:104CF0003946FBF7CFFA46F82400285D401E10F035
:104D0000FF002855F2D1641CE4B2032CE5D3002047
:104D1000BDE70000380000207B14AE3E1D5A843FE2
:104D20002DE9FE4F05460120C14E8DF800004FF0E1
:104D300000088DF8018030680C461746817C706849
:104D40006B4602220078FDF7EFFD4FF0FF3A002896
:104D50007AD1C820FCF73CFA8DF8008030686B46A9
:104D60000122C17B70680078FDF7DEFD0028EFD1DD
:104D700030686B460122417970680078FDF7D4FDF8
:104D80000028E5D130686B460122817C706800788C
:104D9000FDF7CAFD0028DBD130686B460122C17DDA
:104DA00070680078FDF7C0FD0028D1D130686B46EF
:104DB0000122017970680078FDF7B6FD0028C7D19F
:104DC0004FF00C098DF8009030686B460122017994
:104DD00070680078FDF7A8FD002835D10F20FCF79A
:104DE000F7F9B06A6B460122407A8DF8000030680E
:104DF000817870680078FDF797FD002824D1B06AAB
:104E00006B460122007A8DF80000306841787068A6
:104E10000078FDF789FD002873D1B06A807A0FB160
:104E200040F0E0008DF8000030686B460122817987
:104E300070680078FDF778FD002862D12FB1B06A64
:104E4000C07A40F0E00001E04AE018208DF8000050
:104E500030686B460122C17970680078FDF764FD07
:104E6000F0BB17B1C820FCF7B3F940208DF8000063
:104E700030686B460122017970680078FDF754FDB7
:104E800070BB78208DF8000030686B4601224179B4
:104E900070680078FDF748FD10BB3220FCF798F9E8
:104EA0008DF80080306847466B4641797068012272
:104EB0000078FDF739FD98B931687068B046897A95
:104EC00000786B460222FDF71FFD48B9BDF80000CF
:104ED000AF6040BAB0FBF9F06F60C6B22F6000E07F
:104EE0000FE0A76067602760002739E0D8F800105E
:104EF000D8F804006B46C97A00780C22FDF704FD4F
:104F000010B15046BDE8FE8FBDF80000236840BADE
:104F100002B2BDF80200BDF804101A44226040BA83
:104F2000626800B21044606049BAA06809B20844DF
:104F3000A060BDF806002B6840BA02B2BDF80800B8
:104F40001A4440BA01B2BDF80A002A606A6840BA41
:104F500011446960A96800B208447F1CFFB2A860D0
:104F6000B742C3D328688322C117090441EA10411C
:104F700000040023FBF7D6F832460023FBF7D2F8F3
:104F8000286068688322C117090441EA10410004BF
:104F90000023FBF7C7F832460023FBF7C3F868602D
:104FA000A8688322C117090441EA104100040023C4
:104FB000FBF7B8F832460023FBF7B4F8A860206886
:104FC0004FF40065C117090441EA104100042A4664
:104FD0000023FBF7A7F832460023FBF7A3F8206075
:104FE00060682A46C117090441EA10410004002301
:104FF000FBF798F832460023FBF794F86060A0684E
:105000002A46C117090441EA104100040023FBF7B6
:1050100089F832460023FBF785F8A060002802DDFE
:10502000A0F5803001E000F58030A060002069E745
:10503000380000202DE9F0471B48FBF7F9FF6421F9
:105040001948FBF757FF1848FBF794FE800503D576
:105050001548FBF791FE04462046FBF755FB4FF041
:1050600066394A46114BFBF738FA6FF00B02FBF733
:1050700015FB0F4C07468846D4E902010D4A0E4B3A
:10508000FBF72BFA05460E464A460C4B384641467E
:10509000FBF723FA2A463346FBF778F9C4E9000107
:1050A000C4E90201BDE8F08788000020662642407E
:1050B00028000020343333333333D33F6666E63F72
:1050C0002DE9F84F81462E488846002540686B46FA
:1050D000032200780D21FDF717FC10B10720BDE871
:1050E000F88F9DF80000002400F01F008DF80000EC
:1050F0009DF801006FF00F0B00F01F008DF801000C
:105100009DF802006E4600F01F008DF802004FF07F
:10511000010A00BF59F8241058F82400081A00D5D5
:105120004042FBF7D2FA5946FBF724F90746305DB7
:10513000C0B1144802E01449FBF7ACF8315D491ED8
:1051400011F0FF013155F6D101463846FBF7D4F88E
:105150004FF07E51FBF798F80C4920F00040884250
:1051600005DC07E00A483844B0F1D97F02D90AFAD1
:1051700004F00543641C032CCCDB2846AFE7000099
:10518000380000200000C84154E3853F295C0F3EF1
:105190000000E0BE00B5024600F00DF80346D01C4A
:1051A00000F009F843EAC003901D00F004F843EA58
:1051B000801080B200BD90F90010002902DD4FF090
:1051C0000000704702DA4FF00400704790F90110B8
:1051D000002902DD4FF00100704702DA4FF00500B0
:1051E000704790F90200002802DD4FF0020070477E
:1051F00002DA4FF0060070474FF0070070470000DA
:1052000086B0FCF7B5FBFDF7B8FEFDF7C5FBFDF773
:1052100021FCFDF799FBFDF73DFC01222E492F48AB
:10522000FDF71AF9FDF73BFE6420FBF7D1FFFDF710
:105230004FFC00F0DDFF2AA0FEF70AF800208DF8F1
:105240001000012140F6FF7204A88DE807000B460C
:105250007522D0212648FCF795F99DF810101E4CB8
:10526000682903D023A0FDF7F3FF06E026A0FDF791
:10527000EFFF02E0C820FBF7ABFF00F057F9002872
:10528000F8D1DFF8A4A04FF4804900BFFFF7D2FEA9
:10529000114AC4E904010C32111F081F00F078F80C
:1052A000B8B949465046FCF795F8E068FBF79EFA16
:1052B00007468846A068FBF799FA05460E466068DF
:1052C000FBF794FA8DE8E00102460B4617A0FDF7C4
:1052D000BFFF00F06BFFD9E7000000200C010020A9
:1052E0006D70753630353020696E69740D0A0000B6
:1052F000B8000020457272206D70752069643A30E4
:105300007825780D0A0000006D7075363035302034
:10531000494420526561643A204F4B20617420302B
:105320007836380D0A0000000010014025662C2553
:10533000662C25660D0A0000704700002DE9F0413B
:10534000124C20F00101002594F8240010B1002037
:10535000BDE8F081A07A4FF0FF3668B10840277CA5
:105360002074884200D0354641B1012000F0CEFFC4
:1053700000F0B2FB38B127743046E9E7207D00B178
:10538000012000F0C3FF2846E2E7000038000020BB
:105390002DE9F74F8EB00CA902A8CDE900010BABA7
:1053A00003AA09A907A8FFF70FF918B1012011B046
:1053B000BDE8F08FBDF80800C0057DD50398FBF768
:1053C00084F96FF01D042146FAF7D4FF8246049851
:1053D000FBF77BF92146FAF7CDFF81460598FBF7ED
:1053E00074F92146FAF7C6FF80460698FBF76DF977
:1053F0002146FAF7BFFF054601215046FAF7BAFFEA
:1054000006464146FAF746FF04464FF040414846FB
:10541000FAF740FF07462946FAF73CFF2146FAF71C
:10542000E1FEFBF7E3F9FEF777FC4FF0663B5A46E7
:105430003D4BFBF752F8FBF705FA0E990860012186
:105440004046FAF797FF41460090FAF723FF0446DB
:1054500038464946FAF71EFF2146FAF715FF4FF086
:105460007E51FAF7BFFEFBF7C1F907460C463046FE
:105470004946FAF70FFF064629460098FAF70AFF51
:105480003146FAF7AFFEFBF7B1F93A462346FEF78D
:105490008BFE5A46244BFBF720F8FBF7D3F90F9904
:1054A000086029460846FAF7F5FE074641460846D1
:1054B000FAF7F0FE064600E034E049460846FAF7FF
:1054C000E9FE044651460846FAF7E4FE2146FAF79B
:1054D00089FE3146FAF7D8FE3946FAF7D5FEFBF7D2
:1054E00085F906460C4629465046FAF7D3FE05468E
:1054F00041464846FAF7CEFE2946FAF773FE0121E7
:10550000FAF738FFFBF772F932462346FEF74CFEF6
:105510005A46054BFAF7E1FFFBF794F9109908603A
:10552000002044E7022042E766A64C4010B500F098
:10553000F1F808B10A2010BD782000F0B1FD10F09C
:10554000FF0F01D0012010BD7820FFF7F7FE10F00B
:10555000FF0F01D0022010BD642000F061FD10F0AB
:10556000FF0F01D0032010BDFFF724F810F0FF0F4C
:1055700001D0042010BD1448FFF70CFEFFF7CAF954
:1055800010F0FF0F01D0052010BD40F27310FEF7A0
:10559000E9FE10F0FF0F01D0062010BD6420FFF7D8
:1055A00021F910F0FF0F01D0072010BD00F06EFEB2
:1055B00008B1082010BD012000F058FC10F0FF00D9
:1055C000F8D0092010BD0000640000200D494A7A7F
:1055D00042B1012A08D0022A0FD0032A0FD04FF07F
:1055E000FF307047022200E004220270C97C11B132
:1055F0001106C90D0170002070470822F5E710223E
:10560000F3E70000380000200F494A7A42B1012A2E
:1056100009D0022A11D0032A12D04FF0FF30704770
:105620004FF4804201E041F69C720280C97C11B1C6
:10563000C2F34E010180002070474FF48052F4E71E
:105640004FF40062F1E70000380000200B49097AAE
:1056500039B1012907D002290AD003290BD0002132
:1056600003E0FA2101E04FF4FA7101800020704755
:105670004FF47A71F9E74FF4FA61F6E73800002049
:105680000A49097A41B1012908D002290AD003291F
:105690000AD04FF0FF307047054900E0054901602E
:1056A000002070470449FAE70449F8E73800002071
:1056B000000003430000834233330342333383410A
:1056C0000C49C97A072913D2DFE801F01204060A4F
:1056D0000C0E1000BC2100E0622101800020704708
:1056E0002A21FAE71421F8E70A21F6E70521F4E771
:1056F0000021F2E738000020054991F8242012B17A
:105700004FF0FF307047C9890180002070470000CA
:10571000380000202DE9FC414C4C80208DF8000021
:1057200020686B460122817C60680078FDF7FCF8F8
:105730004FF0FF37002832D16420FBF749FD0025E8
:105740008DF8005020686B460122817C60680078EB
:10575000FDF7EAF8002870D120686B460622817DAB
:1057600060680078FDF7D0F8002866D19DF8050044
:105770009DF80310C007400F01F0010140EA41010C
:105780009DF801004FF0010600F00100014309D02F
:10579000012905D0022915D02DA0FDF759FD4CE0B7
:1057A000E67410E020686B460122C17860680078DA
:1057B000FDF7AAF840BB9DF8000010F00F0020D0C4
:1057C000042822D0E574FF2004F80A0F4FF6FF7179
:1057D00004F8020C04F8010C6070A180A071207222
:1057E000A67026766576E572A572E560256165612D
:1057F000A576E576A5834FF4FA6000F073FB18B93F
:1058000007E01D48FDF724FD17E01CA0FDF720FD73
:10581000C6E7022000F088FA78B92A2000F0CAFB17
:1058200058B9322000F0FCFB38B90020FFF786FDA4
:1058300018B9002000F0ACFA10B13846BDE8FC8180
:10584000002000F02DFC0020F8E7000038000020C8
:10585000556E737570706F7274656420736F6674C3
:10586000776172652070726F6475637420726576FB
:105870002025642E0A0000001879000848616C6633
:105880002073656E736974697669747920706172CA
:105890007420666F756E642E0A0000002DE9FF4FBC
:1058A000DFF89480064685B098F8250015460F4627
:1058B0004FF0FF39B0BBAFB3002420E0301B1028FD
:1058C00000DD102080B283463A19014692462046F8
:1058D00000F042FC30BB6A465946204600F0D2F840
:1058E00000BB50465A466946FAF76FFC20B16FF08C
:1058F000010009B0BDE8F08F04EB0B0084B2B442A4
:10590000DCD3280A8DF810008DF81150D8F800006B
:10591000444604AB817ED8F8040002220078FDF7EB
:1059200003F808B14846E4E7012084F82500089808
:10593000E0840020DDE70000380000202DE9F84376
:1059400005464FF0FF39282844D80727284C002661
:105950007DB1012000F0FCFA20208DF800004FF00E
:105960000108012D17D0052D18D88DF801800520CC
:105970001FE0002000F0ECFA8DF800608DF8017057
:1059800020686B460222817C60680078FCF7CCFFBF
:1059900000BB267529E08DF80160E8E7142D04D8D6
:1059A00002208DF801000A2003E003208DF8010099
:1059B000142000F0FFFA9DF801006B4607EB801001
:1059C0008DF8010020680222817C60680078FCF775
:1059D000ABFF10B14846BDE8F8830820A0722673DB
:1059E00084F814800020FFF7A9FC0020F3E70000F2
:1059F000380000202DE9F843214C0646174694F85C
:105A0000240089464FF0FF3890B3A07A80B3206815
:105A10006B460222817A60680078FCF775FF38BB1C
:105A2000BDF8000045BAB54202D2002038701FE030
:105A300060684188B5EB510F11D9216800786B4639
:105A4000497C0122FCF760FF90B99DF80000C00678
:105A500005D500F041F86FF00100BDE8F88320683B
:105A6000F2B24B46C17A60680078FCF74DFF08B18E
:105A70004046F2E7B5FBF6F0401E38700020ECE738
:105A800038000020F8B516000D464FF0FF371FD044
:105A9000104CA17AE1B1010A8DF80010C0B28DF866
:105AA0000100411960684289914211D8216800784B
:105AB0006B46097E0222FCF737FF48B92068EAB23C
:105AC0003346417D60680078FCF71EFF002800D057
:105AD0003846F8BD38000020F8B5564C4FF0FF3678
