:020000040800F2
:10000000F8050020010100084F300008DD29000834
:100010004D300008710C0008413900080000000054
:10002000000000000000000000000000CB350008C8
:10003000730C000800000000C9340008CD3500082A
:100040001B0100081B0100081B0100081B01000820
:100050001B0100081B0100081B0100081B01000810
:100060001B0100081B0100081B0100081B01000800
:100070001B0100081B0100081B0100081B010008F0
:100080001B0100081B0100081B0100081B010008E0
:100090001B0100081B0100081B0100081B010008D0
:1000A0001B0100081B0100081B0100081B010008C0
:1000B0004D360008593600081B0100081B010008D6
:1000C0001B0100081B0100081B0100081B010008A0
:1000D0001B0100081B0100081B010008353900083E
:1000E0001B0100081B0100081B010008DFF80CD0F1
:1000F00000F0F0FC00480047F5580008F805002023
:100100000648804706480047FEE7FEE7FEE7FEE7B1
:10011000FEE7FEE7FEE7FEE7FEE7FEE749360008FA
:10012000ED0000082DE9F0410024061B254671F181
:10013000000605DA01240027D0EB070067EB010178
:10014000161E73F1000605DA0027D2EB070201251F
:1001500067EB030300F0A8FB86460E4617469C4655
:10016000AC4204D00025D0EB050E65EB010624B1AE
:100170000020D2EB000760EB030C704631463A4694
:100180006346BDE8F081202A04DB203A21FA02F020
:100190000021704721FA02F3D040C2F120029140C1
:1001A000084319467047D2B201E000F8012B491EFE
:1001B000FBD270470022F6E710B513460A46044604
:1001C0001946FFF7F0FF204610BD30B50446002069
:1001D000034600E05B1C934203D2E05CCD5C401B15
:1001E000F8D030BDF0B480EA0102D40F4200B2EB87
:1001F000410F02D20246084611464A0042D0C30DC2
:10020000DDB2C1F3C752AD1A202D35DAC1F31601A4
:1002100041F4000204B15242C5F1200602FA06F18F
:100220002A411044B3EBD05F23D0C4B1012DA0EB21
:10023000C35009DCF0BC4FF0004202EAC352DBB20B
:1002400000F5000000F08BBB400000F1807000EB77
:10025000C350A0F1807040EAD170490009E049081C
:1002600041EAC071A0EBC35000F50000400800EB6C
:10027000C350F0BC00F06ABB6142012202EB4101B5
:10028000001BF6E7F0BC704781F00041AAE780F060
:100290000040A7E780EA010210B502F000434000E9
:1002A00022D04A001FD0010E01EB1261C0F35600AC
:1002B000C2F3560240F4000042F40002A0FB022008
:1002C00000047F39140400D0401C50EA124001D4CD
:1002D0004000491EC2B20C0604EBD010401C40087E
:1002E000802A02D003E0002010BD20F00100002988
:1002F00000DA0020184310BD30B480EA010202F099
:10030000004530F0004221F0004013D090B1C30D01
:10031000D40DC2F31601C0F31600E41A41F4000133
:1003200040F400027D34914201D3641C00E0490096
:10033000002C02DA30BC002070474FF4000000238C
:10034000914201D3891A034340084FEA4101F7D192
:1003500051B1914202D14FF0004105E002D24FF07D
:10036000010101E06FF0010103EBC450284430BCEF
:1003700000F0ECBA420005D0C0F3C752524291429D
:1003800001DC0020704700EBC15070472DE9FE4FA3
:10039000804681EA0300C00F0C46009021F0004126
:1003A00023F00045B8EB0200A94105D240462146A2
:1003B00090461C460B46024623F00040104347D0AF
:1003C000270DC7F30A00C3F30A510290401A0190A7
:1003D00040286BDAC3F3130040F4801B0098924668
:1003E00020B10023D2EB030A63EB0B0B01985946B3
:1003F000C0F14002504600F088FA06460D465046CD
:100400005946019A00F090FA10EB0800614100246F
:1004100087EA115284EAE7731A4340D0009A62B324
:10042000019A012A4FEA075215DC001B61EB020119
:100430004FF0004202EA0752CDE90042001C41F5AC
:10044000801132462B4600F0C7FA03B0BDE8F08FAA
:1004500040462146F9E7001B61EB0201001C41F513
:10046000801300185B412018A2F5001747EB030129
:1004700040EAD570B6196D4111E06D084FEA3606B5
:1004800045EAC0754FEA0752001B61EB0201001CF0
:1004900041F5801149084FEA3000001951413246B8
:1004A0002B4603B0BDE8F04F00F087BA0098012258
:1004B00040000023D0EB020263EBE073009821467A
:1004C0004FEAE074B8EB000061EB0401E9E783F068
:1004D00000435BE781F0004158E72DE9FE4F81EAD8
:1004E000030404F0004421F0004100944FF0000B9D
:1004F00023F0004350EA01045ED052EA03045BD0CB
:10050000C3F30A54C1F30A552C44A4F2F334019402
:10051000A0FB0254C1F3130141F48011C3F3130390
:1005200043F4801301FB024400FB034E840A970A44
:1005300044EA815447EA8357A4FB076802958D0A71
:1005400005FB07854FEA932C04FB0C542705029DFD
:100550004FEA065847EA1637B5EB08056EEB070C6D
:10056000870E920E47EA811742EA8312A7FB020127
:10057000B6EB0B0164EB00042B0D43EA0C335E1861
:1005800044EB1C50DA465146E7FB0201C5F3130465
:100590004FEA0B3343EA14534FEA0432019C43EA17
:1005A0000603A4F10C040294009CCDE900B400F011
:1005B00013FA03B0BDE8F08F00200146F9E72DE9FA
:1005C000F04D81EA030404F0004B21F0004514468D
:1005D0004FF0000A23F0004150EA050220D054EA0F
:1005E00001021DD0C5F30A570246C5F31303C1F338
:1005F0001300C1F30A5640F4801543F48013A7EBAF
:100600000608101BD64608F2FD3873EB050002D32E
:1006100008F1010801E092185B41B8F1000F03DA1C
:1006200000200146BDE8F08D00204FF48011064601
:1006300084460EE0171B73EB050705D3121B63EB13
:10064000050306434CEA010C49084FEA30009218B2
:100650005B4150EA0107EDD152EA030012D082EA71
:10066000040083EA0501084305D0101BAB4106D204
:100670000122002306E000224FF0004302E06FF069
:10068000010253101AEB06004CEB085110EB0A0064
:1006900041EB0B01BDE8F04D00F08FB970B521F0D2
:1006A000004303430CD0C1F30A550024D5EB0405E5
:1006B00064EB0403D617AD1AB34102DB00200146F8
:1006C00070BD201841EB025170BDC10F80EAE0708F
:1006D0000844CA079623002100F041B9962300225E
:1006E000114600F03CB90EB5C10F80EAE070084435
:1006F000CA07002140F233438DE80E000A460B463C
:1007000000F06AF903B000BD0EB540F2334102912A
:100710000021CDE900110A460B4600F05DF903B057
:1007200000BD00F0004220F00040C10DC0F31600F3
:1007300040F400007F2901DA00207047962903DC8D
:10074000C1F19601C84001E096398840002AF4D0F2
:100750004042704720F00040C10DC0F3160040F445
:1007600000007F2901DA00207047962903DCC1F1DF
:100770009601C840704796398840704770B5C1F3FC
:100780000A5201F000450024C1F3130140F2FF3387
:1007900041F480119A4201DA002070BD40F23343E7
:1007A0009A42A2F2334203DC5242FFF7ECFC00E033
:1007B00090402C43F1D0404270BDC1F30A5210B5B5
:1007C000C1F3130140F2FF3341F480119A4201DA80
:1007D000002010BD40F233439A42A2F2334203DCC0
:1007E0005242FFF7D0FC10BD904010BD00F0004217
:1007F00030F000400AD0C10D01F56071C0F3160061
:1008000042EA0151C20840071143704700200146E7
:100810007047000030B5041E71F1000404DB4FF096
:100820000044404264EB0101141E73F1000405DB37
:100830001C464FF00043524263EB04038B4208BF57
:10084000824230BD01F0004330B421F0004150EA53
:10085000010206D00A0DA2F56072C1F31301002A4D
:1008600002DC30BC00207047440F44EAC104C100E0
:10087000E01830BC00EBC25000F068B830B50B4651
:10088000014600202022012409E021FA02F59D42C0
:1008900005D303FA02F5491B04FA02F52844151E94
:1008A000A2F10102F1DC30BD2DE9F05F0546002028
:1008B00092469B4688460646814640241BE02846D1
:1008C000414647462246FFF75EFC53465A46C01A49
:1008D000914110D311461846224600F016F82D1A01
:1008E00067EB01084F4622460120002100F00DF879
:1008F00017EB00094E41201EA4F10104DFDC48463D
:1009000031462A464346BDE8F09F202A04DB203AC0
:1009100000FA02F1002070479140C2F1200320FA52
:1009200003F3194390407047202A06DBCB17203A87
:1009300041FA02F043EAE07306E041FA02F3D040E4
:10094000C2F1200291400843194670470029A8BF10
:100950007047401C490008BF20F00100704710B4E8
:10096000B0FA80FC00FA0CF050EA010404BF10BC9D
:10097000704749B1CCF1200421FA04F411FA0CF1CA
:1009800018BF012121430843A3EB0C01CB1D4FEA03
:1009900000614FEA102042BF002010BC704700EBFE
:1009A000C35010440029A4BF10BC7047401C49002C
:1009B00008BF20F0010010BC704710B5141E73F181
:1009C000000408DA401C41F1000192185B411A430F
:1009D00001D120F0010010BD2DE9F04D92469B465B
:1009E00011B1B1FA81F202E0B0FA80F22032904601
:1009F000FFF78BFF04460F4640EA0A0041EA0B016D
:100A000053465A46084313D0114653EA010019D001
:100A1000C8F140025046FFF7B6FB05460E46504669
:100A200059464246FFF771FF084305D0012004E014
:100A300020463946BDE8F08D0020054346EAE076C1
:100A40002C4337430A986305E40AA0EB0800002210
:100A5000FD0A44EA47540A3002D500200146E9E77E
:100A6000010510196941DDE9084500196941BDE832
:100A7000F04DA2E7C1F30A52C1F3130140F2FF3374
:100A800041F480119A4202DA00200146704740F298
:100A900033439A42A2F2334202DC5242FFF773BB65
:100AA000FFF733BF30B5041E71F1000404DB4FF0D3
:100AB0000044404264EB0101141E73F1000405DBA5
:100AC0001C464FF00043524263EB0403994208BFB7
:100AD000904230BD064C074D06E0E06840F001034F
:100AE00094E8070098471034AC42F6D3FFF702FBB6
:100AF000A0800008C08000082DE9F04D00231A46B0
:100B00001B1A8A4103DB00200146BDE8F08DC1F3CA
:100B10000A52C1F3130141F480154FF0000BD107C5
:100B200002D100186D41521E0027044640F2FF1109
:100B3000384601EB620A3E468046024600204FF4EA
:100B40008011FFF720FBC2197141BB1846EB010071
:100B5000B4EB030C75EB000C04D3E41A65EB000551
:100B600017460E46241908F101006D4180463428CD
:100B7000E3DDF91946EB0600091BA84103D24FF04B
:100B8000FF32134601E0002213461BEB070046EB41
:100B90000A51BDE8F04DFFF710BF000070B50446E4
:100BA00000688168C943C90717D1816821F0010134
:100BB000816000F03BFC05460AE000BF00F036FC17
:100BC000401B022804D920688068C043C00706D0B3
:100BD00020688068C043C007F0D0002070BDA06AC4
:100BE00040F01000A062E06A40F00100E0620120E5
:100BF00070BD0000F8B500260446009600688168C4
:100C0000C943C9072DD0816841F0010181601648B0
:100C100016490068B0FBF1F000E0401E009000288B
:100C2000FBD100F003FC054616E000BF00F0FEFB20
:100C3000401B022810D920688068C043C0070BD031
:100C4000A06A40F01000A062E06A40F00100E0629B
:100C500084F824600120F8BD20688068C043C00784
:100C6000E4D10020F8BD00002C00002040420F001D
:100C7000FEE770470C4910B50968002048620B492F
:100C8000096848623C21084801F0ABFB3C21074859
:100C900001F0A7FB3C21044801F05CFBBDE81040DB
:100CA0003C21024801F056BB140100205C010020E9
:100CB00072B6FEE7F8B50024009490F8242025468B
:100CC000012A12D0012280F824204A681F23072A13
:100CD0000DD20668776B521E02EB820293409F434F
:100CE0000B6893401F43776319E00220F8BD066844
:100CF0000D2A0AD2376BD21F02EB820293409F4328
:100D00000B6893401F43376309E0F76A0D3A02EB23
:100D1000820293409F430B6893401F43F7620A6827
:100D2000072306680A2A0AD3F7680A3A02EB420246
:100D300093409F438B6893401F43F76008E03769F7
:100D400002EB420293409F438B6893401F433761FD
:100D50000A68102A01D0112A20D1124B02689A4247
:100D600017D193681B0219D4936843F4000393606E
:100D70000968102912D10C490C4A0968B1FBF2F13B
:100D800001EB8101490000E0491E00910029FBD1DF
:100D900004E0816A41F020018162012480F824503E
:100DA0002046F8BD002401402C00002040420F00E6
:100DB000806A70470068C06C704700002DE9F04100
:100DC0004FF0000704003D467ED0A06A002628B9F7
:100DD000E66284F82460204600F07EF82046FFF7A3
:100DE000DDFEA16AC90600D420B1A06A40F010005F
:100DF000A06269E0A16A21F4885141F00201A16278
:100E00006268E169237B0A4347EA43010A43A16818
:100E10004FF48077B94209D0012907D05FF0000173
:100E200094F814C0BCF1010F02D00AE03946F7E78C
:100E3000F3B1A36A43F02003A362E36A43F0010322
:100E4000E3622368D3F804C02CF4694C4CEA010C2B
:100E5000C3F804C021688B68DFF870C003EA0C0394
:100E600013438B60A168B9420BD0012909D00CE073
:100E7000DFF85CC0A3690CEB43330B4343F4006120
:100E8000DFE7218A0D05A5F580152168CB6A23F4DB
:100E900070032B43CB62216889680E4B1940914245
:100EA00008D1E662A16A21F0020141F00101A162CC
:100EB000BDE8F081A06A20F0020040F01000A062BE
:100EC000E06A40F00100E0620120F1E7FDF7E1FF98
:100ED00000E0FFFFFE0E1FFF00B585B0002100916E
:100EE00001910291039100680E49884218D10E4881
:100EF000816941F400718161816901F4007104919B
:100F0000816941F0080181618069694600F008004B
:100F100004900120009003200190044800F088F91B
:100F200005B000BD0024014000100240000C01404B
:100F30002DE9F84300270D460446009700F076FAA5
:100F4000804620688168C90508D5A06A40F0200065
:100F5000A06284F824700120BDE8F8834168C905C7
:100F600003D4C06A10F4700F2AD0022000F0AEFD46
:100F70003B490968B1FBF0F62068036939490B4227
:100F80004FEA61014FEAA1121FD1C3684FEA611C09
:100F900013EA0C0F19D103690B4225D1C068104226
:100FA00022D1142023E0681C0AD02DB100F03EFAB3
:100FB000A0EB0800A84203D920680068800725D567
:100FC000206800688007EED52DE003690B4202D14E
:100FD000C168114206D0026923490A4206D1C0689D
:100FE000084203D1542002E0292000E0FC204643BF
:100FF000009816E0681C11D02DB100F017FAA0EB94
:101000000800A8420AD90098B04207D2A06A40F06E
:101010000400A06284F8247003209DE70098401C1F
:101020000090B042E6D321686FF012000860A06A19
:1010300040F40070A06220688068C0F34240072836
:101040000CD1207B50B9A06A20F48070A062A06A05
:10105000C00403D4A06A40F00100A06200207BE736
:101060002C000020244992244992240070B50446A3
:1010700090F8240001280DD0012084F82400204697
:10108000FFF7B8FD02004FF0000005D084F82400FF
:10109000104670BD022070BDA16A40F20123994341
:1010A00041F48071A1621F4D23681F49AB4218D1E2
:1010B0000E6816F4702F14D0A66A46F48016A66245
:1010C0000E68760505D5A66A26F4005646F48056C5
:1010D000A662A66AF6040AD5E66A26F00606E66265
:1010E00006E0A66A26F48016A6625E68E9E7E0627A
:1010F00084F824006FF00200186020688368C3F34E
:101100004243072B05D1A84208D1096811F4702F7A
:1011100004D0816841F480118160B9E7816841F4AD
:10112000A001F9E7002801400424014010B590F81F
:1011300021100022022905D00421816380F820209B
:10114000012010BD01680B6823F00E030B600168DD
:101150000B6823F001030B6090F84030C46B012151
:1011600001FA03F3636080F8211080F82020104614
:1011700010BD000010B590F821100024022903D002
:101180000421816301243DE001680A6822F00E0217
:101190000A6001680A6822F001020A601A4A0168BE
:1011A000914201D1012121E0174A1432914201D12B
:1011B00010211BE0144A2832914201D1891515E013
:1011C000114A3C32914201D189140FE00E4A50324B
:1011D000914202D14FF4803108E00B4A64329142CF
:1011E00002D14FF4801101E04FF08071064A083AB5
:1011F0005160012180F82110002180F82010416BFE
:1012000001B18847204610BD0800024070B5044671
:1012100000F00CF90546601C02D004480078044434
:1012200000F004F9401BA042FAD370BD200000205A
:101230002DE9F84FDFF8B891002409F1040A0AF10A
:10124000040B23460F270BF1040EC9E00125A5402E
:101250002A40AA427DD1674ED1F804C0ACEB060803
:10126000B44532D014DCBCF1030F3AD009DCBCF138
:10127000000F2AD0BCF1010F1CD0BCF1020F31D1FC
:101280001DE0BCF1110F17D0BCF1120F2AD119E0EB
:10129000B8F5881F19D006DCB8F5803F15D0B8F531
:1012A000801F1FD111E0B8F5001F0ED0B8F5041F44
:1012B00018D10AE0CB6815E0CB681B1D12E0CB68A3
:1012C00008330FE0CB680C330CE08B682BB1012B9B
:1012D0004FF0080303D0456104E0042302E00561F8
:1012E00000E00023FF2A01D8064601E000F10406D1
:1012F0004FEA840501D9A5F12005D6F8008007FA48
:1013000005FC28EA0C0803FA05F548EA0508C6F8C2
:1013100000804D68ED0062D5374DAE6946F001069C
:10132000AE61AD6924F0030605F001050095334D6B
:1013300006EB050CDCF80850A607360F07FA06F88E
:1013400025EA0805DFF8B880404503D14FF00008D2
:1013500017E044E0DFF8AC80404502D14FF00108CF
:101360000FE0DFF8A480404502D14FF0020808E00A
:10137000DFF89880404502D14FF0030801E04FF0BC
:10138000040808FA06F848EA0508CCF808804D6811
:10139000D9F80060ED034D4601D5164300E09643B1
:1013A0002E604D68DAF80060AD03554601D516434E
:1013B00000E096432E604D68DBF80060ED025D466C
:1013C00001D5164300E096432E604D68DEF80060BC
:1013D000AD02754601D5164300E096432E60641CAD
:1013E0000D682A46E5407FF431AFBDE8F88F000074
:1013F00000040140000011100010024000000140F4
:1014000000080140000C01400010014000140140A0
:10141000C26821EA02030A4043EA024101617047BF
:101420000AB1016170470904FBE7000001488068C8
:10143000704700002000002070B5040025D094F80B
:101440003D00002520B984F83C50204600F078FA91
:10145000242084F83D002068016821F0010101602A
:101460002068016841F4004101602068016821F4AE
:101470000041016000F09AFC4D4A6168914201D838
:101480004C4900E04C49884201D2012070BD4B49D3
:101490002368B0FBF1F15E6826F03F060E435E6004
:1014A0006368934206D94FF4967359434FF47A73A5
:1014B000B1FBF3F12368491C1E6A26F03F06314355
:1014C00019626168914210D84900401EB0FBF1F2E8
:1014D000521CC2F30B02042A01D2042022E0B0FB0A
:1014E000F1F0401CC0F30B001CE0A268F2B301EB6A
:1014F000C10303EB0116431EB3FBF6F35B1C43F47D
:1015000080431B0549D092B301EBC10202EB0111EC
:10151000401EB0FBF1F0401CC0F30B0040F48040D3
:1015200040F400402168CA694CF6FF739A431043A7
:10153000C861D4E9071001432068026822F0C002A4
:1015400011430160D4E9030101432068826848F235
:10155000FF339A4311438160D4E9050108432168B0
:10156000CA6822F0FF021043C86001E00EE016E0F6
:101570002068016841F0010101602564202084F8A1
:101580003D00256384F83E50002070BD01EB41060C
:10159000431EB3FBF6F35B1CB3E70120C2E701EB8C
:1015A0004101401EB0FBF1F0401CC0F30B00B7E757
:1015B000A086010080841E0000093D0040420F000B
:1015C0002DE9FF4F83B00025DDE910799A46934657
:1015D0000446DDF848800095FFF728FF064694F89A
:1015E0003D0020287CD11923012285492046009600
:1015F00001F004FB0028F5D194F83C0001286FD0DD
:10160000012084F83C0020680168C90703D1016803
:1016100041F0010101602068016821F4006101606E
:10162000222084F83D00402084F83E002564676253
:10163000A4F82A90608D20857248E062CDE900868A
:1016400053465A462046049901F0E0F900287DD11E
:10165000208DDFF8B491202768B1012814D002282A
:10166000206801681ED041F48061016020684169F2
:1016700080690090B6E02068416981690091016845
:1016800041F400710160ADE02068016821F48061DF
:10169000016072B62068416981690091016841F476
:1016A00000710AE041F40061016072B6206841698E
:1016B00081690091016821F48061016062B691E066
:1016C000032868D801280CD0022843464FF00002B6
:1016D0004946204600960FD001F090FAB0BB10E0CA
:1016E0008BE032464146204601F007FB70BB206884
:1016F0000069616A08706CE001F080FA30BB72B674
:1017000034E02068016821F48061016072B62068CD
:101710000069616A0870606A401C6062208D401E2A
:101720002085608D401E6085384846F2A81100680B
:10173000B0FBF1F0C0EBC00000EB80000090401E59
:10174000009008D020684069C04300E029E04007CD
:101750000CD50098F3E744F8305F6773A5732069F0
:1017600040F02000206162B625731AE0206801680D
:1017700041F40071016020680069616A0870606A64
:10178000401C6062218D491E2185618D491E618545
:1017900062B621681BE032464146204601F0ADFAB0
:1017A00018B1012007B0BDE8F08F20680069616AB8
:1017B0000870606A401C6062218D491E2185618D20
:1017C000491E618521684A69D24352070AD40969D2
:1017D0000170606A401C6062208D401E2085608D13
:1017E000401E6085208D00287FF46AAF84F83D702C
:1017F00084F83E5084F83C50D4E70220D2E7000041
:10180000020010000000FFFF040001002C00002077
:101810002DE9FF4F83B09A46DDE9119793460446C0
:10182000DDF84080FFF702FE054694F83D002028D1
:101830007FD11923012240492046009501F0DEF9AD
:10184000002876D194F83C00012872D0012084F859
:101850003C0020680168C90703D1016841F001011B
:1018600001602068016821F400610160212084F892
:101870003D00402084F83E0000262664C4F8248001
:10188000A4F82A90608D20852C48E062CDE900758F
:1018900053465A462046049901F036F970B930E0B3
:1018A0002A463946204601F05BFA58B1206C0428DC
:1018B00004D12068016841F400710160012007B083
:1018C000BDE8F08F606A216800780861606A401C9A
:1018D0006062218D491E89B22185628D521E62850A
:1018E00022685369DB435B070BD469B10078106150
:1018F000606A401C6062208D401E2085608D401E05
:101900006085208D0028CBD12A463946204601F03B
:101910004FF90028CAD154F83D0B016841F4007119
:101920000160202004F81E09E67766770020C6E7EC
:10193000FFE70220C3E70000020010000000FFFFE5
:1019400010B586B0002100910191029103910068C9
:101950000F4988421AD10F4CA06940F00800A061DD
:10196000A069694600F008000490C0200090122091
:101970000190032003900848FFF75AFCE06940F407
:101980000010E061E06900F40010049006B010BDA2
:101990000054004000100240000C014002488168E1
:1019A000027811448160704720000020074810B57C
:1019B000016841F010010160032000F075F80F206C
:1019C00000F006F800F024F8002010BD00200240CE
:1019D00070B50D4D04464FF47A712878B1FBF0F0E4
:1019E0000A490968B1FBF0F000F0C6FB48B9102CB9
:1019F00007D200222146501E00F036F800206C600D
:101A000070BD012070BD0000200000202C000020CF
:101A10000C4808B5816941F001018161816901F0DB
:101A200001010091C16941F08051C161C06900F0BC
:101A3000805000900448416821F0E06141F000715D
:101A4000416008BD0010024000000140002809DB91
:101A500000F01F02012191404009800000F1E020C8
:101A6000C0F8001170470000F0B40E4B1B680C4624
:101A7000C3F30223C3F10705042D00D90425191D62
:101A8000072901D2002300E0DB1E012606FA05F13A
:101A9000491E214099409E40761E16403143F0BCBD
:101AA00001F088BF0CED00E0064900F0070208686D
:101AB0004FF6FF03184040EA0220034A1043086033
:101AC000704700000CED00E00000FA0510B529A4F5
:101AD00001461DCC86B08DE81D002AA02A4C006866
:101AE00004900020012923D002293AD010291DD1C9
:101AF00061682268D20119D5C1F38342C9031DF878
:101B0000020009D5616804AAC1F34041515C1F4A33
:101B1000B2FBF1F1484301E01D49484361684902C5
:101B200004D440005FF00301B0FBF1F006B010BD3B
:101B3000226AC2F30121012903D1920701D5C8030A
:101B4000F4E7022905D1626A920702D549F64040BE
:101B5000ECE70329EAD121688903E7D54FF2244055
:101B6000E4E700F033F96168C1F38131491C4900B1
:101B7000DAE7000002030405060708090A0B0C0D4A
:101B80000E0F1010010200000010024000127A0037
:101B900000093D002DE9F84305460078354CC007A3
:101BA00054D0E0690026C00008D4E06940F08050BD
:101BB000E061E069012600F0805000902E48016845
:101BC000C90512D40168804641F480710160FFF7B5
:101BD0002DFC074605E000BFFFF728FCC01B64286A
:101BE00023D8D8F80000C005F6D5206A10F440705C
:101BF00021D0A98801F4407181421CD0206A1F497C
:101C0000012220F440700A6000220A602062C007AE
:101C100011D0FFF70BFC074641F2883808E000BFFF
:101C2000FFF704FCC11B414502D90320BDE8F8833E
:101C3000206A8007F4D5206A696820F44070084360
:101C400020621EB1E06920F08050E06128788007B2
:101C500005D56068A96820F4404008436060287892
:101C6000C00605D56068E96820F48000084360601C
:101C70000020DBE7001002400070004040044242B8
:101C80002DE9F0470F46050061D0434E306800F063
:101C90000700B84209D2306820F0070038433060AE
:101CA000306800F00700B84251D128683B4C8107EA
:101CB00012D5400703D5606840F4E0606060287882
:101CC000000703D5606840F4605060606068A968F0
:101CD00020F0F000084360602878C00728D06868CA
:101CE000012810D02168022810D0890700292EDA97
:101CF000616821F0030101436160FFF797FB8046B3
:101D000041F288390DE021688903EFE78901EDE7A9
:101D1000FFF78CFBA0EB0801494502D90320BDE881
:101D2000F0876068696800F00C00B0EB810FEFD1BC
:101D3000306800F00700B8420BD9306820F0070087
:101D400038433060306800F00700B84201D001200D
:101D5000E5E72878400705D56068E96820F4E06089
:101D6000084360602878000706D56068296920F478
:101D7000605040EAC100606000F038F86168084ACD
:101D8000C1F30311515CC840064908600648006869
:101D9000FFF71EFE0020C2E70020024000100240B4
:101DA000E86A00082C0000202400002004480549AF
:101DB00000684968044AC1F30221515CC840704779
:101DC0002C00002000100240F86A00080448054971
:101DD00000684968044AC1F3C221515CC840704799
:101DE0002C00002000100240F86A000812A185B003
:101DF0000FC98DE80F0014A0144A006804905168C0
:101E0000134801F00C03042B10D0082B0ED1C1F3A2
:101E10008343C9031DF803000AD5516804AAC1F31E
:101E20004041515C0A4A5043B0FBF1F005B07047A5
:101E300008494843FAE700000203040506070809B9
:101E40000A0B0C0D0E0F10100102000000100240D2
:101E500000127A0000093D002DE9F84F040070D00F
:101E60002078C04DC00749D06868C0F381000128C0
:101E700007D06868C0F38100022809D16868C003F0
:101E800006D52868800339D560680028E7D035E09A
:101E90006068B0F5803F0BD010B1B0F5A02F11D025
:101EA000286820F480302860286820F4802002E030
:101EB000286840F480302860606890B1FFF7B6FA77
:101EC00006460AE0286840F480202860F0E700BF5A
:101ED000FFF7ACFA801B642873D828688003F7D515
:101EE0000CE0FFF7A3FA064605E000BFFFF79EFAF5
:101EF000801B6428F0D828688003F7D420789A4E95
:101F000080074FF001094FF0000839D5686810F0DC
:101F10000C0F07D06868C0F38100022809D16868F7
:101F2000C00306D42868800714D52069012808D189
:101F300010E02069B0B1C6F80090FFF777FA0746C5
:101F400005E00AE1FFF772FAC01B0228C4D828682E
:101F50008007F7D52868616920F0F80040EAC100E1
:101F600028600DE0C6F80080FFF760FA074604E03D
:101F7000FFF75CFAC01B022823D828688007F7D433
:101F8000207800072CD57948A169D9B1C0F8009014
:101F9000FFF74CFA074604E0FFF748FAC01B022897
:101FA0000FD8686A8007F7D571484FF4FA51006876
:101FB000B0FBF1F0009000BF0098411E0091FAD2F2
:101FC0000EE080E0C0F80080FFF730FA074604E03A
:101FD000FFF72CFAC01B022875D8686A8007F7D46F
:101FE0002078400760D5E8690027C00008D4E86978
:101FF00040F08050E861E869012700F080500090CF
:102000005C480168C90513D40168834641F48071B6
:102010000160FFF70BFA824606E000BFFFF706FA01
:10202000A0EB0A0064284ED8DBF80000C005F5D507
:10203000E06801280AD008B1052813D0286A20F0EA
:1020400001002862286A20F0040002E0286A40F0BB
:1020500001002862E06841F2883B98B1FFF7E6F999
:1020600082460BE0286A40F004002862EEE700BFD9
:10207000FFF7DCF9A0EB0A0159455AD8286A800716
:10208000F6D50CE0FFF7D2F9824605E0FFF7CEF96E
:10209000A0EB0A0159454CD8286A8007F6D41FB135
:1020A000E86920F08050E861E06988B36968C1F3AD
:1020B0008101022944D00228C6F8608004D0FFF7CD
:1020C000B5F9044638E034E0FFF7B0F9074604E01C
:1020D000FFF7ACF9C01B02282BD828688001F7D481
:1020E000206AB0F5803F05D16868A16820F400300F
:1020F00008436860D4E908010843696821F4741151
:1021000008436860C6F86090FFF790F9044606E05F
:1021100025E000BFFFF78AF9001B022809D82868CC
:102120008001F7D51BE000BFFFF780F9001B0228F4
:1021300002D90320BDE8F88F28688001F4D40EE0AE
:102140000128F7D06868226A00F48031914204D1F6
:10215000616A00F47010884201D00120EAE7002093
:10216000E8E70000001002400000424280044242C2
:102170002C0000200070004010B5401EB0F1807FA0
:1021800001D3012010BD4FF0E02460610F216017E2
:1021900001F010FC0020A06107202061002010BD8C
:1021A0007047704770B590F83C20012A26D0012472
:1021B00080F83C40022280F83D2003685A689D6800
:1021C00022F070060A6832435A600D4B02689A4248
:1021D00008D0B2F1804F05D00A4B9A4202D00A4B88
:1021E0009A4204D1496825F080031943916080F830
:1021F0003D40002180F83C10084670BD022070BDB3
:10220000002C014000040040000800402DE9F0418E
:102210000D46040003D094F83D0018B108E00120F9
:10222000BDE8F081002084F83C00204600F040F832
:10223000022084F83D002068816844F2070291433F
:102240008160211D206801F00DFA22689068916973
:10225000166A2B68AF69034340F20330814341EAB9
:102260000721A868EF6908434FF6FC418843E968F5
:1022700040EA0720014328692F6A000140EA07303D
:10228000084369686D6926F0220646EA0515294368
:1022900093602268906154F8460B0162012004F8B3
:1022A0001F09E0752076E0762077A0750020B7E75B
:1022B00000B585B00021009101910291039102685F
:1022C00021492248B2F1804F22D0214B9A421DD1A0
:1022D000CA6942F00202CA61CA6902F002020492AB
:1022E0008A6942F004028A61896901F0040104915B
:1022F000C02100916946FEF79BFF002211461D2078
:10230000FFF7B2FB5FF01D00FFF7A0FB05B000BDBB
:10231000CA6942F00102CA61CA6902F0010204926C
:102320008A6942F004028A61896901F0040104911A
:10233000032100916946FEF77BFF002211461C2015
:10234000FFF792FB1C20DFE700100240000801406D
:102350000004004070B590F83E60044690F83F508D
:1023600090F8423090F84320022021B104290ED089
:10237000012E1BD114E0012E18D1012B16D184F8A7
:102380003E0084F8420001220021206820E0012D57
:102390000CD1012A0AD184F83F0084F8430014E0EC
:1023A000012D03D1012B01D1012A01D0012070BDE3
:1023B00084F83E0084F83F0084F8420084F843002B
:1023C00001220021206801F083F901220421206804
:1023D00001F07EF92068016841F0010101600020F0
:1023E00070BD70B590F83E60044690F83F5090F88C
:1023F000423090F84320022021B1042914D0012E4C
:1024000025D11EE0012E22D1012B20D184F83E00DF
:1024100084F8420001220021206801F059F9206867
:10242000C16841F002012FE0012D10D1012A0ED127
:1024300084F83F0084F843000421206801F048F943
:102440001EE0012D03D1012B01D1012A01D0012071
:1024500070BD84F83E0084F83F0084F8420084F8A0
:10246000430001220021206801F032F901220421F9
:10247000206801F02DF92068C16841F00201C160B7
:102480002068C16841F00401C1602068016841F022
:1024900001010160002070BD704770B504460068FE
:1024A00001694FF00005C943890715D4C168C943C4
:1024B000890711D4E91E0161012020772068806915
:1024C0008007204602D0FFF7E7FF04E000F098F80D
:1024D000204600F096F8257720680169C94349072E
:1024E00017D4C168C943490713D46FF004010161CF
:1024F000022020772068806910F4407F204602D0B7
:10250000FFF7CAFF04E000F07BF8204600F079F8FE
:10251000257720680169C943090716D4C168C943F2
:10252000090712D46FF008010161042020772068A8
:10253000C0698007204602D0FFF7AEFF04E000F03C
:102540005FF8204600F05DF8257720680169C943EF
:10255000C90617D4C168C943C90613D46FF0100166
:102560000161082020772068C06910F4407F204670
:1025700002D0FFF791FF04E000F042F8204600F09F
:1025800040F8257720680169C943C90708D1C168A7
:10259000C943C90704D1891E0161204600F032F801
:1025A00020680169C943090609D4C168C9430906FD
:1025B00005D46FF0800101612046FFF7F1FD20682E
:1025C0000169C943490609D4C168C943490605D40C
:1025D0006FF040010161204600F015F820680169A4
:1025E000C94389060BD4C168C943890607D46FF073
:1025F000200101612046BDE87040FFF7D2BD70BDEB
:10260000704770477047704770477047F8B5026869
:1026100004461068D168536910F00F0F4FF00005A1
:1026200053D003F0010601F4907737435FD0C2071F
:1026300005D0CA0503D5226C42F00102226442078C
:1026400005D5DA0703D0226C42F002022264820729
:1026500005D5DA0703D0226C42F004022264020797
:1026600007D501F02002324303D0226C42F0080269
:102670002264226C002A34D0800604D5880602D554
:10268000204601F052F820684069216CC0F38010A8
:10269000090700D430B3204601F02FF820684169C3
:1026A00049061BD5416921F040014161A06BA8B1E9
:1026B00058494163A06BFEF75DFD002811D0A06B67
:1026C000416B01B0BDE8F040084783060FD58B068B
:1026D0000DD52046BDE8F84001F027B82046FFF7A9
:1026E00094FFF8BD2046FFF790FF2564F8BD266BE8
:1026F0002023012E52D1C60650D5CE064ED51068E5
:1027000050680090506940062AD5A16B086840685F
:102710000004000CEAD0A68D8642E7D9E0858869DE
:10272000202818D0D06820F48070D06020684169DB
:1027300021F0010141612068416921F040014161BE
:1027400084F83E3025632068C16821F01001C16023
:10275000A06BFEF7EBFCA08DE18D401A81B219E071
:10276000A08DE18D401A81B2E08D0028BED00029F5
:10277000BCD0D06820F49070D0602068426922F00C
:102780000102426184F83E3025632068C26822F06D
:102790001002C2602046FFF737FFF8BD05062BD5B3
:1027A0000D0629D594F83D002128F6D1A068B0F592
:1027B000805F01D12069B0B1206A411C216221688B
:1027C00000784860E08C401E0004000CE084E4D1F6
:1027D0002068C16821F08001C1602068C16841F0B3
:1027E0004001C160F8BD206A0088C0F30800506055
:1027F000206A801C2062E5E74006F3D54806F1D543
:10280000D168204621F04001D16084F83D3000F0CD
:10281000E4F8F8BDEB36000870B5040004D094F875
:102820003D00002510B106E0012070BD84F83C5049
:10283000204600F023F8242084F83D002068C16879
:1028400021F40051C160204600F0CAFF20680169F0
:1028500021F4904101612068416921F02A01416120
:102860002068C16841F40051C1602564202084F8CB
:102870003D0084F83E00002070BD000030B585B0FA
:10288000002400940194029403940068184988423B
:102890002CD11848C16941F48021C161C16901F49A
:1028A00080210491816941F0080181618069124DA4
:1028B00000F0080004904FF4806000900220019026
:1028C0000320039069462846FEF7B2FCE814CDE9E0
:1028D0000004694628460294FEF7AAFC002211462D
:1028E0002720FFF7C1F82720FFF7B0F805B030BD6B
:1028F0000048004000100240000C014090F83E30BB
:10290000202B0ED159B152B190F83C30012B08D098
:10291000012380F83C300023036300F0BDBF012099
:1029200070470220704770472DE9F843044690F83D
:102930003D001F4616460D4620284CD1C5B1BEB1FC
:1029400094F83C00012846D0012084F83C004FF068
:102950000008C4F84080212084F83D00FEF766FDA1
:10296000A6848146E684A068B0F5805F03D004E0C9
:102970000120BDE8F883206928B12E465FF00005EC
:1029800084F83C800EE00026FAE78021204600F023
:102990009EFFA0B9AEB116F8010B21684860E08C2B
:1029A000401EE084E08C4B464FF000020097002868
:1029B000EBD14FF04001204600F089FF30B10320F9
:1029C000D7E735F8020BC0F30800E6E7202084F8CB
:1029D0003D000020CDE70220CBE77047FEE701680D
:1029E0004A69D24352050FD46FF480624A610021D4
:1029F00040F8301F202242738173026942F00402C2
:102A00000261017301207047002070472DE9F84FE3
:102A10000446006889460B9D01689846174641F4B4
:102A2000806101602068016841F480710160009557
:102A30004FF0011B0022594620460A9B00F0DEF8A9
:102A40004FF4007A40B120680068C00501D5C4F891
:102A500040A00320BDE8F88F216809F0FE0008615E
:102A60002B46284920460A9A00F0FCF8F0BB206863
:102A70004169806900902A4620460A9900F070F961
:102A800040B1206C04283AD12068016841F40071FB
:102A9000016034E0FEB2B8F1010F09D02168380AB4
:102AA00008612A4620460A9900F05AF90028E8D120
:102AB000206806612A4620460A9900F051F900284C
:102AC000DFD12068016841F4807101600095002227
:102AD000594620460A9B00F091F80028B3D121689E
:102AE00009F0FF0040F00100086100E007E02B461C
:102AF000044920460A9A00F0B5F80028AAD001201F
:102B0000A8E70000020001002DE9F8430446006830
:102B10000D46DDE9089701689846164641F4807134
:102B200001604B4600224FF001112046009700F053
:102B300065F848B120680068C00502D54FF4007000
:102B400020640320BDE8F883216805F0FE000861D9
:102B50003B464A461549204600F084F888B920686B
:102B60004169806900903A464946204600F0F8F8ED
:102B700048B1206C042804D12068016841F4007138
:102B800001600120DEE7F5B2B8F1010F09D021683C
:102B9000300A08613A464946204600F0E1F800282C
:102BA000E7D1206805610020CCE7000002000100A9
:102BB00070B516460D4604460DE02046FFF70FFFA0
:102BC00008B1012070BD681C05D0FEF72FFC801BEA
:102BD000A84207D835B120684069C0434007ECD40B
:102BE000002070BD002044F8300F20216173A073D5
:102BF000216941F0200121612073E2E72DE9F047CE
:102C00001E4690460D460446C1F30747DDF8209066
:102C100008E0701C06D0FEF709FCA0EB0900B042EA
:102C20000FD876B12068012F18D0806925EA0000FE
:102C30000004000C14D000214145EAD00020BDE87A
:102C4000F087002044F8300F20216173A0732169C0
:102C500041F02001216120730120F0E74069E5E7A0
:102C60000121E9E72DE9F0479A4691460E460446D0
:102C700000254FF02008C1F3074725E02068406990
:102C8000C043400514D42068016841F4007101601C
:102C900021686FF480604861256384F83D8084F882
:102CA0003E50206C40F00400206484F83C501FE04B
:102CB000B9F1FF3F08D0FEF7B9FBA0EB0A01494587
:102CC0000CD8B9F1000F09D02068012F13D080690A
:102CD00026EA00000004000C0BD0CFE744F8305F78
:102CE00084F80D80A573206940F0200020612573D1
:102CF0000120BDE8F0874069EAE72DE9F0410025B1
:102D000090460E460446202717E04069C043C0069F
:102D10000CD454F8301B6FF01000486144F810597F
:102D20006777A577206A2062257717E0FEF77EFB9C
:102D3000A0EB0800B04208D83EB120684169C94301
:102D40004906E2D40020BDE8F08144F8305F6773A3
:102D5000A573206940F02000206125730120F2E76F
:102D600070B516460D4604460DE02046FFF737FEC7
:102D700008B1012070BD681C05D0FEF757FB801B11
:102D8000A84207D835B120684069C0430006ECD49A
:102D9000002070BD002044F8300F20216173A07323
:102DA000216941F0200121612073E2E73EB5400036
:102DB000CDE900320A4640F6FF7401460294012331
:102DC0000148FEF7FDFB3EBDC00000203EB54000BF
:102DD000CDE900320A4640F6FF7401460294012311
:102DE0000148FEF715FD3EBDC00000203EB50024A1
:102DF00011480094019402940E49846001600473A8
:102E00000475012505614FF460214460C161FDF73F
:102E1000D5FF08B1FDF74CFF0820CDE90005694654
:102E200002940548FDF746FF002801D0FDF740FF5A
:102E30003EBD000000240140900000202DE9F0413B
:102E400086B000262948009601960296039681696D
:102E500041F010018161816901F0100104918169E3
:102E600041F020018161816901F0200104918169B3
:102E700041F004018161816901F0040104918169DB
:102E800041F0080181618069012200F00800184FBB
:102E90009403049021463846FEF7C2FADFF85480C6
:102EA00000224FF448714046FEF7BAFA009401241C
:102EB0000225694638460194CDE90245FEF7B8F986
:102EC00020208DE83100694640460395FEF7B0F9B1
:102ED0004FF440708DE8510003200390694640464E
:102EE000FEF7A6F906B0BDE8F08100000010024030
:102EF00000100140000C01400D4810B50B49016065
:102F00000C49416000214FF480428160C0E9031206
:102F100041618161C1610162FEF78EFA002803D030
:102F2000BDE81040FDF7C4BE10BD000000540040D5
:102F3000C0000020801A060010B58CB0242168461D
:102F4000FDF738F90024164809944FF080410A949F
:102F5000C0E900144FF6FF71C0E90241802104610D
:102F600081610320CDE900040120CDE902040A219A
:102F70000491CDE90540CDE9074169460848FFF7CE
:102F800045F908B1FDF794FE099409A904480A948B
:102F9000FFF708F9002801D0FDF78AFE0CB010BD3C
:102FA0001401002010B58CB024216846FDF702F909
:102FB00000241748099415490A94C0E900144FF6F3
:102FC000FF71C0E902418021046181610320CDE9E4
:102FD00000040120CDE902040A210491CDE9054055
:102FE000CDE9074169460A48FFF710F908B1FDF736
:102FF0005FFE099409A906480A94FFF7D3F8002850
:1030000001D0FDF755FE0CB010BD000000040040DB
:103010005C0100200C4810B50A4901604FF4E13111
:103020004160002181600C22C160C0E9041281610D
:10303000C161FFF7F1FB002803D0BDE81040FDF7A8
:1030400037BE10BD00480040A4010020FEE7FEE7A7
:1030500070B50024002104F1B00000F0D2F9002185
:10306000084600F0CEF90021102000F0CAF9002532
:103070000121002000F0C5F96D1CEDB2802DF7D3C1
:10308000641CE4B2082CE5D370BD00002DE9FF5F9D
:10309000002084B01F46144601268146009001900E
:1030A000024603460290DDF848B0B0462046394655
:1030B000FDF7B0FB204602D287F0004100E0394620
:1030C000FDF75CFB0546FDF70EFB22463B46FDF790
:1030D00001FA0022444BFDF700FAFDF76EFB0146B2
:1030E0000A2005E008EB8802761C4FEA4208F6B297
:1030F00095FBF0F393FBF8F2002AF3D142F2107241
:1031000095FBF2F292FBF0F300FB13228DF8002006
:103110004FF47A7295FBF2F393FBF0FC00FB1C3347
:103120008DF80130642395FBF3FC9CFBF0F800FB69
:1031300018CC8DF802C095FBF0FC9CFBF0F800FB6E
:1031400018CC8DF803C095FBF0FCB1FBF2F200FB4C
:103150001C558DF80450B2FBF0F500FB15224FF022
:103160002E0A8DF805A08DF80620B1FBF3F2B2FB14
:10317000F0F300FB13228DF80720B1FBF0F2B2FB55
:10318000F0F300FB13228DF80820B1FBF0F200FBF6
:1031900012108DF809000DEB0B086D4688F80690AB
:1031A0000020295C30312954401C0A28F9DB002218
:1031B000134620463946FDF72DFB05D2761CF6B2A4
:1031C000C6F105012D2068548DF805A0C6F1050053
:1031D00088F806904219DDE904100C2300F0C4F8C9
:1031E00008B0BDE8F09F00000088C34070B5012220
:1031F0000B4D140221462846FEF712F90122560211
:1032000031462846FEF70CF9002231462846FEF7E3
:1032100007F921462846BDE870400022FEF700B9B4
:10322000000C014070B5094C012211022046FEF746
:10323000F7F86515002229462046FEF7F1F82946E1
:103240002046BDE870400122FEF7EAB8000C0140BC
:1032500070B50122064D140221462846FEF7E0F81B
:1032600021462846BDE870400022FEF7D9B800008C
:10327000000C014010B50A460446002102F1B000DE
:1032800000F0BFF8102040EA1410002100F0B9F857
:1032900004F00F00BDE81040002100F0B2B80000BB
:1032A0002DE9F041203A00240D468046D6B27F2811
:1032B00003D900208D1C8046EDB2102B294610D07A
:1032C000FFF7D8FF164906EB460001EB4005012148
:1032D000285D00F096F8641CE4B2062CF7D3BDE834
:1032E000F081FFF7C7FF0F4F04EB06100121385C98
:1032F00000F087F8641CE4B2082CF5D36D1CE9B229
:103300004046FFF7B7FF002404EB061038440121C4
:10331000007A00F076F8641CE4B2082CF4D3DEE7FF
:10332000006B0008286D00082DE9F8431F46089D32
:103330001400884606462B4604D509A200F014F86E
:10334000644202E007A200F00FF806EB5500C0B29D
:103350003B4622464146009500F01EF8BDE8F88342
:103360002D0000002B0000002DE9F0411F461646FD
:103370008846054600240AE03B4641462846FFF7BA
:103380008FFF0835EDB2782D04D8641CE4B2325DAD
:10339000002AF1D1BDE8F0812DE9F05F0026DDF8CB
:1033A00028901D4692468B46804634464FEA590780
:1033B00023E0281B401EC1B20A2003F07DFABAFBAD
:1033C000F0F00A21B0FBF1F201FB120026B9691EF0
:1033D0008C4201DA38B101263030C2B207FB0480DA
:1033E000C0B24B4604E007FB0480C0B24B4620222B
:1033F0005946FFF755FF641CE4B2AC42D9D3BDE88F
:10340000F09FC0B209B100F048B800F02FB800003A
:103410002DE9F041144F04464FF4807600223146E6
:103420003846FDF7FDFF00254FF4007804F08000DA
:10343000802816D0002241463846FDF7F1FF60068D
:10344000040E012231463846FDF7EAFF00223146DC
:103450003846FDF7E5FF6D1CEDB2082DE6D3BDE85B
:10346000F0810122E7E70000000C014010B504469E
:10347000FFF7BCFE7820FFF7CBFFFFF7E9FE002047
:10348000FFF7C6FFFFF7E4FE2046FFF7C1FFFFF797
:10349000DFFEBDE81040FFF7C5BE10B50446FFF7DC
:1034A000A5FE7820FFF7B4FFFFF7D2FE4020FFF71C
:1034B000AFFFFFF7CDFE2046FFF7AAFFFFF7C8FEDC
:1034C000BDE81040FFF7AEBE704700000246002086
:1034D0000146022A07D0032A04D104480268506A30
:1034E000516200B270470248F8E700005C0100201A
:1034F0001401002010B50021AE20FFF782FF00214B
:103500000846FFF77EFF00211020FFF77AFF002119
:103510004020FFF776FF0021B020FFF772FF002167
:103520008120FFF76EFF0021B020FFF76AFF002126
:10353000A120FFF766FF0021A420FFF762FF002112
:10354000A620FFF75EFF0021A820FFF75AFF002109
:103550003F20FFF756FF0021C820FFF752FF002150
:10356000D320FFF74EFF00210846FFF74AFF002156
:10357000D520FFF746FF00219020FFF742FF0021F2
:10358000D920FFF73EFF00212220FFF73AFF00215C
:10359000DA20FFF736FF00211220FFF732FF00216B
:1035A000DB20FFF72EFF00213020FFF72AFF00214C
:1035B0008D20FFF726FF00211420FFF722FF0021B6
:1035C000BDE81040AF20FFF71CBF7047FEF7E6B91B
:1035D00030B593B028216846FCF7ECFD14210AA809
:1035E000FCF7E8FD002501200F95109511950104C9
:1035F00012958DE8230004904FF4E010CDE90810F7
:10360000022407946846FEF727FC08B172B6FEE76D
:103610000AA90F2081E831004FF48060CDE90D0543
:1036200002210AA8FEF72CFB08B172B6FEE74FF4A0
:10363000004011900F940FA8FEF7ACFA002801D0BB
:1036400072B6FEE713B030BD704700000148FEF7C8
:1036500024BF0000140100200148FEF71EBF000037
:103660005C010020F0B50268164B174C174D4FF067
:103670008047984205D0B84203D0A04201D0A8426A
:1036800003D122F070064A683243984205D0B8420E
:1036900003D0A04201D0A84203D122F44074CA68EA
:1036A00022434C6922F08002224302608A68C2628F
:1036B0000A688262984201D109690163012141616E
:1036C000F0BD0000002C0140000400400008004054
:1036D00010B501F01F030121046A99408C43046274
:1036E000016A9A401143016210BD10B5406A002181
:1036F000C185C184FEF789FF10BD0168CA6822F444
:103700009072CA6001684A6922F001024A61016B45
:10371000012904D10168CA6822F01002CA60202180
:1037200080F83E1000210163704708B590F83E1004
:10373000222901D0022008BD82684FF480539A42AA
:1037400001D1016921B1816A9A421BD04AB10AE0D4
:103750000268816A5268C2F308020A80816A891C81
:1037600008E0026972B10268526802F07F020A70D2
:10377000816A491C8162C18D491E0904090CC185F9
:1037800003D019E002685268F1E70168CA6822F0C4
:103790002002CA600168CA6822F48072CA600168A7
:1037A0004A6922F001024A61202180F83E10016B33
:1037B000012903D0FFF7B7F8002008BD00210163FD
:1037C0000168CA6822F01002CA6001680A68D2065D
:1037D00002D50A6849680091818DFEF715FFEBE775
:1037E00070B5044600680169E26821F44051114354
:1037F00001612169A0680843616908432168CA68BA
:1038000041F20C639A430243CA6020684169A2698D
:1038100021F44071114341611E492068884202D160
:10382000FEF7D4FA01E0FEF7C1FA00EBC00101EBAC
:103830000012606864218000B2FBF0F3B3FBF1F387
:103840006FF018067343B2FBF0F5B2FBF0F605EB30
:103850008305322303EB0515B5FBF1F5B6FBF1F655
:1038600005F0F00505EB0615B2FBF0F6B2FBF0F043
:10387000B0FBF1F06FF01802504306EB800003EB51
:103880000010B0FBF1F0216800F00F0028448860C0
:1038900070BD00000038014081628285C285002130
:1038A0000164222280F83E2080F83C100168CA683A
:1038B00042F48072CA6001684A6942F001024A61BA
:1038C0000068C16841F02001C160002070472DE907
:1038D000F041984617460E460446069D1DE0681CBA
:1038E0001BD02DB1FDF7A2FDA0EB0800A84214D912
:1038F0002068C16821F4D071C1602068416921F05D
:1039000001014161202084F83D0084F83E00002040
:1039100084F83C000320BDE8F0812068006836EAA6
:10392000000004D00020B842D9D00020F3E70120E5
:10393000F9E700000148FEF769BE0000A40100207D
:10394000FEE700000FB4054B10B503A9044A029826
:1039500000F080F910BC5DF814FB00005153000822
:10396000780000200FB4084B10B504A902AA0398F0
:1039700000F070F9044602A9002000F002FD204684
:1039800010BC5DF814FB000083430008490050EAB6
:10399000C12018BF04204A0D18BF40F0010040F2BA
:1039A000FF72B2EB515F08BF40F00200012808BF70
:1039B000052070470907090E002804DB00F1E0200C
:1039C00080F80014704700F00F0000F1E02080F84C
:1039D000141D70472DE9F0414F1E00EBC70104464E
:1039E000D1E9000115461E4637F006020DD02A46E1
:1039F0003346FCF772FD7F1E04EBC703D3E90023B7
:103A0000FCF7C4FC37F00602F1D1022F25D0042FB9
:103A100013D0062F18BFBDE8F0812A463346FCF7C5
:103A20005CFDD4E90A23FCF7B1FC2A463346FCF7D7
:103A300054FDD4E90823FCF7A9FC2A463346FCF7D9
:103A40004CFDD4E90623FCF7A1FC2A463346FCF7DB
:103A500044FDD4E90423FCF799FC2A463346FCF7DD
:103A60003CFDD4E90223FCF791FC2A463346FCF7DF
:103A700034FDD4E90023BDE8F041FCF787BC012206
:103A8000FCF70CBEFCF782BC002213461046114620
:103A9000FCF795BD024A00201107FCF7FFBD0000AE
:103AA00001FDFFFF02E008C8121F08C1002AFAD179
:103AB00070477047002001E001C1121F002AFBD1AE
:103AC0007047000001490860704700007C0000203A
:103AD0002DE9FF5F82B00021DDE90430020DDDF841
:103AE00040B0034318D044F61050A2F2FF324243D4
:103AF0001514119801281FD0A5EB0B00401C5FEA9C
:103B0000000A4FF000064E4FDFF83891B04650469D
:103B100015D5CAF1000413E0119801244AA3012825
:103B200001D16FEA0B010298119AC0E90031C0E996
:103B3000024206B0BDE8F09FCBF10000DFE704468B
:103B40000021404A491842EB0450CDE9001012E030
:103B5000E00707D032463B4640464946FCF7BDFCED
:103B60008046894632463B4610461946FCF7B5FC6E
:103B700006460F466410002CEAD1DDE90401DDE9B8
:103B80000023BAF1000F06DAFCF7A7FC42464B46C9
:103B9000FCF7A3FC05E0FCF712FD42464B46FCF7A0
:103BA0000EFD04460E460022284BFCF77BFF03D88F
:103BB0004FF0FF30014607E00022254B20463146FA
:103BC000FCF7E4FBFCF756FF102409E0002C0ADBAD
:103BD0000A220023FCF768FE039B30321A55641E4C
:103BE00050EA0102F2D1641C039AC4F11103144497
:103BF000119A012A03D0012208430DD10AE008439B
:103C000004D000204FF0110B119072E7A3EB0B05CD
:103C10006D1E0DE05B4504DD4FF0000205F101056E
:103C200004E003DA4FF00002A5F10105002AECD010
:103C300002981199C0E90231C0E9004579E7000016
:103C4000000014400000F03F300000000000F0438E
:103C50000000E03F2DE9FF4F95B09B4689460646A0
:103C600000250FE2252877D100242746F84A0121B4
:103C7000059400E0044316F8013F203B01FA03F0ED
:103C80001042F7D130782A2811D06FF02F03307806
:103C9000A0F13002092A16D8059A44F0020402EB7A
:103CA000820203EB42021044761C0590EFE759F8BC
:103CB000042B0592002A03DA504244F40054059084
:103CC00044F00204761C30782E2816D116F8010F25
:103CD00044F004042A280DD06FF02F023078A0F1B0
:103CE0003003092B09D807EB870302EB4303C718FE
:103CF000761CF3E759F8047B761C30786C280FD0DB
:103D000006DC4C2817D068280DD06A2814D104E0AE
:103D1000742810D07A280FD10DE044F400140AE082
:103D200044F4801401E044F440147278824202D1D9
:103D300004F58014761C761C307866280BD013DCD2
:103D4000582877D009DC002875D04528F6D04628B9
:103D5000F4D047281AD19DE118E0632835D06428B3
:103D600079D0652812D195E1702873D008DC6728D6
:103D7000F1D069286FD06E280DD06F2806D1B5E03C
:103D800073282CD0752875D0782874D05A46179986
:103D900090476D1C75E1C4F30250022809D0032836
:103DA0000DD0D9F8001004280DD00D6009F10409D8
:103DB00067E1D9F80010EA17C1E90052F6E7D9F82F
:103DC00000100D80F2E70D70F0E719F8041B8DF874
:103DD000001000208DF80100EA46012003E059F8A8
:103DE00004AB4FF0FF3061074FF0000102D40DE04B
:103DF00008F101018846B9420FDA8045F8DB1AF86C
:103E000008100029F4D108E008F101018846814238
:103E1000FADB1AF808100029F6D105985B46A0EBEA
:103E2000080721463846179A00F094FA284400EB18
:103E3000080507E04DE029E10DE01AF8010B5A46AC
:103E400017999047B8F10108F7D25B4621463846EA
:103E5000179A13E142E00A220092C4F302524FF093
:103E6000000A022A08D059F804CB032A4FEAEC7161
:103E70000AD00DE029E02AE009F1070121F007024C
:103E8000F2E802C1914609E00FFA8CFC4FEAEC71AE
:103E9000042A03D14FFA8CFC4FEAEC71002907DAAF
:103EA0000A460021DCF1000C61EB02012D2202E048
:103EB000220504D52B228DF80420012203E0E2071D
:103EC00001D02022F7E7904659E00A2102E01022B3
:103ED0000DE010214FF0000A00910BE010224FF08E
:103EE000000A44F004040827009203E008224FF07F
:103EF000000A0092C4F30252022A05D059F804CBFA
:103F00000021032A08D009E009F1070121F0070286
:103F1000F2E802C1914605E01FFA8CFC042A01D1A7
:103F20000CF0FF0C4FF00008220728D5702806D0AF
:103F3000009B83F0100353EA0A0305D00EE04022F1
:103F40008DF80420012208E05CEA010206D030224C
:103F50008DF804208DF8050002229046009B83F026
:103F6000080353EA0A030AD15CEA010201D162079D
:103F700005D530228DF804204FF001087F1E582807
:103F800004D034A003900EA802900DE036A0F9E70B
:103F900053466046009AFCF787FC84460398825C8F
:103FA0000298401E029002705CEA0100F0D1029873
:103FB00006A9081A00F1200A600702D524F480340B
:103FC00000E00127574502DDA7EB0A0000E00020D2
:103FD00000EB0A01009005984144401A0590E00367
:103FE00006D45B462146179A059800F0B3F90544BC
:103FF000002706E001A85A46C05D179990476D1C3E
:104000007F1C4745F6DBE0030CD55B462146179A3B
:10401000059800F09FF9054404E030205A461799AE
:1040200090476D1C0099481E00900029F5DC08E0BF
:10403000029802995A460078491C029117999047B4
:104040006D1CBAF10001AAF1010AF1DC65E1000082
:10405000092801003031323334353637383961625E
:104060006364656600000000303132333435363722
:1040700038394142434445460000000000F058F9F9
:104080000544761C307800287FF4ECAD19B0284642
:10409000BDE8F08F620700D4062709F1070222F07D
:1040A000070CFCE80223E14603F000485FEA080C35
:1040B00002D00FF2702C0DE05FEA045C02D50FF223
:1040C000682C07E05FEAC47C02D00FF2602C01E0AC
:1040D000AFF2700C4FF0FF3823F00043CDF850C022
:1040E00065280CD006DC452809D046281DD0472875
:1040F0003DD13DE0662818D067287ED138E0002108
:10410000112F01DB112000E0781CCDE9000106A988
:104110000EA8FFF7DDFCDDE90F010E9A03910021E7
:10412000009207F1010A04914DE04FF00040009722
:10413000CDE9011006A90EA8FFF7CAFCDDE90F02C0
:1041400003920E9B11990022DDF80CA000930492BB
:1041500011B9791C00EB010AB7EB0A0004D4C0F1D5
:10416000FF3007F1010A0490AAEB0700019044E038
:10417000012F00DA01270021112F01DD112000E0BD
:104180003846CDE9000106A90EA8FFF7A1FCDDE93C
:104190000F010E9A0391002104910092BA46210763
:1041A0000CD40399514500DA8A46BAF1010F05DDB6
:1041B000009AAAF10101515C302908D0B84202DA14
:1041C00010F1040F06DA0121CDE9011015E0AAF182
:1041D0000101E9E7002805DC049901440491AAEBF8
:1041E000000102E0411C514500DD8A460499401A55
:1041F000401C01904FF000400290200704D4019829
:10420000504501DBCDF8048000208DF84F00029866
:104210000DF14F07B0F1004F25D02B200E900298E2
:104220004FF0020800280CDA404202902D200E9038
:1042300007E00A210298FCF721FB3031029007F8D1
:10424000011DB8F10001A8F10108F2DC0298002874
:10425000EFD1791E0E980870307800F0200040F001
:10426000450007F8020D12A8C01B00F107081498BA
:10427000007800B1012000EB0A01019801EBE07128
:1042800005984144401A401E0590E00306D45B4661
:104290002146179A059800F05DF8054414980078B7
:1042A00018B15A46179990476D1CE00324D55B4618
:1042B0002146179A059800F04DF805441CE0049833
:1042C000002807DBDDE90301884203DD0098405C3C
:1042D000179901E0179930205A469047049805F144
:1042E0000105401C04900198401E019004D12E202D
:1042F0005A46179990476D1CBAF10001AAF1010ABC
:10430000DDDC05E017F8010B5A46179990476D1C44
:10431000B8F10001A8F10108F4DC5B462146179AC8
:104320000598ABE62D0000002B00000020000000E7
:104330002DE9F041044600251E461746880404D4A2
:1043400005E039462020B0476D1C641EF9D528468B
:10435000BDE8F0812DE9F041044600251E46904657
:10436000C80301D5302700E02027880404D505E0E4
:1043700041463846B0476D1C641EF9D52846BDE855
:10438000F0810A68531C0B60107070472DE9FE4FD6
:1043900007460E460025684600F0E6FF00246FF051
:1043A0000F0AE8464FF0010957F8240056F8241088
:1043B000401A00D54042FCF788F95146FBF7DAFF76
:1043C00058F8241011F0FF4F0BD0FBF795FF4FF07A
:1043D0007E51FBF759FF0A4920F00040884205DC76
:1043E00007E0084908440849884202D309FA04F062
:1043F0000543641C032CD7DB2846BDE8FE8F000074
:10440000295C0F3E666666C19A99D9002DE9F04D88
:104410008D4F21F0004A86B005460C46BA452ADB8E
:10442000AAEB070028430AD08848824501DC1AD14C
:10443000CDB106B02846BDE8F04DFFF720BB844A59
:10444000844B2846FCF749F807460E46824A834BC0
:1044500028462146FCF741F806B03A463346BDE807
:10446000F04DFBF793BF0120FFF72CFB06B0BDE832
:10447000F04DFFF709BB7A48824542DABAF1795F1D
:104480000BDA2846FFF782FA042808BFFFF702FB81
:10449000284606B02146BDE8F08D2A460B46104658
:1044A000FCF71BF8834602466E480E460B46062173
:1044B0007844FFF78FFA5A463346FCF70EF88046E9
:1044C00069488A465A46334604217844FFF782FAFF
:1044D0005A463346FCF701F800223B46FBF756FFED
:1044E00002460B4640465146FCF769F82A462346E9
:1044F000FBF7F3FF06B02A462346BDE8F04DFBF775
:1045000045BF284624F0004100223D463B46FBF7CC
:10451000E1FF4FF0FF32FCF7C1F806460246534870
:104520000F460B4606217844FFF754FA32463B46C5
:10453000FBF7D3FFCDE900014D4832463B4604214D
:104540007844FFF747FA32463B46FBF7C6FF0022A6
:104550002B46FBF71BFF834602913046394602F09B
:104560009DFA804643480D46504517DCDDE90001C1
:104570005A46029BFCF723F842462B46FBF7ADFF59
:1045800042462B46FBF702FF0122FCF787F8304A30
:10459000304BFBF79CFF304A304B4CE04FF0000AA9
:1045A00052460B464046FBF7F1FECDE9031052465A
:1045B0002B4610461946FBF790FF32463B46FBF769
:1045C00089FFDDE90332FBF7FAFF06460F46DDE916
:1045D00000015A46029BFBF7F2FF8346009101223D
:1045E00030463946FCF75AF8194A1A4BFBF772FF66
:1045F00006460F46012240462946FCF74FF85A4628
:10460000009BFBF76AFF32463B46FBF760FF06461E
:104610000F46012250462946FCF740F80E4DDFF8C0
:1046200058802A464346FBF755FF32463B46FBF788
:1046300051FF2A464346FBF74DFF002CD8BF81F0BF
:10464000004106B0BDE8F08D0000F03F0000F07FB3
:10465000075C143326A6913C182D4454FB21F93FE6
:104660000000E03FAC3A0000C23A0000363A0000D9
:104670004C3A00003333EF3FFB21E93F2DE9F84F7F
:1046800004460D4621F0004000917349814211DC3F
:104690007249884201DC06D12CB120462946BDE88A
:1046A000F84FFFF7ECB96E48002DCCBF6D496E494D
:1046B000BDE8F88F6D49814211DD6D498142D8BF57
:1046C0004FF0FF366DDD20462946FFF75FF90428DD
:1046D00008BFFFF7DFF920462946BDE8F88F654996
:1046E000654F25F00045814233DD6449814219DD83
:1046F000002632464FF0804320462946FBF746FE0F
:1047000080468A46012220462946FBF7C7FF002241
:104710003B46FBF7DCFE42465346FBF750FF0446A0
:104720000D463EE001260022BA463B462046294679
:10473000FBF72CFE80460F460022534620462946B2
:10474000FBF7C5FE42463B46FBF739FF04460D46E4
:1047500027E04B4981421BDDDFF828A10226002219
:10476000534620462946FBF7B8FE00223B46FBF79E
:104770000DFE80460F460022534620462946FBF791
:10478000A6FE42463B46FBF71AFF04460D4608E0EC
:10479000032622462B4600203B49FBF710FF044628
:1047A0000D4622462B4610461946FBF796FE8B46D1
:1047B000824602460B46FBF790FE07460246334808
:1047C00088460B4606217844FFF704F952465B46BB
:1047D000FBF783FE82462E488B463A464346052128
:1047E0007844FFF7F7F83A464346FBF776FE024671
:1047F0000B46002E504659460CDAFBF7C7FD224601
:104800002B46FBF76AFE01B022462B46BDE8F04F6F
:10481000FBF760BEFBF7BAFD22462B46FBF75DFEB9
:104820001C4A7A4402EBC603D3E90023FBF74FFE90
:1048300022462B46FBF74BFE174A7A4402EBC6038F
:10484000D3E90023FBF746FE009A002AB8BF81F0A7
:104850000041BDE8F88F0000000010440000F07F28
:10486000182D4454FB21F93FFB21F9BF0000DC3F28
:104870000000203E0000F33F0000F03F0000E63F54
:10488000008003400000F83F0000F0BF4E380000F9
:104890000C380000AA370000723700002DE9F04DF7
:1048A0009446CCF1000423F000464CEA0404524F35
:1048B00046EAD4749A46884621F00042BC4206D8A3
:1048C000454240EA050442EAD474BC4204D9BDE83A
:1048D000F04D6246FFF7D6B8AAF14055A5F17F65C5
:1048E00055EA0C040BD0022404EAAA74434DDFF805
:1048F00010E144EAD87452EA000B04D00CE0BDE8A1
:10490000F04DFFF7BBBE002C14BF012CBDE8F08DAD
:10491000022C30D0032C32D056EA0C0B0AD0BE4207
:1049200020D1BA4209D126F0804622F08042334697
:10493000114617E000291ADB25E0DFF8C8B0FB4478
:10494000002C04BFDBE90001BDE8F08D012C02BFA3
:10495000DBE9000181F00041BDE8F08D022C0AD0B6
:10496000032C0CD0BA4212D1B8F1000F0BDA234855
:104970002549BDE8F08D28462449BDE8F08D28463C
:104980007146BDE8F08D1D482149BDE8F08D921BB0
:1049900012153C2AC4BF19481D490EDCBAF1000F9C
:1049A000BEBF12F13C0F0020014606DB6246FBF75A
:1049B00006FE21F00041FFF761FE002C08BFBDE8B4
:1049C000F08D012C04BF81F00041BDE8F08D114A4B
:1049D000114B022C07D0FBF77AFD2A46BDE8F04DBB
:1049E0000A4BFBF774BDFBF772FD2A46BDE8F04D9C
:1049F000064BFBF76FBD00000000F07F182D4454FC
:104A0000FB2109C006370000FB21F9BFFB2109404B
:104A1000FB21F93F075C143326A6A13C08B560B121
:104A200020208DF8000028208DF8010030208DF81E
:104A3000020038208DF8030004E0A3220421684618
:104A4000FBF7B1FB6A46042140F69E2001F00AFF05
:104A500001F0C8FB08BD00003EB5044602208DF8F9
:104A60000000CA208DF80100E3208DF80200092023
:104A70008DF803006A460421682001F0F3FEA320AC
:104A80008DF80000610609D5C0218DF80110C821FC
:104A90008DF80210C2218DF8031005E08DF8010099
:104AA0008DF802008DF8030014F4C07F09D0C421F2
:104AB0008DF80410CC218DF80510C6218DF8061054
:104AC00005E08DF804008DF805008DF806008DF8DE
:104AD00008008DF807008DF809006A460A2140F6A3
:104AE000A72001F0BFFEA0074FF0D80503D020207B
:104AF0008DF8000001E08DF800506A46012140F673
:104B0000B62001F0AFFEA00601D5012000E0002094
:104B100000F08EF814F4C07F1ED0E0050AD5B22054
:104B20008DF800008B208DF80100B6208DF8020072
:104B30009B2009E0B0208DF8000080208DF8010056
:104B4000B4208DF8020090208DF803006A460421FD
:104B500040F6A22001F086FEE1074FF40B6022D060
:104B6000F8218DF800106A46012101F07BFEFA2140
:104B7000072000F039FB072000F004FB012000F0C3
:104B800021FB642000F0C4FB4FF4FA7000F0D0FB6E
:104B9000C821254800F0BEFA282000F0D3FA0A20E8
:104BA00000F0E0FA05E08DF800506A46012101F0BE
:104BB00059FEA00703D5D9208DF8000001E08DF83B
:104BC00000506A46012140F23D7001F04BFE600743
:104BD00001D5012000E0002000F048F8E00601D5F2
:104BE000012000E00020FFF719FF104D44F00800FD
:104BF000688101F0F7FA0020A873600601D506204D
:104C0000A87314F4C07F02D0A87B801DA87314F091
:104C1000140F02D0A87B1030A873A00702D0A87B85
:104C2000001DA87300203EBD09E3CA02E801002070
:104C30000EB54FF4976310B106A107C901E008A2B1
:104C400007CA8DE807006A460921184601F00AFEE6
:104C50000EBD0000B8AAB38DB4980D355D000000FC
:104C6000B8AAAAAAB088C3C5C700000008B560B139
:104C7000C0208DF80000C2208DF80100C4208DF8FE
:104C80000200C6208DF8030004E08B220421684650
:104C9000FBF789FA6A46042140F6982001F0E2FD0C
:104CA00001F0A0FA08BD0000C8234FF48062024959
:104CB00040F6F63001F078B9687300082DE9FF4F2F
:104CC00089B01746DDE9165200244C4E88468146CD
:104CD0002C80A246B07B694601F012FA4FF0FF3BF0
:104CE00018B158460DB0BDE8F08F708910F0140F60
:104CF0003CD0009909BA21F0FF039DF803100B4343
:104D00003B6001991B1409BA21F0FF029DF80710BE
:104D10005B430A437A6002999DF80B4009BA21F07F
:104D2000FF012143B960039C091424BA24F0FF0C4D
:104D30009DF80F4012144CEA040CC7F80CC04FEA5F
:104D40002C47494302FB023207FB07111144102490
:104D5000A1F17061B1F1007F04D901F043FAA5F827
:104D600000A0BEE7298841F4807129804206694687
:104D700011D50A19A41D13885BBAA8F8003053880E
:104D80005BBAA8F80230928852BAA8F804202A88A0
:104D900042F008022A8010F4C07F11D00A19A41D25
:104DA00013885BBAA9F8003053885BBAA9F80230BF
:104DB000928852BAA9F804202A8842F070022A8008
:104DC000800716D00C44E07800F0C00500F03F01E9
:104DD0006078C00706D0C80801F007013268491C96
:104DE00002B190476078000703D5716809B1A8093E
:104DF00088470C9800F026FE002073E7E8010020A9
:104E00002DE9FF41044603A800F084FFBDF80C0023
:104E1000410CC3032F48028902F00300550754F8E0
:104E2000200000D54042C2F3C105960654F8255033
:104E300000D56D42C2F38116D20554F8264000D544
:104E40006442A0FB0367C21702FB037200FB012050
:104E5000820042EA9670A5FB0367EA1702FB037221
:104E600005FB0122950045EA9672A4FB0367E5174E
:104E700005FB037304FB01318B0043EA9671030EBB
:104E80008DF80030030C8DF80130030A8DF80230E4
:104E90008DF80300100E8DF80400100C8DF805003D
:104EA000100A8DF80600080E8DF80800080C8DF821
:104EB0000900080A8DF80A008DF807208DF80B10FC
:104EC0006A460C214FF4257001F0CCFC04B0BDE81B
:104ED000F0810000E801002030B5044613A285B03F
:104EE00007CA8DE807004FF0FF35C82C16D8C82038
:104EF000B0FBF4F1491E080A8DF80C008DF80D1076
:104F000003AA022140F2162001F0ACFC30B96A4637
:104F10000C2140F6C12001F0A5FC10B1284605B0D7
:104F200030BD054884810020F9E70000FEF2ABC4E3
:104F3000AAF1DFDFBBAFDFDFE8010020F8B53049C1
:104F4000098901F0030250F822404A0700D5644263
:104F5000C1F3C1028B0650F8222000D55242C1F3A2
:104F6000811350F82330C80500D55B42254984FBE6
:104F70000140850045EA947082FB0142A40F44EA97
:104F8000820483FB0121950F45EA8105010E8DF80E
:104F90000010010C8DF80110010A8DF802108DF837
:104FA00003006A4604214FF4747001F05BFC4FF07B
:104FB000FF3688B9200E8DF80000200C8DF8010016
:104FC000200A8DF802008DF803406A4604214FF450
:104FD000757001F047FC08B13046F8BD280E8DF819
:104FE0000000280C8DF80100280A8DF802008DF8C9
:104FF00003506A4604214FF4767001F033FCF8BD8B
:10500000E801002009E3CA022DE9FF4104463CA063
:1050100004F00303006802903AA0006803903AA0ED
:1050200006683AA0056802A8C15C8DF80010C4F3B8
:10503000C101425C8DF80120C4F38112805C8DF8BF
:10504000020003A8C35C8DF80430415C8DF80510A4
:10505000805C8DF806006A46032140F2264001F08C
:1050600001FC4FF0FF37E0BB01AA032140F22A40C8
:1050700001F0F8FBA8BBCDE9006560070BD59DF8F2
:10508000000040F001008DF800009DF8040040F0A1
:1050900001008DF80400A0060BD59DF8010040F03A
:1050A00001008DF801009DF8050040F001008DF829
:1050B0000500E0050BD59DF8020040F001008DF8D9
:1050C00002009DF8060040F001008DF806006A46D7
:1050D00003214FF4886001F0C5FB10B901AA032138
:1050E00000E004E040F2314001F0BCFB18B138466A
:1050F00004B0BDE8F081064804810020F8E7000014
:105100004CCD6C000CC92C00365676002646660045
:10511000E80100204FF47A7290FBF2F008B54843A2
:10512000010E8DF80010010C8DF80110010A8DF8A8
:1051300002108DF803006A4604214FF4AE7001F0AE
:1051400091FB08BD0521B0FBF1F008B5010A8DF80F
:1051500000108DF801006A4602214FF4AD7001F095
:1051600081FB08BD0521B0FBF1F008B5010A8DF8FF
:1051700000108DF801006A4602214FF4AC7001F076
:1051800071FB08BD08B500218DF80010C10702D0E1
:1051900030218DF80010810705D59DF8001041F0F1
:1051A0000C018DF80010400705D59DF8000040F077
:1051B00003008DF800006A4601214FF4A47001F04D
:1051C00051FB08BD08B560B1042800D90420401E79
:1051D0008DF800006A46012140F24F1001F042FBB9
:1051E00008BD0120F3E700002DE9FC41054640071A
:1051F0004FF0FF367CD0B1F5C86F79D80846FBF781
:105200006DFA3E49FBF778F8074601A800F064FD07
:105210009DF80400022806D004280DD008282ED0BE
:10522000102865D134E00E213846FBF7A3F8FBF7D0
:1052300091FA84B2324907E00D213846FBF79AF81B
:10524000FBF788FA2F4984B23846FBF723F8FBF7BF
:1052500081FA210A8DF8001080B28DF80140010A10
:105260008DF802108DF80300E8076C4620D0224626
:1052700002214FF4EA7001F0F5FAC8BB11E00C21ED
:105280003846FBF777F8FBF765FA84B21E49DBE78F
:105290000B213846FBF76EF8FBF75CFA84B21B492A
:1052A000D2E7A21C02214FF4927001F0DBFAF8B9A8
:1052B000A8070DD56A4602214FF4EC7001F0D2FA2E
:1052C000B0B9A21C02214FF4947001F0CBFA78B966
:1052D000680710D56A4602214FF4EE7001F0C2FA59
:1052E00030B9A21C02214FF4967001F0BBFA10B144
:1052F0003046BDE8FC810020FBE700000000484389
:10530000000040460000C045000040450000C04489
:105310000521B0FBF1F008B5010A8DF800108DF8F9
:1053200001006A4602214FF4EF7001F09BFA08BDBC
:105330000521B0FBF1F008B5010A8DF800108DF8D9
:1053400001006A4602214FF4ED7001F08BFA08BDAE
:1053500013B54FF6FF73012269460248FDF7E4FAE0
:1053600000981CBDA40100202DE9FE4306462648F6
:1053700001AB042240680D210078FDF717FD10B144
:105380000720BDE8FE839DF804101C2000EAD1022E
:105390009DF80710DFF87490C1F301131A438DF8DC
:1053A00000209DF80520C1F3810300EAD2021A43D0
:1053B0008DF801209DF8062001F0030100EAD200DB
:1053C00008430024124F8DF80200A0466D46285D68
:1053D00010B146F824900AE046F824800DE000BFA2
:1053E00056F824003946FAF755FF46F82400285DA0
:1053F000401E10F0FF002855F2D1641CE4B2032CCB
:10540000E5D30020BDE70000400000207B14AE3E45
:105410001D5A843F2DE9FE4F05460120C14E8DF8EF
:1054200000004FF000088DF8018030680C461746E8
:10543000817C70686B4602220078FDF7C7FC4FF054
:10544000FF3A00287AD1C820FBF7E0FE8DF80080F3
:1054500030686B460122C17B70680078FDF7B6FCAE
:105460000028EFD130686B460122417970680078DE
:10547000FDF7ACFC0028E5D130686B460122817C49
:1054800070680078FDF7A2FC0028DBD130686B461D
:105490000122C17D70680078FDF798FC0028D1D109
:1054A00030686B460122017970680078FDF78EFC48
:1054B0000028C7D14FF00C098DF8009030686B467A
:1054C0000122017970680078FDF780FC002835D151
:1054D0000F20FBF79BFEB06A6B460122407A8DF8E5
:1054E00000003068817870680078FDF76FFC002854
:1054F00024D1B06A6B460122007A8DF80000306832
:10550000417870680078FDF761FC002873D1B06ABB
:10551000807A0FB140F0E0008DF8000030686B46F3
:105520000122817970680078FDF750FC002862D173
:105530002FB1B06AC07A40F0E00001E04AE01820E4
:105540008DF8000030686B460122C17970680078E0
:10555000FDF73CFCF0BB17B1C820FBF757FE40201D
:105560008DF8000030686B46012201797068007880
:10557000FDF72CFC70BB78208DF8000030686B467E
:105580000122417970680078FDF720FC10BB3220C1
:10559000FBF73CFE8DF80080306847466B4641794A
:1055A000706801220078FDF711FC98B931687068C5
:1055B000B046897A00786B460222FDF7F7FB48B9BE
:1055C000BDF80000AF6040BAB0FBF9F06F60C6B242
:1055D0002F6000E00FE0A76067602760002739E0D8
:1055E000D8F80010D8F804006B46C97A00780C226D
:1055F000FDF7DCFB10B15046BDE8FE8FBDF80000A2
:10560000236840BA02B2BDF80200BDF804101A4483
:10561000226040BA626800B21044606049BAA06873
:1056200009B20844A060BDF806002B6840BA02B277
:10563000BDF808001A4440BA01B2BDF80A002A6059
:105640006A6840BA11446960A96800B208447F1CC6
:10565000FFB2A860B742C3D328688322C1170904E8
:1056600041EA104100040023FAF75CFD32460023B2
:10567000FAF758FD286068688322C117090441EAD7
:10568000104100040023FAF74DFD32460023FAF7DB
:1056900049FD6860A8688322C117090441EA1041E6
:1056A00000040023FAF73EFD32460023FAF73AFDE4
:1056B000A86020684FF40065C117090441EA104151
:1056C00000042A460023FAF72DFD32460023FAF79C
:1056D00029FD206060682A46C117090441EA10418B
:1056E00000040023FAF71EFD32460023FAF71AFDE4
:1056F0006060A0682A46C117090441EA104100040D
:105700000023FAF70FFD32460023FAF70BFDA060E5
:10571000002802DDA0F5803001E000F58030A060B7
:10572000002069E7400000202DE9F0471B48FBF707
:105730009DFC64211948FBF7FBFB1848FBF738FB7D
:10574000800503D51548FBF735FB04462046FAF7DC
:10575000DBFF4FF066394A46114BFAF7BEFE6FF099
:105760000B02FAF79BFF0F4C07468846D4E902016B
:105770000D4A0E4BFAF7B1FE05460E464A460C4B53
:1057800038464146FAF7A9FE2A463346FAF7FEFDA7
:10579000C4E90001C4E90201BDE8F08790000020DF
:1057A0006626424030000020343333333333D33F56
:1057B0006666E63F2DE9F84F81462E48884600256B
:1057C00040686B46032200780D21FDF7EFFA10B117
:1057D0000720BDE8F88F9DF80000002400F01F00AE
:1057E0008DF800009DF801006FF00F0B00F01F0016
:1057F0008DF801009DF802006E4600F01F008DF844
:1058000002004FF0010A00BF59F8241058F8240094
:10581000081A00D54042FAF758FF5946FAF7AAFD90
:105820000746305DC0B1144802E01449FAF732FD72
:10583000315D491E11F0FF013155F6D10146384660
:10584000FAF75AFD4FF07E51FAF71EFD0C4920F091
:105850000040884205DC07E00A483844B0F1D97FAF
:1058600002D90AFA04F00543641C032CCCDB284659
:10587000AFE70000400000200000C84154E3853F2E
:10588000295C0F3E0000E0BE00B5024600F00DF8B6
:105890000346D01C00F009F843EAC003901D00F055
:1058A00004F843EA801080B200BD90F9001000298E
:1058B00002DD4FF00000704702DA4FF0040070473D
:1058C00090F90110002902DD4FF00100704702DA63
:1058D0004FF00500704790F90200002802DD4FF0FC
:1058E0000200704702DA4FF0060070474FF00700E1
:1058F0007047000086B0FCF759F8FDF769FEFDF728
:105900009DFAFDF7F9FAFDF771FAFDF783FBFDF754
:1059100013FBFDF747FB012232493348FCF7EEFF4A
:10592000FDF7E8FD6420FBF771FCFDF791FB00F04B
:10593000FBFF2EA0FEF706F800208DF810000121D5
:1059400040F6FF7204A88DE807000B467522D021AF
:105950002A48FBF735FE9DF81010682903D028A0CF
:10596000FDF7F0FF06E02BA0FDF7ECFF02E0C820FA
:10597000FBF74CFC00F060F90028F8D1FBF77AF94E
:10598000184C00BFFFF7D0FE164AC4E906010C32DE
:10599000111F081F00F082F8C0B94FF4804125485C
:1059A000FBF736FDE068FAF721FF07468846A06856
:1059B000FAF71CFF05460E466068FAF717FF8DE8F8
:1059C000E00102460B461CA0FDF7BCFF0220FDF7DC
:1059D0007DFD404220610320FDF778FD606100F00D
:1059E00073FFCFE700000020A40100206D70753622
:1059F00030353020696E69740D0A0000C000002047
:105A0000457272206D70752069643A307825780D82
:105A10000A0000006D707536303530204944205240
:105A20006561643A204F4B20617420307836380D20
:105A30000A0000000010014025662C25662C256612
:105A40000D0A0000704700002DE9F041124C20F0D3
:105A50000101002594F8240010B10020BDE8F08178
:105A6000A07A4FF0FF3668B10840277C2074884246
:105A700000D0354641B1012000F0E4FF00F0B2FB58
:105A800038B127743046E9E7207D00B1012000F0ED
:105A9000D9FF2846E2E70000400000202DE9F74F3B
:105AA0008EB00CA902A8CDE900010BAB03AA09A98D
:105AB00007A8FFF703F918B1012011B0BDE8F08F76
:105AC000BDF80800C0057DD50398FAF7FEFD6FF01C
:105AD0001D042146FAF74EFC82460498FAF7F5FDBC
